{
  "contractName": "CryptoPlace",
  "abi": [
    {
      "inputs": [],
      "stateMutability": "nonpayable",
      "type": "constructor"
    },
    {
      "anonymous": false,
      "inputs": [
        {
          "indexed": true,
          "internalType": "address",
          "name": "owner",
          "type": "address"
        },
        {
          "indexed": true,
          "internalType": "address",
          "name": "approved",
          "type": "address"
        },
        {
          "indexed": true,
          "internalType": "uint256",
          "name": "tokenId",
          "type": "uint256"
        }
      ],
      "name": "Approval",
      "type": "event"
    },
    {
      "anonymous": false,
      "inputs": [
        {
          "indexed": true,
          "internalType": "address",
          "name": "owner",
          "type": "address"
        },
        {
          "indexed": true,
          "internalType": "address",
          "name": "operator",
          "type": "address"
        },
        {
          "indexed": false,
          "internalType": "bool",
          "name": "approved",
          "type": "bool"
        }
      ],
      "name": "ApprovalForAll",
      "type": "event"
    },
    {
      "anonymous": false,
      "inputs": [
        {
          "indexed": true,
          "internalType": "address",
          "name": "previousOwner",
          "type": "address"
        },
        {
          "indexed": true,
          "internalType": "address",
          "name": "newOwner",
          "type": "address"
        }
      ],
      "name": "OwnershipTransferred",
      "type": "event"
    },
    {
      "anonymous": false,
      "inputs": [
        {
          "indexed": false,
          "internalType": "address",
          "name": "account",
          "type": "address"
        }
      ],
      "name": "Paused",
      "type": "event"
    },
    {
      "anonymous": false,
      "inputs": [
        {
          "indexed": true,
          "internalType": "address",
          "name": "from",
          "type": "address"
        },
        {
          "indexed": true,
          "internalType": "address",
          "name": "to",
          "type": "address"
        },
        {
          "indexed": true,
          "internalType": "uint256",
          "name": "tokenId",
          "type": "uint256"
        }
      ],
      "name": "Transfer",
      "type": "event"
    },
    {
      "anonymous": false,
      "inputs": [
        {
          "indexed": false,
          "internalType": "address",
          "name": "account",
          "type": "address"
        }
      ],
      "name": "Unpaused",
      "type": "event"
    },
    {
      "inputs": [],
      "name": "NUM_ROWS",
      "outputs": [
        {
          "internalType": "uint256",
          "name": "",
          "type": "uint256"
        }
      ],
      "stateMutability": "view",
      "type": "function",
      "constant": true
    },
    {
      "inputs": [],
      "name": "PIXEL_LIMIT",
      "outputs": [
        {
          "internalType": "uint256",
          "name": "",
          "type": "uint256"
        }
      ],
      "stateMutability": "view",
      "type": "function",
      "constant": true
    },
    {
      "inputs": [
        {
          "internalType": "address",
          "name": "to",
          "type": "address"
        },
        {
          "internalType": "uint256",
          "name": "tokenId",
          "type": "uint256"
        }
      ],
      "name": "approve",
      "outputs": [],
      "stateMutability": "nonpayable",
      "type": "function"
    },
    {
      "inputs": [
        {
          "internalType": "address",
          "name": "owner",
          "type": "address"
        }
      ],
      "name": "balanceOf",
      "outputs": [
        {
          "internalType": "uint256",
          "name": "",
          "type": "uint256"
        }
      ],
      "stateMutability": "view",
      "type": "function",
      "constant": true
    },
    {
      "inputs": [
        {
          "internalType": "uint256",
          "name": "tokenId",
          "type": "uint256"
        }
      ],
      "name": "getApproved",
      "outputs": [
        {
          "internalType": "address",
          "name": "",
          "type": "address"
        }
      ],
      "stateMutability": "view",
      "type": "function",
      "constant": true
    },
    {
      "inputs": [
        {
          "internalType": "address",
          "name": "owner",
          "type": "address"
        },
        {
          "internalType": "address",
          "name": "operator",
          "type": "address"
        }
      ],
      "name": "isApprovedForAll",
      "outputs": [
        {
          "internalType": "bool",
          "name": "",
          "type": "bool"
        }
      ],
      "stateMutability": "view",
      "type": "function",
      "constant": true
    },
    {
      "inputs": [
        {
          "internalType": "uint256",
          "name": "",
          "type": "uint256"
        }
      ],
      "name": "mintedPixels",
      "outputs": [
        {
          "internalType": "uint256",
          "name": "",
          "type": "uint256"
        }
      ],
      "stateMutability": "view",
      "type": "function",
      "constant": true
    },
    {
      "inputs": [],
      "name": "name",
      "outputs": [
        {
          "internalType": "string",
          "name": "",
          "type": "string"
        }
      ],
      "stateMutability": "view",
      "type": "function",
      "constant": true
    },
    {
      "inputs": [],
      "name": "owner",
      "outputs": [
        {
          "internalType": "address",
          "name": "",
          "type": "address"
        }
      ],
      "stateMutability": "view",
      "type": "function",
      "constant": true
    },
    {
      "inputs": [
        {
          "internalType": "uint256",
          "name": "tokenId",
          "type": "uint256"
        }
      ],
      "name": "ownerOf",
      "outputs": [
        {
          "internalType": "address",
          "name": "",
          "type": "address"
        }
      ],
      "stateMutability": "view",
      "type": "function",
      "constant": true
    },
    {
      "inputs": [],
      "name": "paused",
      "outputs": [
        {
          "internalType": "bool",
          "name": "",
          "type": "bool"
        }
      ],
      "stateMutability": "view",
      "type": "function",
      "constant": true
    },
    {
      "inputs": [],
      "name": "pixelCount",
      "outputs": [
        {
          "internalType": "uint256",
          "name": "",
          "type": "uint256"
        }
      ],
      "stateMutability": "view",
      "type": "function",
      "constant": true
    },
    {
      "inputs": [
        {
          "internalType": "uint256",
          "name": "",
          "type": "uint256"
        }
      ],
      "name": "pixels",
      "outputs": [
        {
          "internalType": "uint256",
          "name": "coords",
          "type": "uint256"
        },
        {
          "internalType": "string",
          "name": "color",
          "type": "string"
        },
        {
          "internalType": "address payable",
          "name": "owner",
          "type": "address"
        },
        {
          "internalType": "uint256",
          "name": "weiPrice",
          "type": "uint256"
        },
        {
          "internalType": "bool",
          "name": "exists",
          "type": "bool"
        }
      ],
      "stateMutability": "view",
      "type": "function",
      "constant": true
    },
    {
      "inputs": [],
      "name": "renounceOwnership",
      "outputs": [],
      "stateMutability": "nonpayable",
      "type": "function"
    },
    {
      "inputs": [
        {
          "internalType": "address",
          "name": "from",
          "type": "address"
        },
        {
          "internalType": "address",
          "name": "to",
          "type": "address"
        },
        {
          "internalType": "uint256",
          "name": "tokenId",
          "type": "uint256"
        }
      ],
      "name": "safeTransferFrom",
      "outputs": [],
      "stateMutability": "nonpayable",
      "type": "function"
    },
    {
      "inputs": [
        {
          "internalType": "address",
          "name": "from",
          "type": "address"
        },
        {
          "internalType": "address",
          "name": "to",
          "type": "address"
        },
        {
          "internalType": "uint256",
          "name": "tokenId",
          "type": "uint256"
        },
        {
          "internalType": "bytes",
          "name": "_data",
          "type": "bytes"
        }
      ],
      "name": "safeTransferFrom",
      "outputs": [],
      "stateMutability": "nonpayable",
      "type": "function"
    },
    {
      "inputs": [
        {
          "internalType": "address",
          "name": "operator",
          "type": "address"
        },
        {
          "internalType": "bool",
          "name": "approved",
          "type": "bool"
        }
      ],
      "name": "setApprovalForAll",
      "outputs": [],
      "stateMutability": "nonpayable",
      "type": "function"
    },
    {
      "inputs": [
        {
          "internalType": "bytes4",
          "name": "interfaceId",
          "type": "bytes4"
        }
      ],
      "name": "supportsInterface",
      "outputs": [
        {
          "internalType": "bool",
          "name": "",
          "type": "bool"
        }
      ],
      "stateMutability": "view",
      "type": "function",
      "constant": true
    },
    {
      "inputs": [],
      "name": "symbol",
      "outputs": [
        {
          "internalType": "string",
          "name": "",
          "type": "string"
        }
      ],
      "stateMutability": "view",
      "type": "function",
      "constant": true
    },
    {
      "inputs": [
        {
          "internalType": "uint256",
          "name": "tokenId",
          "type": "uint256"
        }
      ],
      "name": "tokenURI",
      "outputs": [
        {
          "internalType": "string",
          "name": "",
          "type": "string"
        }
      ],
      "stateMutability": "view",
      "type": "function",
      "constant": true
    },
    {
      "inputs": [],
      "name": "transctionFee",
      "outputs": [
        {
          "internalType": "uint256",
          "name": "",
          "type": "uint256"
        }
      ],
      "stateMutability": "view",
      "type": "function",
      "constant": true
    },
    {
      "inputs": [
        {
          "internalType": "address",
          "name": "from",
          "type": "address"
        },
        {
          "internalType": "address",
          "name": "to",
          "type": "address"
        },
        {
          "internalType": "uint256",
          "name": "tokenId",
          "type": "uint256"
        }
      ],
      "name": "transferFrom",
      "outputs": [],
      "stateMutability": "nonpayable",
      "type": "function"
    },
    {
      "inputs": [
        {
          "internalType": "address",
          "name": "newOwner",
          "type": "address"
        }
      ],
      "name": "transferOwnership",
      "outputs": [],
      "stateMutability": "nonpayable",
      "type": "function"
    },
    {
      "inputs": [
        {
          "internalType": "uint256",
          "name": "_coords",
          "type": "uint256"
        },
        {
          "internalType": "string",
          "name": "_color",
          "type": "string"
        },
        {
          "internalType": "uint256",
          "name": "_initialWeiPrice",
          "type": "uint256"
        }
      ],
      "name": "mint",
      "outputs": [],
      "stateMutability": "nonpayable",
      "type": "function"
    },
    {
      "inputs": [
        {
          "internalType": "uint256[]",
          "name": "_coordsToMint",
          "type": "uint256[]"
        },
        {
          "internalType": "string[]",
          "name": "_colors",
          "type": "string[]"
        },
        {
          "internalType": "uint256[]",
          "name": "_initialWeiPrices",
          "type": "uint256[]"
        }
      ],
      "name": "mintBatch",
      "outputs": [],
      "stateMutability": "nonpayable",
      "type": "function"
    },
    {
      "inputs": [
        {
          "internalType": "uint256",
          "name": "_coords",
          "type": "uint256"
        },
        {
          "internalType": "string",
          "name": "_color",
          "type": "string"
        },
        {
          "internalType": "uint256",
          "name": "_weiPrice",
          "type": "uint256"
        }
      ],
      "name": "changeColorAndPrice",
      "outputs": [],
      "stateMutability": "nonpayable",
      "type": "function"
    },
    {
      "inputs": [
        {
          "internalType": "uint256",
          "name": "_coords",
          "type": "uint256"
        },
        {
          "internalType": "string",
          "name": "_color",
          "type": "string"
        },
        {
          "internalType": "uint256",
          "name": "_weiPrice",
          "type": "uint256"
        }
      ],
      "name": "buyPixel",
      "outputs": [],
      "stateMutability": "payable",
      "type": "function",
      "payable": true
    },
    {
      "inputs": [
        {
          "internalType": "uint256",
          "name": "_newTransactionFee",
          "type": "uint256"
        }
      ],
      "name": "setTransctionFee",
      "outputs": [],
      "stateMutability": "nonpayable",
      "type": "function"
    },
    {
      "inputs": [
        {
          "internalType": "string",
          "name": "baseURI_",
          "type": "string"
        }
      ],
      "name": "setBaseURI",
      "outputs": [],
      "stateMutability": "nonpayable",
      "type": "function"
    },
    {
      "inputs": [
        {
          "internalType": "string",
          "name": "_s1",
          "type": "string"
        },
        {
          "internalType": "string",
          "name": "_s2",
          "type": "string"
        }
      ],
      "name": "stringsAreEqual",
      "outputs": [
        {
          "internalType": "bool",
          "name": "",
          "type": "bool"
        }
      ],
      "stateMutability": "pure",
      "type": "function",
      "constant": true
    },
    {
      "inputs": [
        {
          "internalType": "string",
          "name": "_color",
          "type": "string"
        }
      ],
      "name": "isColor",
      "outputs": [
        {
          "internalType": "bool",
          "name": "",
          "type": "bool"
        }
      ],
      "stateMutability": "pure",
      "type": "function",
      "constant": true
    }
  ],
  "bytecode": "0x608060405260016009553480156200001657600080fd5b506040518060400160405280600581526020017f506978656c0000000000000000000000000000000000000000000000000000008152506040518060400160405280600381526020017f50584c000000000000000000000000000000000000000000000000000000000081525081600090805190602001906200009b92919062000191565b508060019080519060200190620000b492919062000191565b5050506000620000c96200018960201b60201c565b905080600660006101000a81548173ffffffffffffffffffffffffffffffffffffffff021916908373ffffffffffffffffffffffffffffffffffffffff1602179055508073ffffffffffffffffffffffffffffffffffffffff16600073ffffffffffffffffffffffffffffffffffffffff167f8be0079c531659141344cd1fd0a4f28419497f9722a3daafe3b4186f6b6457e060405160405180910390a3506000600660146101000a81548160ff021916908315150217905550620002a6565b600033905090565b8280546200019f9062000241565b90600052602060002090601f016020900481019282620001c357600085556200020f565b82601f10620001de57805160ff19168380011785556200020f565b828001600101855582156200020f579182015b828111156200020e578251825591602001919060010190620001f1565b5b5090506200021e919062000222565b5090565b5b808211156200023d57600081600090555060010162000223565b5090565b600060028204905060018216806200025a57607f821691505b6020821081141562000271576200027062000277565b5b50919050565b7f4e487b7100000000000000000000000000000000000000000000000000000000600052602260045260246000fd5b614eb980620002b66000396000f3fe6080604052600436106101d85760003560e01c8063715018a611610102578063acca6b3111610095578063e985e9c511610064578063e985e9c5146106c3578063f2fde38b14610700578063fa7a3bb514610729578063fe7fdced14610754576101d8565b8063acca6b311461060b578063b88d4fde14610634578063c87b56dd1461065d578063ca5774be1461069a576101d8565b80638da5cb5b116100d15780638da5cb5b1461054b5780638da7f2321461057657806395d89b41146105b7578063a22cb465146105e2576101d8565b8063715018a6146104c257806373d3e6d7146104d957806388ea56ce1461050457806389ae5f4714610520576101d8565b806335280abb1161017a5780636352211e116101495780636352211e146103e25780636c877b051461041f5780636f6333401461044857806370a0823114610485576101d8565b806335280abb1461032857806342842e0e1461036557806355f804b31461038e5780635c975abb146103b7576101d8565b8063095ea7b3116101b6578063095ea7b31461028257806310a75938146102ab578063145773c9146102d657806323b872dd146102ff576101d8565b806301ffc9a7146101dd57806306fdde031461021a578063081812fc14610245575b600080fd5b3480156101e957600080fd5b5061020460048036038101906101ff91906135ea565b610791565b6040516102119190613cce565b60405180910390f35b34801561022657600080fd5b5061022f610873565b60405161023c9190613ce9565b60405180910390f35b34801561025157600080fd5b5061026c600480360381019061026791906136e9565b610905565b6040516102799190613c67565b60405180910390f35b34801561028e57600080fd5b506102a960048036038101906102a49190613517565b61098a565b005b3480156102b757600080fd5b506102c0610aa2565b6040516102cd919061408b565b60405180910390f35b3480156102e257600080fd5b506102fd60048036038101906102f89190613712565b610ab3565b005b34801561030b57600080fd5b5061032660048036038101906103219190613411565b610e2e565b005b34801561033457600080fd5b5061034f600480360381019061034a91906136e9565b610e8e565b60405161035c919061408b565b60405180910390f35b34801561037157600080fd5b5061038c60048036038101906103879190613411565b610eb2565b005b34801561039a57600080fd5b506103b560048036038101906103b0919061363c565b610ed2565b005b3480156103c357600080fd5b506103cc61103c565b6040516103d99190613cce565b60405180910390f35b3480156103ee57600080fd5b50610409600480360381019061040491906136e9565b611053565b6040516104169190613c67565b60405180910390f35b34801561042b57600080fd5b50610446600480360381019061044191906136e9565b611105565b005b34801561045457600080fd5b5061046f600480360381019061046a919061367d565b6111d0565b60405161047c9190613cce565b60405180910390f35b34801561049157600080fd5b506104ac60048036038101906104a791906133ac565b611229565b6040516104b9919061408b565b60405180910390f35b3480156104ce57600080fd5b506104d76112e1565b005b3480156104e557600080fd5b506104ee61141e565b6040516104fb919061408b565b60405180910390f35b61051e60048036038101906105199190613712565b611424565b005b34801561052c57600080fd5b506105356118b3565b604051610542919061408b565b60405180910390f35b34801561055757600080fd5b506105606118b9565b60405161056d9190613c67565b60405180910390f35b34801561058257600080fd5b5061059d600480360381019061059891906136e9565b6118e3565b6040516105ae9594939291906140a6565b60405180910390f35b3480156105c357600080fd5b506105cc6119ce565b6040516105d99190613ce9565b60405180910390f35b3480156105ee57600080fd5b50610609600480360381019061060491906134db565b611a60565b005b34801561061757600080fd5b50610632600480360381019061062d9190613712565b611be1565b005b34801561064057600080fd5b5061065b60048036038101906106569190613460565b611e1a565b005b34801561066957600080fd5b50610684600480360381019061067f91906136e9565b611e7c565b6040516106919190613ce9565b60405180910390f35b3480156106a657600080fd5b506106c160048036038101906106bc9190613553565b611f23565b005b3480156106cf57600080fd5b506106ea60048036038101906106e591906133d5565b612117565b6040516106f79190613cce565b60405180910390f35b34801561070c57600080fd5b50610727600480360381019061072291906133ac565b6121ab565b005b34801561073557600080fd5b5061073e612357565b60405161074b919061408b565b60405180910390f35b34801561076057600080fd5b5061077b6004803603810190610776919061363c565b61235d565b6040516107889190613cce565b60405180910390f35b60007f80ac58cd000000000000000000000000000000000000000000000000000000007bffffffffffffffffffffffffffffffffffffffffffffffffffffffff1916827bffffffffffffffffffffffffffffffffffffffffffffffffffffffff1916148061085c57507f5b5e139f000000000000000000000000000000000000000000000000000000007bffffffffffffffffffffffffffffffffffffffffffffffffffffffff1916827bffffffffffffffffffffffffffffffffffffffffffffffffffffffff1916145b8061086c575061086b826125a1565b5b9050919050565b606060008054610882906143ff565b80601f01602080910402602001604051908101604052809291908181526020018280546108ae906143ff565b80156108fb5780601f106108d0576101008083540402835291602001916108fb565b820191906000526020600020905b8154815290600101906020018083116108de57829003601f168201915b5050505050905090565b60006109108261260b565b61094f576040517f08c379a000000000000000000000000000000000000000000000000000000000815260040161094690613f8b565b60405180910390fd5b6004600083815260200190815260200160002060009054906101000a900473ffffffffffffffffffffffffffffffffffffffff169050919050565b600061099582611053565b90508073ffffffffffffffffffffffffffffffffffffffff168373ffffffffffffffffffffffffffffffffffffffff161415610a06576040517f08c379a00000000000000000000000000000000000000000000000000000000081526004016109fd9061400b565b60405180910390fd5b8073ffffffffffffffffffffffffffffffffffffffff16610a25612677565b73ffffffffffffffffffffffffffffffffffffffff161480610a545750610a5381610a4e612677565b612117565b5b610a93576040517f08c379a0000000000000000000000000000000000000000000000000000000008152600401610a8a90613eeb565b60405180910390fd5b610a9d838361267f565b505050565b61010080610ab091906142a9565b81565b600a600084815260200190815260200160002060040160009054906101000a900460ff16610b16576040517f08c379a0000000000000000000000000000000000000000000000000000000008152600401610b0d90613ecb565b60405180910390fd5b6000600a60008581526020019081526020016000206040518060a001604052908160008201548152602001600182018054610b50906143ff565b80601f0160208091040260200160405190810160405280929190818152602001828054610b7c906143ff565b8015610bc95780601f10610b9e57610100808354040283529160200191610bc9565b820191906000526020600020905b815481529060010190602001808311610bac57829003601f168201915b505050505081526020016002820160009054906101000a900473ffffffffffffffffffffffffffffffffffffffff1673ffffffffffffffffffffffffffffffffffffffff1673ffffffffffffffffffffffffffffffffffffffff168152602001600382015481526020016004820160009054906101000a900460ff16151515158152505090503373ffffffffffffffffffffffffffffffffffffffff16816040015173ffffffffffffffffffffffffffffffffffffffff1614610cc1576040517f08c379a0000000000000000000000000000000000000000000000000000000008152600401610cb890613dcb565b60405180910390fd5b610cca8361235d565b610d09576040517f08c379a0000000000000000000000000000000000000000000000000000000008152600401610d0090613eab565b60405180910390fd5b610d178382602001516111d0565b1580610d27575080606001518214155b610d66576040517f08c379a0000000000000000000000000000000000000000000000000000000008152600401610d5d90613deb565b60405180910390fd5b8281602001819052508181606001818152505080600a6000868152602001908152602001600020600082015181600001556020820151816001019080519060200190610db392919061308a565b5060408201518160020160006101000a81548173ffffffffffffffffffffffffffffffffffffffff021916908373ffffffffffffffffffffffffffffffffffffffff1602179055506060820151816003015560808201518160040160006101000a81548160ff02191690831515021790555090505050505050565b610e3f610e39612677565b82612738565b610e7e576040517f08c379a0000000000000000000000000000000000000000000000000000000008152600401610e759061402b565b60405180910390fd5b610e89838383612816565b505050565b60088181548110610e9e57600080fd5b906000526020600020016000915090505481565b610ecd83838360405180602001604052806000815250611e1a565b505050565b610eda612677565b73ffffffffffffffffffffffffffffffffffffffff16610ef86118b9565b73ffffffffffffffffffffffffffffffffffffffff1614610f4e576040517f08c379a0000000000000000000000000000000000000000000000000000000008152600401610f4590613fab565b60405180910390fd5b610fe2600b8054610f5e906143ff565b80601f0160208091040260200160405190810160405280929190818152602001828054610f8a906143ff565b8015610fd75780601f10610fac57610100808354040283529160200191610fd7565b820191906000526020600020905b815481529060010190602001808311610fba57829003601f168201915b5050505050826111d0565b15611022576040517f08c379a00000000000000000000000000000000000000000000000000000000081526004016110199061404b565b60405180910390fd5b80600b908051906020019061103892919061308a565b5050565b6000600660149054906101000a900460ff16905090565b6000806002600084815260200190815260200160002060009054906101000a900473ffffffffffffffffffffffffffffffffffffffff169050600073ffffffffffffffffffffffffffffffffffffffff168173ffffffffffffffffffffffffffffffffffffffff1614156110fc576040517f08c379a00000000000000000000000000000000000000000000000000000000081526004016110f390613f4b565b60405180910390fd5b80915050919050565b61110d612677565b73ffffffffffffffffffffffffffffffffffffffff1661112b6118b9565b73ffffffffffffffffffffffffffffffffffffffff1614611181576040517f08c379a000000000000000000000000000000000000000000000000000000000815260040161117890613fab565b60405180910390fd5b8060095414156111c6576040517f08c379a00000000000000000000000000000000000000000000000000000000081526004016111bd90613d2b565b60405180910390fd5b8060098190555050565b6000816040516020016111e39190613c2c565b604051602081830303815290604052805190602001208360405160200161120a9190613c2c565b6040516020818303038152906040528051906020012014905092915050565b60008073ffffffffffffffffffffffffffffffffffffffff168273ffffffffffffffffffffffffffffffffffffffff16141561129a576040517f08c379a000000000000000000000000000000000000000000000000000000000815260040161129190613f2b565b60405180910390fd5b600360008373ffffffffffffffffffffffffffffffffffffffff1673ffffffffffffffffffffffffffffffffffffffff168152602001908152602001600020549050919050565b6112e9612677565b73ffffffffffffffffffffffffffffffffffffffff166113076118b9565b73ffffffffffffffffffffffffffffffffffffffff161461135d576040517f08c379a000000000000000000000000000000000000000000000000000000000815260040161135490613fab565b60405180910390fd5b600073ffffffffffffffffffffffffffffffffffffffff16600660009054906101000a900473ffffffffffffffffffffffffffffffffffffffff1673ffffffffffffffffffffffffffffffffffffffff167f8be0079c531659141344cd1fd0a4f28419497f9722a3daafe3b4186f6b6457e060405160405180910390a36000600660006101000a81548173ffffffffffffffffffffffffffffffffffffffff021916908373ffffffffffffffffffffffffffffffffffffffff160217905550565b60075481565b600a600084815260200190815260200160002060040160009054906101000a900460ff16611487576040517f08c379a000000000000000000000000000000000000000000000000000000000815260040161147e90613ecb565b60405180910390fd5b6000600a60008581526020019081526020016000206040518060a0016040529081600082015481526020016001820180546114c1906143ff565b80601f01602080910402602001604051908101604052809291908181526020018280546114ed906143ff565b801561153a5780601f1061150f5761010080835404028352916020019161153a565b820191906000526020600020905b81548152906001019060200180831161151d57829003601f168201915b505050505081526020016002820160009054906101000a900473ffffffffffffffffffffffffffffffffffffffff1673ffffffffffffffffffffffffffffffffffffffff1673ffffffffffffffffffffffffffffffffffffffff168152602001600382015481526020016004820160009054906101000a900460ff16151515158152505090503373ffffffffffffffffffffffffffffffffffffffff16816040015173ffffffffffffffffffffffffffffffffffffffff161415611633576040517f08c379a000000000000000000000000000000000000000000000000000000000815260040161162a90613d0b565b60405180910390fd5b61163c8361235d565b61167b576040517f08c379a000000000000000000000000000000000000000000000000000000000815260040161167290613eab565b60405180910390fd5b80606001513410156116c2576040517f08c379a00000000000000000000000000000000000000000000000000000000081526004016116b990613f0b565b60405180910390fd5b60006009541115611735576116d56118b9565b73ffffffffffffffffffffffffffffffffffffffff166108fc6064600954346116fe91906142a9565b6117089190614278565b9081150290604051600060405180830381858888f19350505050158015611733573d6000803e3d6000fd5b505b806040015173ffffffffffffffffffffffffffffffffffffffff166108fc60646009543461176391906142a9565b61176d9190614278565b346117789190614303565b9081150290604051600060405180830381858888f193505050501580156117a3573d6000803e3d6000fd5b506117b381604001513386612816565b8281602001819052508181606001818152505033816040019073ffffffffffffffffffffffffffffffffffffffff16908173ffffffffffffffffffffffffffffffffffffffff168152505080600a600086815260200190815260200160002060008201518160000155602082015181600101908051906020019061183892919061308a565b5060408201518160020160006101000a81548173ffffffffffffffffffffffffffffffffffffffff021916908373ffffffffffffffffffffffffffffffffffffffff1602179055506060820151816003015560808201518160040160006101000a81548160ff02191690831515021790555090505050505050565b61010081565b6000600660009054906101000a900473ffffffffffffffffffffffffffffffffffffffff16905090565b600a60205280600052604060002060009150905080600001549080600101805461190c906143ff565b80601f0160208091040260200160405190810160405280929190818152602001828054611938906143ff565b80156119855780601f1061195a57610100808354040283529160200191611985565b820191906000526020600020905b81548152906001019060200180831161196857829003601f168201915b5050505050908060020160009054906101000a900473ffffffffffffffffffffffffffffffffffffffff16908060030154908060040160009054906101000a900460ff16905085565b6060600180546119dd906143ff565b80601f0160208091040260200160405190810160405280929190818152602001828054611a09906143ff565b8015611a565780601f10611a2b57610100808354040283529160200191611a56565b820191906000526020600020905b815481529060010190602001808311611a3957829003601f168201915b5050505050905090565b611a68612677565b73ffffffffffffffffffffffffffffffffffffffff168273ffffffffffffffffffffffffffffffffffffffff161415611ad6576040517f08c379a0000000000000000000000000000000000000000000000000000000008152600401611acd90613e2b565b60405180910390fd5b8060056000611ae3612677565b73ffffffffffffffffffffffffffffffffffffffff1673ffffffffffffffffffffffffffffffffffffffff16815260200190815260200160002060008473ffffffffffffffffffffffffffffffffffffffff1673ffffffffffffffffffffffffffffffffffffffff16815260200190815260200160002060006101000a81548160ff0219169083151502179055508173ffffffffffffffffffffffffffffffffffffffff16611b90612677565b73ffffffffffffffffffffffffffffffffffffffff167f17307eab39ab6107e8899845ad3d59bd9653f200f220920489ca2b5937696c3183604051611bd59190613cce565b60405180910390a35050565b600a600084815260200190815260200160002060040160009054906101000a900460ff1615611c45576040517f08c379a0000000000000000000000000000000000000000000000000000000008152600401611c3c9061406b565b60405180910390fd5b61010080611c5391906142a9565b8310611c94576040517f08c379a0000000000000000000000000000000000000000000000000000000008152600401611c8b90613e8b565b60405180910390fd5b611c9d8261235d565b611cdc576040517f08c379a0000000000000000000000000000000000000000000000000000000008152600401611cd390613eab565b60405180910390fd5b60076000815480929190611cef90614462565b9190505550611cfe3384612a72565b60088390806001815401808255809150506001900390600052602060002001600090919091909150556040518060a001604052808481526020018381526020013373ffffffffffffffffffffffffffffffffffffffff16815260200182815260200160011515815250600a6000858152602001908152602001600020600082015181600001556020820151816001019080519060200190611da092919061308a565b5060408201518160020160006101000a81548173ffffffffffffffffffffffffffffffffffffffff021916908373ffffffffffffffffffffffffffffffffffffffff1602179055506060820151816003015560808201518160040160006101000a81548160ff021916908315150217905550905050505050565b611e2b611e25612677565b83612738565b611e6a576040517f08c379a0000000000000000000000000000000000000000000000000000000008152600401611e619061402b565b60405180910390fd5b611e7684848484612c40565b50505050565b6060611e878261260b565b611ec6576040517f08c379a0000000000000000000000000000000000000000000000000000000008152600401611ebd90613feb565b60405180910390fd5b6000611ed0612c9c565b90506000815111611ef05760405180602001604052806000815250611f1b565b80611efa84612d2e565b604051602001611f0b929190613c43565b6040516020818303038152906040525b915050919050565b611f2b612677565b73ffffffffffffffffffffffffffffffffffffffff16611f496118b9565b73ffffffffffffffffffffffffffffffffffffffff1614611f9f576040517f08c379a0000000000000000000000000000000000000000000000000000000008152600401611f9690613fab565b60405180910390fd5b8151835114611fe3576040517f08c379a0000000000000000000000000000000000000000000000000000000008152600401611fda90613d8b565b60405180910390fd5b8051835114612027576040517f08c379a000000000000000000000000000000000000000000000000000000000815260040161201e90613e4b565b60405180910390fd5b60005b8351811015612111576120fe84828151811061206f577f4e487b7100000000000000000000000000000000000000000000000000000000600052603260045260246000fd5b60200260200101518483815181106120b0577f4e487b7100000000000000000000000000000000000000000000000000000000600052603260045260246000fd5b60200260200101518484815181106120f1577f4e487b7100000000000000000000000000000000000000000000000000000000600052603260045260246000fd5b6020026020010151611be1565b808061210990614462565b91505061202a565b50505050565b6000600560008473ffffffffffffffffffffffffffffffffffffffff1673ffffffffffffffffffffffffffffffffffffffff16815260200190815260200160002060008373ffffffffffffffffffffffffffffffffffffffff1673ffffffffffffffffffffffffffffffffffffffff16815260200190815260200160002060009054906101000a900460ff16905092915050565b6121b3612677565b73ffffffffffffffffffffffffffffffffffffffff166121d16118b9565b73ffffffffffffffffffffffffffffffffffffffff1614612227576040517f08c379a000000000000000000000000000000000000000000000000000000000815260040161221e90613fab565b60405180910390fd5b600073ffffffffffffffffffffffffffffffffffffffff168173ffffffffffffffffffffffffffffffffffffffff161415612297576040517f08c379a000000000000000000000000000000000000000000000000000000000815260040161228e90613d6b565b60405180910390fd5b8073ffffffffffffffffffffffffffffffffffffffff16600660009054906101000a900473ffffffffffffffffffffffffffffffffffffffff1673ffffffffffffffffffffffffffffffffffffffff167f8be0079c531659141344cd1fd0a4f28419497f9722a3daafe3b4186f6b6457e060405160405180910390a380600660006101000a81548173ffffffffffffffffffffffffffffffffffffffff021916908373ffffffffffffffffffffffffffffffffffffffff16021790555050565b60095481565b600080829050600781511461237657600091505061259c565b602360f81b816000815181106123b5577f4e487b7100000000000000000000000000000000000000000000000000000000600052603260045260246000fd5b602001015160f81c60f81b7effffffffffffffffffffffffffffffffffffffffffffffffffffffffffffff1916146123f157600091505061259c565b6000600190505b815181101561259557600082828151811061243c577f4e487b7100000000000000000000000000000000000000000000000000000000600052603260045260246000fd5b602001015160f81c60f81b9050603060f81b817effffffffffffffffffffffffffffffffffffffffffffffffffffffffffffff1916101580156124a55750603960f81b817effffffffffffffffffffffffffffffffffffffffffffffffffffffffffffff191611155b15801561250b5750604160f81b817effffffffffffffffffffffffffffffffffffffffffffffffffffffffffffff1916101580156125095750604660f81b817effffffffffffffffffffffffffffffffffffffffffffffffffffffffffffff191611155b155b80156125705750606160f81b817effffffffffffffffffffffffffffffffffffffffffffffffffffffffffffff19161015801561256e5750606660f81b817effffffffffffffffffffffffffffffffffffffffffffffffffffffffffffff191611155b155b15612581576000935050505061259c565b50808061258d90614462565b9150506123f8565b5060019150505b919050565b60007f01ffc9a7000000000000000000000000000000000000000000000000000000007bffffffffffffffffffffffffffffffffffffffffffffffffffffffff1916827bffffffffffffffffffffffffffffffffffffffffffffffffffffffff1916149050919050565b60008073ffffffffffffffffffffffffffffffffffffffff166002600084815260200190815260200160002060009054906101000a900473ffffffffffffffffffffffffffffffffffffffff1673ffffffffffffffffffffffffffffffffffffffff1614159050919050565b600033905090565b816004600083815260200190815260200160002060006101000a81548173ffffffffffffffffffffffffffffffffffffffff021916908373ffffffffffffffffffffffffffffffffffffffff160217905550808273ffffffffffffffffffffffffffffffffffffffff166126f283611053565b73ffffffffffffffffffffffffffffffffffffffff167f8c5be1e5ebec7d5bd14f71427d1e84f3dd0314c0f7b2291e5b200ac8c7c3b92560405160405180910390a45050565b60006127438261260b565b612782576040517f08c379a000000000000000000000000000000000000000000000000000000000815260040161277990613e6b565b60405180910390fd5b600061278d83611053565b90508073ffffffffffffffffffffffffffffffffffffffff168473ffffffffffffffffffffffffffffffffffffffff1614806127fc57508373ffffffffffffffffffffffffffffffffffffffff166127e484610905565b73ffffffffffffffffffffffffffffffffffffffff16145b8061280d575061280c8185612117565b5b91505092915050565b8273ffffffffffffffffffffffffffffffffffffffff1661283682611053565b73ffffffffffffffffffffffffffffffffffffffff161461288c576040517f08c379a000000000000000000000000000000000000000000000000000000000815260040161288390613fcb565b60405180910390fd5b600073ffffffffffffffffffffffffffffffffffffffff168273ffffffffffffffffffffffffffffffffffffffff1614156128fc576040517f08c379a00000000000000000000000000000000000000000000000000000000081526004016128f390613e0b565b60405180910390fd5b612907838383612edb565b61291260008261267f565b6001600360008573ffffffffffffffffffffffffffffffffffffffff1673ffffffffffffffffffffffffffffffffffffffff16815260200190815260200160002060008282546129629190614303565b925050819055506001600360008473ffffffffffffffffffffffffffffffffffffffff1673ffffffffffffffffffffffffffffffffffffffff16815260200190815260200160002060008282546129b99190614222565b92505081905550816002600083815260200190815260200160002060006101000a81548173ffffffffffffffffffffffffffffffffffffffff021916908373ffffffffffffffffffffffffffffffffffffffff160217905550808273ffffffffffffffffffffffffffffffffffffffff168473ffffffffffffffffffffffffffffffffffffffff167fddf252ad1be2c89b69c2b068fc378daa952ba7f163c4a11628f55a4df523b3ef60405160405180910390a4505050565b600073ffffffffffffffffffffffffffffffffffffffff168273ffffffffffffffffffffffffffffffffffffffff161415612ae2576040517f08c379a0000000000000000000000000000000000000000000000000000000008152600401612ad990613f6b565b60405180910390fd5b612aeb8161260b565b15612b2b576040517f08c379a0000000000000000000000000000000000000000000000000000000008152600401612b2290613dab565b60405180910390fd5b612b3760008383612edb565b6001600360008473ffffffffffffffffffffffffffffffffffffffff1673ffffffffffffffffffffffffffffffffffffffff1681526020019081526020016000206000828254612b879190614222565b92505081905550816002600083815260200190815260200160002060006101000a81548173ffffffffffffffffffffffffffffffffffffffff021916908373ffffffffffffffffffffffffffffffffffffffff160217905550808273ffffffffffffffffffffffffffffffffffffffff16600073ffffffffffffffffffffffffffffffffffffffff167fddf252ad1be2c89b69c2b068fc378daa952ba7f163c4a11628f55a4df523b3ef60405160405180910390a45050565b612c4b848484612816565b612c5784848484612ee0565b612c96576040517f08c379a0000000000000000000000000000000000000000000000000000000008152600401612c8d90613d4b565b60405180910390fd5b50505050565b6060600b8054612cab906143ff565b80601f0160208091040260200160405190810160405280929190818152602001828054612cd7906143ff565b8015612d245780601f10612cf957610100808354040283529160200191612d24565b820191906000526020600020905b815481529060010190602001808311612d0757829003601f168201915b5050505050905090565b60606000821415612d76576040518060400160405280600181526020017f30000000000000000000000000000000000000000000000000000000000000008152509050612ed6565b600082905060005b60008214612da8578080612d9190614462565b915050600a82612da19190614278565b9150612d7e565b60008167ffffffffffffffff811115612dea577f4e487b7100000000000000000000000000000000000000000000000000000000600052604160045260246000fd5b6040519080825280601f01601f191660200182016040528015612e1c5781602001600182028036833780820191505090505b5090505b60008514612ecf57600182612e359190614303565b9150600a85612e4491906144ab565b6030612e509190614222565b60f81b818381518110612e8c577f4e487b7100000000000000000000000000000000000000000000000000000000600052603260045260246000fd5b60200101907effffffffffffffffffffffffffffffffffffffffffffffffffffffffffffff1916908160001a905350600a85612ec89190614278565b9450612e20565b8093505050505b919050565b505050565b6000612f018473ffffffffffffffffffffffffffffffffffffffff16613077565b1561306a578373ffffffffffffffffffffffffffffffffffffffff1663150b7a02612f2a612677565b8786866040518563ffffffff1660e01b8152600401612f4c9493929190613c82565b602060405180830381600087803b158015612f6657600080fd5b505af1925050508015612f9757506040513d601f19601f82011682018060405250810190612f949190613613565b60015b61301a573d8060008114612fc7576040519150601f19603f3d011682016040523d82523d6000602084013e612fcc565b606091505b50600081511415613012576040517f08c379a000000000000000000000000000000000000000000000000000000000815260040161300990613d4b565b60405180910390fd5b805181602001fd5b63150b7a0260e01b7bffffffffffffffffffffffffffffffffffffffffffffffffffffffff1916817bffffffffffffffffffffffffffffffffffffffffffffffffffffffff19161491505061306f565b600190505b949350505050565b600080823b905060008111915050919050565b828054613096906143ff565b90600052602060002090601f0160209004810192826130b857600085556130ff565b82601f106130d157805160ff19168380011785556130ff565b828001600101855582156130ff579182015b828111156130fe5782518255916020019190600101906130e3565b5b50905061310c9190613110565b5090565b5b80821115613129576000816000905550600101613111565b5090565b600061314061313b84614125565b614100565b9050808382526020820190508285602086028201111561315f57600080fd5b60005b858110156131a957813567ffffffffffffffff81111561318157600080fd5b80860161318e898261336d565b85526020850194506020840193505050600181019050613162565b5050509392505050565b60006131c66131c184614151565b614100565b905080838252602082019050828560208602820111156131e557600080fd5b60005b8581101561321557816131fb8882613397565b8452602084019350602083019250506001810190506131e8565b5050509392505050565b600061323261322d8461417d565b614100565b90508281526020810184848401111561324a57600080fd5b6132558482856143bd565b509392505050565b600061327061326b846141ae565b614100565b90508281526020810184848401111561328857600080fd5b6132938482856143bd565b509392505050565b6000813590506132aa81614e27565b92915050565b600082601f8301126132c157600080fd5b81356132d184826020860161312d565b91505092915050565b600082601f8301126132eb57600080fd5b81356132fb8482602086016131b3565b91505092915050565b60008135905061331381614e3e565b92915050565b60008135905061332881614e55565b92915050565b60008151905061333d81614e55565b92915050565b600082601f83011261335457600080fd5b813561336484826020860161321f565b91505092915050565b600082601f83011261337e57600080fd5b813561338e84826020860161325d565b91505092915050565b6000813590506133a681614e6c565b92915050565b6000602082840312156133be57600080fd5b60006133cc8482850161329b565b91505092915050565b600080604083850312156133e857600080fd5b60006133f68582860161329b565b92505060206134078582860161329b565b9150509250929050565b60008060006060848603121561342657600080fd5b60006134348682870161329b565b93505060206134458682870161329b565b925050604061345686828701613397565b9150509250925092565b6000806000806080858703121561347657600080fd5b60006134848782880161329b565b94505060206134958782880161329b565b93505060406134a687828801613397565b925050606085013567ffffffffffffffff8111156134c357600080fd5b6134cf87828801613343565b91505092959194509250565b600080604083850312156134ee57600080fd5b60006134fc8582860161329b565b925050602061350d85828601613304565b9150509250929050565b6000806040838503121561352a57600080fd5b60006135388582860161329b565b925050602061354985828601613397565b9150509250929050565b60008060006060848603121561356857600080fd5b600084013567ffffffffffffffff81111561358257600080fd5b61358e868287016132da565b935050602084013567ffffffffffffffff8111156135ab57600080fd5b6135b7868287016132b0565b925050604084013567ffffffffffffffff8111156135d457600080fd5b6135e0868287016132da565b9150509250925092565b6000602082840312156135fc57600080fd5b600061360a84828501613319565b91505092915050565b60006020828403121561362557600080fd5b60006136338482850161332e565b91505092915050565b60006020828403121561364e57600080fd5b600082013567ffffffffffffffff81111561366857600080fd5b6136748482850161336d565b91505092915050565b6000806040838503121561369057600080fd5b600083013567ffffffffffffffff8111156136aa57600080fd5b6136b68582860161336d565b925050602083013567ffffffffffffffff8111156136d357600080fd5b6136df8582860161336d565b9150509250929050565b6000602082840312156136fb57600080fd5b600061370984828501613397565b91505092915050565b60008060006060848603121561372757600080fd5b600061373586828701613397565b935050602084013567ffffffffffffffff81111561375257600080fd5b61375e8682870161336d565b925050604061376f86828701613397565b9150509250925092565b61378281614349565b82525050565b61379181614337565b82525050565b6137a08161435b565b82525050565b60006137b1826141df565b6137bb81856141f5565b93506137cb8185602086016143cc565b6137d481614598565b840191505092915050565b60006137ea826141ea565b6137f48185614206565b93506138048185602086016143cc565b61380d81614598565b840191505092915050565b6000613823826141ea565b61382d8185614217565b935061383d8185602086016143cc565b80840191505092915050565b6000613856602883614206565b9150613861826145a9565b604082019050919050565b6000613879603783614206565b9150613884826145f8565b604082019050919050565b600061389c603283614206565b91506138a782614647565b604082019050919050565b60006138bf602683614206565b91506138ca82614696565b604082019050919050565b60006138e2604483614206565b91506138ed826146e5565b606082019050919050565b6000613905601c83614206565b91506139108261475a565b602082019050919050565b6000613928602483614206565b915061393382614783565b604082019050919050565b600061394b603983614206565b9150613956826147d2565b604082019050919050565b600061396e602483614206565b915061397982614821565b604082019050919050565b6000613991601983614206565b915061399c82614870565b602082019050919050565b60006139b4604883614206565b91506139bf82614899565b606082019050919050565b60006139d7602c83614206565b91506139e28261490e565b604082019050919050565b60006139fa604683614206565b9150613a058261495d565b606082019050919050565b6000613a1d602383614206565b9150613a28826149d2565b604082019050919050565b6000613a40604883614206565b9150613a4b82614a21565b606082019050919050565b6000613a63603883614206565b9150613a6e82614a96565b604082019050919050565b6000613a86602183614206565b9150613a9182614ae5565b604082019050919050565b6000613aa9602a83614206565b9150613ab482614b34565b604082019050919050565b6000613acc602983614206565b9150613ad782614b83565b604082019050919050565b6000613aef602083614206565b9150613afa82614bd2565b602082019050919050565b6000613b12602c83614206565b9150613b1d82614bfb565b604082019050919050565b6000613b35602083614206565b9150613b4082614c4a565b602082019050919050565b6000613b58602983614206565b9150613b6382614c73565b604082019050919050565b6000613b7b602f83614206565b9150613b8682614cc2565b604082019050919050565b6000613b9e602183614206565b9150613ba982614d11565b604082019050919050565b6000613bc1603183614206565b9150613bcc82614d60565b604082019050919050565b6000613be4603083614206565b9150613bef82614daf565b604082019050919050565b6000613c07601e83614206565b9150613c1282614dfe565b602082019050919050565b613c26816143b3565b82525050565b6000613c388284613818565b915081905092915050565b6000613c4f8285613818565b9150613c5b8284613818565b91508190509392505050565b6000602082019050613c7c6000830184613788565b92915050565b6000608082019050613c976000830187613788565b613ca46020830186613788565b613cb16040830185613c1d565b8181036060830152613cc381846137a6565b905095945050505050565b6000602082019050613ce36000830184613797565b92915050565b60006020820190508181036000830152613d0381846137df565b905092915050565b60006020820190508181036000830152613d2481613849565b9050919050565b60006020820190508181036000830152613d448161386c565b9050919050565b60006020820190508181036000830152613d648161388f565b9050919050565b60006020820190508181036000830152613d84816138b2565b9050919050565b60006020820190508181036000830152613da4816138d5565b9050919050565b60006020820190508181036000830152613dc4816138f8565b9050919050565b60006020820190508181036000830152613de48161391b565b9050919050565b60006020820190508181036000830152613e048161393e565b9050919050565b60006020820190508181036000830152613e2481613961565b9050919050565b60006020820190508181036000830152613e4481613984565b9050919050565b60006020820190508181036000830152613e64816139a7565b9050919050565b60006020820190508181036000830152613e84816139ca565b9050919050565b60006020820190508181036000830152613ea4816139ed565b9050919050565b60006020820190508181036000830152613ec481613a10565b9050919050565b60006020820190508181036000830152613ee481613a33565b9050919050565b60006020820190508181036000830152613f0481613a56565b9050919050565b60006020820190508181036000830152613f2481613a79565b9050919050565b60006020820190508181036000830152613f4481613a9c565b9050919050565b60006020820190508181036000830152613f6481613abf565b9050919050565b60006020820190508181036000830152613f8481613ae2565b9050919050565b60006020820190508181036000830152613fa481613b05565b9050919050565b60006020820190508181036000830152613fc481613b28565b9050919050565b60006020820190508181036000830152613fe481613b4b565b9050919050565b6000602082019050818103600083015261400481613b6e565b9050919050565b6000602082019050818103600083015261402481613b91565b9050919050565b6000602082019050818103600083015261404481613bb4565b9050919050565b6000602082019050818103600083015261406481613bd7565b9050919050565b6000602082019050818103600083015261408481613bfa565b9050919050565b60006020820190506140a06000830184613c1d565b92915050565b600060a0820190506140bb6000830188613c1d565b81810360208301526140cd81876137df565b90506140dc6040830186613779565b6140e96060830185613c1d565b6140f66080830184613797565b9695505050505050565b600061410a61411b565b90506141168282614431565b919050565b6000604051905090565b600067ffffffffffffffff8211156141405761413f614569565b5b602082029050602081019050919050565b600067ffffffffffffffff82111561416c5761416b614569565b5b602082029050602081019050919050565b600067ffffffffffffffff82111561419857614197614569565b5b6141a182614598565b9050602081019050919050565b600067ffffffffffffffff8211156141c9576141c8614569565b5b6141d282614598565b9050602081019050919050565b600081519050919050565b600081519050919050565b600082825260208201905092915050565b600082825260208201905092915050565b600081905092915050565b600061422d826143b3565b9150614238836143b3565b9250827fffffffffffffffffffffffffffffffffffffffffffffffffffffffffffffffff0382111561426d5761426c6144dc565b5b828201905092915050565b6000614283826143b3565b915061428e836143b3565b92508261429e5761429d61450b565b5b828204905092915050565b60006142b4826143b3565b91506142bf836143b3565b9250817fffffffffffffffffffffffffffffffffffffffffffffffffffffffffffffffff04831182151516156142f8576142f76144dc565b5b828202905092915050565b600061430e826143b3565b9150614319836143b3565b92508282101561432c5761432b6144dc565b5b828203905092915050565b600061434282614393565b9050919050565b600061435482614393565b9050919050565b60008115159050919050565b60007fffffffff0000000000000000000000000000000000000000000000000000000082169050919050565b600073ffffffffffffffffffffffffffffffffffffffff82169050919050565b6000819050919050565b82818337600083830152505050565b60005b838110156143ea5780820151818401526020810190506143cf565b838111156143f9576000848401525b50505050565b6000600282049050600182168061441757607f821691505b6020821081141561442b5761442a61453a565b5b50919050565b61443a82614598565b810181811067ffffffffffffffff8211171561445957614458614569565b5b80604052505050565b600061446d826143b3565b91507fffffffffffffffffffffffffffffffffffffffffffffffffffffffffffffffff8214156144a05761449f6144dc565b5b600182019050919050565b60006144b6826143b3565b91506144c1836143b3565b9250826144d1576144d061450b565b5b828206905092915050565b7f4e487b7100000000000000000000000000000000000000000000000000000000600052601160045260246000fd5b7f4e487b7100000000000000000000000000000000000000000000000000000000600052601260045260246000fd5b7f4e487b7100000000000000000000000000000000000000000000000000000000600052602260045260246000fd5b7f4e487b7100000000000000000000000000000000000000000000000000000000600052604160045260246000fd5b6000601f19601f8301169050919050565b7f596f7520616c72656164792061726520746865206f776e6572206f662074686960008201527f7320706978656c2e000000000000000000000000000000000000000000000000602082015250565b7f546865206e6577207472616e73616374696f6e2066656520697320746865207360008201527f616d65206173207468652063757272656e74206f6e652e000000000000000000602082015250565b7f4552433732313a207472616e7366657220746f206e6f6e20455243373231526560008201527f63656976657220696d706c656d656e7465720000000000000000000000000000602082015250565b7f4f776e61626c653a206e6577206f776e657220697320746865207a65726f206160008201527f6464726573730000000000000000000000000000000000000000000000000000602082015250565b7f54686520636f6c6f7273206172726179206c656e67746820646f6573206e6f7460008201527f206d617463682074686520636f6f7264696e61746573206172726179206c656e60208201527f6774682e00000000000000000000000000000000000000000000000000000000604082015250565b7f4552433732313a20746f6b656e20616c7265616479206d696e74656400000000600082015250565b7f596f7520617265206e6f7420746865206f776e6572206f66207468697320706960008201527f78656c2e00000000000000000000000000000000000000000000000000000000602082015250565b7f546865206e657720636f6c6f7220616e6420707269636520617265207468652060008201527f73616d65206173207468652063757272656e74206f6e65732e00000000000000602082015250565b7f4552433732313a207472616e7366657220746f20746865207a65726f2061646460008201527f7265737300000000000000000000000000000000000000000000000000000000602082015250565b7f4552433732313a20617070726f766520746f2063616c6c657200000000000000600082015250565b7f5468652077656920707269636573206172726179206c656e67746820646f657360008201527f206e6f74206d617463682074686520636f6f7264696e6174657320617272617960208201527f206c656e6774682e000000000000000000000000000000000000000000000000604082015250565b7f4552433732313a206f70657261746f7220717565727920666f72206e6f6e657860008201527f697374656e7420746f6b656e0000000000000000000000000000000000000000602082015250565b7f436f6f7264696e61746520666f722074686520706978656c206973206f75742060008201527f6f66206c696d6974732e2030203c3d20636f6f7264696e617465203c2032353660208201527f202a203235360000000000000000000000000000000000000000000000000000604082015250565b7f496e76616c69642048455820636f6c6f7220636f64652e20456a3a202346463060008201527f3030300000000000000000000000000000000000000000000000000000000000602082015250565b7f496e76616c696420636f6f7264696e617465732e204f7574206f66206c696d6960008201527f7473206f722074686520706978656c20686173206e6f7420796574206265656e60208201527f206d696e7465642e000000000000000000000000000000000000000000000000604082015250565b7f4552433732313a20617070726f76652063616c6c6572206973206e6f74206f7760008201527f6e6572206e6f7220617070726f76656420666f7220616c6c0000000000000000602082015250565b7f5072696365206973206c6f776572207468616e2073656c6c696e67207072696360008201527f6500000000000000000000000000000000000000000000000000000000000000602082015250565b7f4552433732313a2062616c616e636520717565727920666f7220746865207a6560008201527f726f206164647265737300000000000000000000000000000000000000000000602082015250565b7f4552433732313a206f776e657220717565727920666f72206e6f6e657869737460008201527f656e7420746f6b656e0000000000000000000000000000000000000000000000602082015250565b7f4552433732313a206d696e7420746f20746865207a65726f2061646472657373600082015250565b7f4552433732313a20617070726f76656420717565727920666f72206e6f6e657860008201527f697374656e7420746f6b656e0000000000000000000000000000000000000000602082015250565b7f4f776e61626c653a2063616c6c6572206973206e6f7420746865206f776e6572600082015250565b7f4552433732313a207472616e73666572206f6620746f6b656e2074686174206960008201527f73206e6f74206f776e0000000000000000000000000000000000000000000000602082015250565b7f4552433732314d657461646174613a2055524920717565727920666f72206e6f60008201527f6e6578697374656e7420746f6b656e0000000000000000000000000000000000602082015250565b7f4552433732313a20617070726f76616c20746f2063757272656e74206f776e6560008201527f7200000000000000000000000000000000000000000000000000000000000000602082015250565b7f4552433732313a207472616e736665722063616c6c6572206973206e6f74206f60008201527f776e6572206e6f7220617070726f766564000000000000000000000000000000602082015250565b7f546865206e6577206261736520555249206973207468652073616d652061732060008201527f7468652063757272656e74206f6e652e00000000000000000000000000000000602082015250565b7f506978656c2068617320616c7265616479206265656e206d696e7465642e0000600082015250565b614e3081614337565b8114614e3b57600080fd5b50565b614e478161435b565b8114614e5257600080fd5b50565b614e5e81614367565b8114614e6957600080fd5b50565b614e75816143b3565b8114614e8057600080fd5b5056fea26469706673582212204b20b9f9e7db4625ec998ca45619057975a2c0aded96029a81d3c05c28a9f75564736f6c63430008040033",
  "immutableReferences": {},
  "source": "// SPDX-License-Identifier: MIT\r\npragma solidity ^0.8.0;\r\n\r\nimport \"@openzeppelin/contracts/token/ERC721/ERC721.sol\";\r\nimport \"@openzeppelin/contracts/access/Ownable.sol\";\r\nimport \"@openzeppelin/contracts/security/Pausable.sol\";\r\n\r\n/**\r\n    @title An image where each pixel is an NFT\r\n    @author Carles Rojas\r\n    @notice You can use this contract to change the color of your pixels, trade them or mint new ones (Up to a limit).\r\n*/\r\ncontract CryptoPlace is ERC721, Ownable, Pausable {\r\n    // ##################################################################\r\n    //    GLOBAR VARS\r\n    // ##################################################################\r\n\r\n    uint256 public constant NUM_ROWS = 256;\r\n    uint256 public constant PIXEL_LIMIT = NUM_ROWS * NUM_ROWS;\r\n    uint256 public pixelCount;\r\n    uint256[] public mintedPixels;\r\n    uint256 public transctionFee = 1;\r\n    mapping(uint256 => Pixel) public pixels;\r\n    string private baseURI;\r\n\r\n    // ##################################################################\r\n    //    STRUCTS\r\n    // ##################################################################\r\n\r\n    /**\r\n        @notice Represents a pixel. With coordinates, color, owner, wei price and whether it has been minted\r\n    */\r\n    struct Pixel {\r\n        uint256 coords;\r\n        string color;\r\n        address payable owner;\r\n        uint256 weiPrice;\r\n        bool exists;\r\n    }\r\n\r\n    // ##################################################################\r\n    //    MAIN FUNCTIONS\r\n    // ##################################################################\r\n\r\n    /**\r\n        @notice The constructor for the CryptoPlace contract\r\n    */\r\n    constructor() ERC721(\"Pixel\", \"PXL\") {}\r\n\r\n    /**\r\n        @notice Create a new pixel.\r\n        @param _coords The coordinates of the pixel being minted: coordinates = column * number_of_rows + row\r\n        @param _color The color the pixel will have once minted\r\n        @param _initialWeiPrice The selling price the pixel will have after being minted in wei\r\n    */\r\n    function mint(\r\n        uint256 _coords,\r\n        string memory _color,\r\n        uint256 _initialWeiPrice\r\n    ) public {\r\n        // Do not create if coordinate already exists\r\n        require(!pixels[_coords].exists, \"Pixel has already been minted.\");\r\n\r\n        // Coords can not be bigger than the pixel limit\r\n        require(\r\n            _coords < PIXEL_LIMIT,\r\n            \"Coordinate for the pixel is out of limits. 0 <= coordinate < 256 * 256\"\r\n        );\r\n\r\n        // Only accept valid colors\r\n        require(isColor(_color), \"Invalid HEX color code. Ej: #FF0000\");\r\n\r\n        // Increment the pixel count\r\n        pixelCount++;\r\n\r\n        // Mint pixel\r\n        _mint(msg.sender, _coords);\r\n\r\n        // Add to minted pixels array\r\n        mintedPixels.push(_coords);\r\n\r\n        // Save the pixel\r\n        pixels[_coords] = Pixel(\r\n            _coords,\r\n            _color,\r\n            payable(msg.sender),\r\n            _initialWeiPrice,\r\n            true\r\n        );\r\n    }\r\n\r\n    /**\r\n        @notice Create a batch of pixels\r\n        @param _coordsToMint An array of pixel  coordinates to be minted: coordinates = column * number_of_rows + row\r\n        @param _colors An array with colors for each pixel being minted\r\n        @param _initialWeiPrices An array with initial prices in wei for each pixel being minted\r\n    */\r\n    function mintBatch(\r\n        uint256[] memory _coordsToMint,\r\n        string[] memory _colors,\r\n        uint256[] memory _initialWeiPrices\r\n    ) public onlyOwner {\r\n        // The _coordsToMint array size has to match the _colors array size\r\n        require(\r\n            _coordsToMint.length == _colors.length,\r\n            \"The colors array length does not match the coordinates array length.\"\r\n        );\r\n\r\n        // The _coordsToMint array size has to match the _initialWeiPrices array size\r\n        require(\r\n            _coordsToMint.length == _initialWeiPrices.length,\r\n            \"The wei prices array length does not match the coordinates array length.\"\r\n        );\r\n\r\n        for (uint256 i = 0; i < _coordsToMint.length; i++) {\r\n            mint(_coordsToMint[i], _colors[i], _initialWeiPrices[i]);\r\n        }\r\n    }\r\n\r\n    /**\r\n        @notice Change the color and / or selling price of a pixel\r\n        @param _coords The coordinates of the pixel: coordinates = column * number_of_rows + row\r\n        @param _color The new color the pixel will have\r\n        @param _weiPrice The new wei price the pixel will have\r\n    */\r\n    function changeColorAndPrice(\r\n        uint256 _coords,\r\n        string memory _color,\r\n        uint256 _weiPrice\r\n    ) public {\r\n        // Do not change color if it does not exist\r\n        require(\r\n            pixels[_coords].exists,\r\n            \"Invalid coordinates. Out of limits or the pixel has not yet been minted.\"\r\n        );\r\n\r\n        // Fetch the pixel\r\n        Pixel memory _pixel = pixels[_coords];\r\n\r\n        // Check that the owner is correct\r\n        require(\r\n            _pixel.owner == msg.sender,\r\n            \"You are not the owner of this pixel.\"\r\n        );\r\n\r\n        // Only accept valid colors\r\n        require(isColor(_color), \"Invalid HEX color code. Ej: #FF0000\");\r\n\r\n        // Check that the color is different than the old one or the price is diferent from the old one\r\n        require(\r\n            !stringsAreEqual(_color, _pixel.color) ||\r\n                _weiPrice != _pixel.weiPrice,\r\n            \"The new color and price are the same as the current ones.\"\r\n        );\r\n\r\n        // Change color & price\r\n        _pixel.color = _color;\r\n        _pixel.weiPrice = _weiPrice;\r\n\r\n        // Save pixel\r\n        pixels[_coords] = _pixel;\r\n    }\r\n\r\n    /**\r\n        @notice Buy a pixel\r\n        @param _coords The coordinates of the pixel to buy: coordinates = column * number_of_rows + row\r\n        @param _color The new color the pixel will have after buying it\r\n        @param _weiPrice The new wei price the pixel will have after buying it\r\n    */\r\n    function buyPixel(\r\n        uint256 _coords,\r\n        string memory _color,\r\n        uint256 _weiPrice\r\n    ) public payable {\r\n        // Do not buy if it does not exist\r\n        require(\r\n            pixels[_coords].exists,\r\n            \"Invalid coordinates. Out of limits or the pixel has not yet been minted.\"\r\n        );\r\n\r\n        // Fetch the pixel\r\n        Pixel memory _pixel = pixels[_coords];\r\n\r\n        // Check that the owner is not the buyer\r\n        require(\r\n            _pixel.owner != msg.sender,\r\n            \"You already are the owner of this pixel.\"\r\n        );\r\n\r\n        // Only accept valid colors\r\n        require(isColor(_color), \"Invalid HEX color code. Ej: #FF0000\");\r\n\r\n        // Price must be higher than the required selling price\r\n        require(\r\n            msg.value >= _pixel.weiPrice,\r\n            \"Price is lower than selling price\"\r\n        );\r\n\r\n        // Transfer fee to owner\r\n        if (transctionFee > 0)\r\n            payable(owner()).transfer((msg.value * transctionFee) / 100);\r\n\r\n        // Transfer rest of price to seller\r\n        _pixel.owner.transfer(msg.value - ((msg.value * transctionFee) / 100));\r\n\r\n        // Transfer pixel to buyer\r\n        _transfer(_pixel.owner, msg.sender, _coords);\r\n\r\n        // Change color & price\r\n        _pixel.color = _color;\r\n        _pixel.weiPrice = _weiPrice;\r\n        _pixel.owner = payable(msg.sender);\r\n\r\n        // Save pixel\r\n        pixels[_coords] = _pixel;\r\n    }\r\n\r\n    /**\r\n        @notice Set the new transaction fee for buying a pixel\r\n        @param _newTransactionFee The new base URI\r\n    */\r\n    function setTransctionFee(uint256 _newTransactionFee) public onlyOwner {\r\n        // Check that the Transaction Fee is different than the old one\r\n        require(\r\n            transctionFee != _newTransactionFee,\r\n            \"The new transaction fee is the same as the current one.\"\r\n        );\r\n\r\n        transctionFee = _newTransactionFee;\r\n    }\r\n\r\n    // ##################################################################\r\n    //    ADD TOKEN URI\r\n    // ##################################################################\r\n\r\n    /**\r\n        @notice Set the new base URI for all the pixels\r\n        @param baseURI_ The new base URI\r\n    */\r\n    function setBaseURI(string memory baseURI_) public onlyOwner {\r\n        // Check that the BaseURI is different than the old one\r\n        require(\r\n            !stringsAreEqual(baseURI, baseURI_),\r\n            \"The new base URI is the same as the current one.\"\r\n        );\r\n\r\n        baseURI = baseURI_;\r\n    }\r\n\r\n    /**\r\n        @notice Get the base URI for the pixels\r\n        @return Returns the base URI for the pixels\r\n    */\r\n    function _baseURI() internal view virtual override returns (string memory) {\r\n        return baseURI;\r\n    }\r\n\r\n    // ##################################################################\r\n    //    AUX FUNCTIONS\r\n    // ##################################################################\r\n\r\n    /**\r\n        @notice Checks if two strings are equal\r\n        @param _s1 The first string to compare\r\n        @param _s2 The second string to compare\r\n        @return True if the strings are equal\r\n    */\r\n    function stringsAreEqual(string memory _s1, string memory _s2)\r\n        public\r\n        pure\r\n        returns (bool)\r\n    {\r\n        return\r\n            keccak256(abi.encodePacked(_s1)) ==\r\n            keccak256(abi.encodePacked(_s2));\r\n    }\r\n\r\n    /**\r\n        @notice Checks if a color is a valid HEX color code\r\n        @param _color The HEX color code to check\r\n        @return True if the string is a valid HEX color code\r\n    */\r\n    function isColor(string memory _color) public pure returns (bool) {\r\n        // String to bytes\r\n        bytes memory b = bytes(_color);\r\n\r\n        // Not correct length\r\n        if (b.length != 7) return false;\r\n\r\n        // First charater must be '#'\r\n        if (b[0] != 0x23) return false;\r\n\r\n        // Other characters have to be 1-9 or A-F or a-f\r\n        for (uint256 i = 1; i < b.length; i++) {\r\n            bytes1 char = b[i];\r\n\r\n            if (\r\n                !(char >= 0x30 && char <= 0x39) && // 0-9\r\n                !(char >= 0x41 && char <= 0x46) && // A-F\r\n                !(char >= 0x61 && char <= 0x66) // a-f\r\n            ) return false;\r\n        }\r\n\r\n        // String is a color hex value\r\n        return true;\r\n    }\r\n}\r\n",
  "sourcePath": "/mnt/c/Users/Carles' PC/Documents/Repos/CryptoPlace/src/contracts/CryptoPlace.sol",
  "compiler": {
    "name": "solc",
    "version": "0.8.4+commit.c7e474f2.Emscripten.clang"
  },
  "schemaVersion": "3.4.1",
  "updatedAt": "2021-06-04T13:46:56.779Z",
  "networkType": "ethereum",
  "devdoc": {
    "author": "Carles Rojas",
    "kind": "dev",
    "methods": {
      "approve(address,uint256)": {
        "details": "See {IERC721-approve}."
      },
      "balanceOf(address)": {
        "details": "See {IERC721-balanceOf}."
      },
      "buyPixel(uint256,string,uint256)": {
        "params": {
          "_color": "The new color the pixel will have after buying it",
          "_coords": "The coordinates of the pixel to buy: coordinates = column * number_of_rows + row",
          "_weiPrice": "The new wei price the pixel will have after buying it"
        }
      },
      "changeColorAndPrice(uint256,string,uint256)": {
        "params": {
          "_color": "The new color the pixel will have",
          "_coords": "The coordinates of the pixel: coordinates = column * number_of_rows + row",
          "_weiPrice": "The new wei price the pixel will have"
        }
      },
      "getApproved(uint256)": {
        "details": "See {IERC721-getApproved}."
      },
      "isApprovedForAll(address,address)": {
        "details": "See {IERC721-isApprovedForAll}."
      },
      "isColor(string)": {
        "params": {
          "_color": "The HEX color code to check"
        },
        "returns": {
          "_0": "True if the string is a valid HEX color code"
        }
      },
      "mint(uint256,string,uint256)": {
        "params": {
          "_color": "The color the pixel will have once minted",
          "_coords": "The coordinates of the pixel being minted: coordinates = column * number_of_rows + row",
          "_initialWeiPrice": "The selling price the pixel will have after being minted in wei"
        }
      },
      "mintBatch(uint256[],string[],uint256[])": {
        "params": {
          "_colors": "An array with colors for each pixel being minted",
          "_coordsToMint": "An array of pixel  coordinates to be minted: coordinates = column * number_of_rows + row",
          "_initialWeiPrices": "An array with initial prices in wei for each pixel being minted"
        }
      },
      "name()": {
        "details": "See {IERC721Metadata-name}."
      },
      "owner()": {
        "details": "Returns the address of the current owner."
      },
      "ownerOf(uint256)": {
        "details": "See {IERC721-ownerOf}."
      },
      "paused()": {
        "details": "Returns true if the contract is paused, and false otherwise."
      },
      "renounceOwnership()": {
        "details": "Leaves the contract without owner. It will not be possible to call `onlyOwner` functions anymore. Can only be called by the current owner. NOTE: Renouncing ownership will leave the contract without an owner, thereby removing any functionality that is only available to the owner."
      },
      "safeTransferFrom(address,address,uint256)": {
        "details": "See {IERC721-safeTransferFrom}."
      },
      "safeTransferFrom(address,address,uint256,bytes)": {
        "details": "See {IERC721-safeTransferFrom}."
      },
      "setApprovalForAll(address,bool)": {
        "details": "See {IERC721-setApprovalForAll}."
      },
      "setBaseURI(string)": {
        "params": {
          "baseURI_": "The new base URI"
        }
      },
      "setTransctionFee(uint256)": {
        "params": {
          "_newTransactionFee": "The new base URI"
        }
      },
      "stringsAreEqual(string,string)": {
        "params": {
          "_s1": "The first string to compare",
          "_s2": "The second string to compare"
        },
        "returns": {
          "_0": "True if the strings are equal"
        }
      },
      "supportsInterface(bytes4)": {
        "details": "See {IERC165-supportsInterface}."
      },
      "symbol()": {
        "details": "See {IERC721Metadata-symbol}."
      },
      "tokenURI(uint256)": {
        "details": "See {IERC721Metadata-tokenURI}."
      },
      "transferFrom(address,address,uint256)": {
        "details": "See {IERC721-transferFrom}."
      },
      "transferOwnership(address)": {
        "details": "Transfers ownership of the contract to a new account (`newOwner`). Can only be called by the current owner."
      }
    },
    "title": "An image where each pixel is an NFT",
    "version": 1
  },
  "userdoc": {
    "kind": "user",
    "methods": {
      "buyPixel(uint256,string,uint256)": {
        "notice": "Buy a pixel"
      },
      "changeColorAndPrice(uint256,string,uint256)": {
        "notice": "Change the color and / or selling price of a pixel"
      },
      "constructor": {
        "notice": "The constructor for the CryptoPlace contract"
      },
      "isColor(string)": {
        "notice": "Checks if a color is a valid HEX color code"
      },
      "mint(uint256,string,uint256)": {
        "notice": "Create a new pixel."
      },
      "mintBatch(uint256[],string[],uint256[])": {
        "notice": "Create a batch of pixels"
      },
      "setBaseURI(string)": {
        "notice": "Set the new base URI for all the pixels"
      },
      "setTransctionFee(uint256)": {
        "notice": "Set the new transaction fee for buying a pixel"
      },
      "stringsAreEqual(string,string)": {
        "notice": "Checks if two strings are equal"
      }
    },
    "notice": "You can use this contract to change the color of your pixels, trade them or mint new ones (Up to a limit).",
    "version": 1
  }
}