{
  "contractName": "CryptoPlace",
  "abi": [
    {
      "inputs": [],
      "stateMutability": "nonpayable",
      "type": "constructor"
    },
    {
      "anonymous": false,
      "inputs": [
        {
          "indexed": true,
          "internalType": "address",
          "name": "owner",
          "type": "address"
        },
        {
          "indexed": true,
          "internalType": "address",
          "name": "approved",
          "type": "address"
        },
        {
          "indexed": true,
          "internalType": "uint256",
          "name": "tokenId",
          "type": "uint256"
        }
      ],
      "name": "Approval",
      "type": "event"
    },
    {
      "anonymous": false,
      "inputs": [
        {
          "indexed": true,
          "internalType": "address",
          "name": "owner",
          "type": "address"
        },
        {
          "indexed": true,
          "internalType": "address",
          "name": "operator",
          "type": "address"
        },
        {
          "indexed": false,
          "internalType": "bool",
          "name": "approved",
          "type": "bool"
        }
      ],
      "name": "ApprovalForAll",
      "type": "event"
    },
    {
      "anonymous": false,
      "inputs": [
        {
          "indexed": true,
          "internalType": "address",
          "name": "previousOwner",
          "type": "address"
        },
        {
          "indexed": true,
          "internalType": "address",
          "name": "newOwner",
          "type": "address"
        }
      ],
      "name": "OwnershipTransferred",
      "type": "event"
    },
    {
      "anonymous": false,
      "inputs": [
        {
          "indexed": false,
          "internalType": "address",
          "name": "account",
          "type": "address"
        }
      ],
      "name": "Paused",
      "type": "event"
    },
    {
      "anonymous": false,
      "inputs": [
        {
          "indexed": true,
          "internalType": "address",
          "name": "from",
          "type": "address"
        },
        {
          "indexed": true,
          "internalType": "address",
          "name": "to",
          "type": "address"
        },
        {
          "indexed": true,
          "internalType": "uint256",
          "name": "tokenId",
          "type": "uint256"
        }
      ],
      "name": "Transfer",
      "type": "event"
    },
    {
      "anonymous": false,
      "inputs": [
        {
          "indexed": false,
          "internalType": "address",
          "name": "account",
          "type": "address"
        }
      ],
      "name": "Unpaused",
      "type": "event"
    },
    {
      "inputs": [],
      "name": "NUM_ROWS",
      "outputs": [
        {
          "internalType": "uint256",
          "name": "",
          "type": "uint256"
        }
      ],
      "stateMutability": "view",
      "type": "function",
      "constant": true
    },
    {
      "inputs": [],
      "name": "PIXEL_LIMIT",
      "outputs": [
        {
          "internalType": "uint256",
          "name": "",
          "type": "uint256"
        }
      ],
      "stateMutability": "view",
      "type": "function",
      "constant": true
    },
    {
      "inputs": [
        {
          "internalType": "address",
          "name": "to",
          "type": "address"
        },
        {
          "internalType": "uint256",
          "name": "tokenId",
          "type": "uint256"
        }
      ],
      "name": "approve",
      "outputs": [],
      "stateMutability": "nonpayable",
      "type": "function"
    },
    {
      "inputs": [
        {
          "internalType": "address",
          "name": "owner",
          "type": "address"
        }
      ],
      "name": "balanceOf",
      "outputs": [
        {
          "internalType": "uint256",
          "name": "",
          "type": "uint256"
        }
      ],
      "stateMutability": "view",
      "type": "function",
      "constant": true
    },
    {
      "inputs": [
        {
          "internalType": "uint256",
          "name": "tokenId",
          "type": "uint256"
        }
      ],
      "name": "getApproved",
      "outputs": [
        {
          "internalType": "address",
          "name": "",
          "type": "address"
        }
      ],
      "stateMutability": "view",
      "type": "function",
      "constant": true
    },
    {
      "inputs": [
        {
          "internalType": "address",
          "name": "owner",
          "type": "address"
        },
        {
          "internalType": "address",
          "name": "operator",
          "type": "address"
        }
      ],
      "name": "isApprovedForAll",
      "outputs": [
        {
          "internalType": "bool",
          "name": "",
          "type": "bool"
        }
      ],
      "stateMutability": "view",
      "type": "function",
      "constant": true
    },
    {
      "inputs": [
        {
          "internalType": "string",
          "name": "_color",
          "type": "string"
        }
      ],
      "name": "isColor",
      "outputs": [
        {
          "internalType": "bool",
          "name": "",
          "type": "bool"
        }
      ],
      "stateMutability": "pure",
      "type": "function",
      "constant": true
    },
    {
      "inputs": [
        {
          "internalType": "uint256",
          "name": "",
          "type": "uint256"
        }
      ],
      "name": "mintedPixels",
      "outputs": [
        {
          "internalType": "uint256",
          "name": "",
          "type": "uint256"
        }
      ],
      "stateMutability": "view",
      "type": "function",
      "constant": true
    },
    {
      "inputs": [],
      "name": "name",
      "outputs": [
        {
          "internalType": "string",
          "name": "",
          "type": "string"
        }
      ],
      "stateMutability": "view",
      "type": "function",
      "constant": true
    },
    {
      "inputs": [],
      "name": "owner",
      "outputs": [
        {
          "internalType": "address",
          "name": "",
          "type": "address"
        }
      ],
      "stateMutability": "view",
      "type": "function",
      "constant": true
    },
    {
      "inputs": [
        {
          "internalType": "uint256",
          "name": "tokenId",
          "type": "uint256"
        }
      ],
      "name": "ownerOf",
      "outputs": [
        {
          "internalType": "address",
          "name": "",
          "type": "address"
        }
      ],
      "stateMutability": "view",
      "type": "function",
      "constant": true
    },
    {
      "inputs": [],
      "name": "paused",
      "outputs": [
        {
          "internalType": "bool",
          "name": "",
          "type": "bool"
        }
      ],
      "stateMutability": "view",
      "type": "function",
      "constant": true
    },
    {
      "inputs": [],
      "name": "pixelCount",
      "outputs": [
        {
          "internalType": "uint256",
          "name": "",
          "type": "uint256"
        }
      ],
      "stateMutability": "view",
      "type": "function",
      "constant": true
    },
    {
      "inputs": [
        {
          "internalType": "uint256",
          "name": "",
          "type": "uint256"
        }
      ],
      "name": "pixels",
      "outputs": [
        {
          "internalType": "uint256",
          "name": "coords",
          "type": "uint256"
        },
        {
          "internalType": "string",
          "name": "color",
          "type": "string"
        },
        {
          "internalType": "address payable",
          "name": "owner",
          "type": "address"
        },
        {
          "internalType": "uint256",
          "name": "weiPrice",
          "type": "uint256"
        }
      ],
      "stateMutability": "view",
      "type": "function",
      "constant": true
    },
    {
      "inputs": [],
      "name": "renounceOwnership",
      "outputs": [],
      "stateMutability": "nonpayable",
      "type": "function"
    },
    {
      "inputs": [
        {
          "internalType": "address",
          "name": "from",
          "type": "address"
        },
        {
          "internalType": "address",
          "name": "to",
          "type": "address"
        },
        {
          "internalType": "uint256",
          "name": "tokenId",
          "type": "uint256"
        }
      ],
      "name": "safeTransferFrom",
      "outputs": [],
      "stateMutability": "nonpayable",
      "type": "function"
    },
    {
      "inputs": [
        {
          "internalType": "address",
          "name": "from",
          "type": "address"
        },
        {
          "internalType": "address",
          "name": "to",
          "type": "address"
        },
        {
          "internalType": "uint256",
          "name": "tokenId",
          "type": "uint256"
        },
        {
          "internalType": "bytes",
          "name": "_data",
          "type": "bytes"
        }
      ],
      "name": "safeTransferFrom",
      "outputs": [],
      "stateMutability": "nonpayable",
      "type": "function"
    },
    {
      "inputs": [
        {
          "internalType": "address",
          "name": "operator",
          "type": "address"
        },
        {
          "internalType": "bool",
          "name": "approved",
          "type": "bool"
        }
      ],
      "name": "setApprovalForAll",
      "outputs": [],
      "stateMutability": "nonpayable",
      "type": "function"
    },
    {
      "inputs": [
        {
          "internalType": "string",
          "name": "baseURI_",
          "type": "string"
        }
      ],
      "name": "setBaseURI",
      "outputs": [],
      "stateMutability": "nonpayable",
      "type": "function"
    },
    {
      "inputs": [
        {
          "internalType": "string",
          "name": "_s1",
          "type": "string"
        },
        {
          "internalType": "string",
          "name": "_s2",
          "type": "string"
        }
      ],
      "name": "stringsAreEqual",
      "outputs": [
        {
          "internalType": "bool",
          "name": "",
          "type": "bool"
        }
      ],
      "stateMutability": "pure",
      "type": "function",
      "constant": true
    },
    {
      "inputs": [
        {
          "internalType": "bytes4",
          "name": "interfaceId",
          "type": "bytes4"
        }
      ],
      "name": "supportsInterface",
      "outputs": [
        {
          "internalType": "bool",
          "name": "",
          "type": "bool"
        }
      ],
      "stateMutability": "view",
      "type": "function",
      "constant": true
    },
    {
      "inputs": [],
      "name": "symbol",
      "outputs": [
        {
          "internalType": "string",
          "name": "",
          "type": "string"
        }
      ],
      "stateMutability": "view",
      "type": "function",
      "constant": true
    },
    {
      "inputs": [
        {
          "internalType": "uint256",
          "name": "tokenId",
          "type": "uint256"
        }
      ],
      "name": "tokenURI",
      "outputs": [
        {
          "internalType": "string",
          "name": "",
          "type": "string"
        }
      ],
      "stateMutability": "view",
      "type": "function",
      "constant": true
    },
    {
      "inputs": [],
      "name": "transctionFee",
      "outputs": [
        {
          "internalType": "uint256",
          "name": "",
          "type": "uint256"
        }
      ],
      "stateMutability": "view",
      "type": "function",
      "constant": true
    },
    {
      "inputs": [
        {
          "internalType": "address",
          "name": "from",
          "type": "address"
        },
        {
          "internalType": "address",
          "name": "to",
          "type": "address"
        },
        {
          "internalType": "uint256",
          "name": "tokenId",
          "type": "uint256"
        }
      ],
      "name": "transferFrom",
      "outputs": [],
      "stateMutability": "nonpayable",
      "type": "function"
    },
    {
      "inputs": [
        {
          "internalType": "address",
          "name": "newOwner",
          "type": "address"
        }
      ],
      "name": "transferOwnership",
      "outputs": [],
      "stateMutability": "nonpayable",
      "type": "function"
    },
    {
      "inputs": [
        {
          "internalType": "uint256",
          "name": "_coords",
          "type": "uint256"
        },
        {
          "internalType": "string",
          "name": "_color",
          "type": "string"
        },
        {
          "internalType": "uint256",
          "name": "_initialWeiPrice",
          "type": "uint256"
        }
      ],
      "name": "mint",
      "outputs": [],
      "stateMutability": "nonpayable",
      "type": "function"
    },
    {
      "inputs": [
        {
          "internalType": "uint256[]",
          "name": "_coordsToMint",
          "type": "uint256[]"
        },
        {
          "internalType": "string[]",
          "name": "_colors",
          "type": "string[]"
        },
        {
          "internalType": "uint256[]",
          "name": "_initialWeiPrices",
          "type": "uint256[]"
        }
      ],
      "name": "mintBatch",
      "outputs": [],
      "stateMutability": "nonpayable",
      "type": "function"
    },
    {
      "inputs": [
        {
          "internalType": "uint256",
          "name": "_coords",
          "type": "uint256"
        },
        {
          "internalType": "string",
          "name": "_color",
          "type": "string"
        },
        {
          "internalType": "uint256",
          "name": "_weiPrice",
          "type": "uint256"
        }
      ],
      "name": "changeColorAndPrice",
      "outputs": [],
      "stateMutability": "nonpayable",
      "type": "function"
    },
    {
      "inputs": [
        {
          "internalType": "uint256",
          "name": "_coords",
          "type": "uint256"
        },
        {
          "internalType": "string",
          "name": "_color",
          "type": "string"
        },
        {
          "internalType": "uint256",
          "name": "_weiPrice",
          "type": "uint256"
        }
      ],
      "name": "buyPixel",
      "outputs": [],
      "stateMutability": "payable",
      "type": "function",
      "payable": true
    },
    {
      "inputs": [
        {
          "internalType": "uint256",
          "name": "_newTransactionFee",
          "type": "uint256"
        }
      ],
      "name": "setTransctionFee",
      "outputs": [],
      "stateMutability": "nonpayable",
      "type": "function"
    }
  ],
  "bytecode": "0x60806040526001805560405180602001604052806000815250600590805190602001906200002f929190620001b6565b503480156200003d57600080fd5b506040518060400160405280600581526020017f506978656c0000000000000000000000000000000000000000000000000000008152506040518060400160405280600381526020017f50584c00000000000000000000000000000000000000000000000000000000008152506000620000bc620001ae60201b60201c565b9050806000806101000a81548173ffffffffffffffffffffffffffffffffffffffff021916908373ffffffffffffffffffffffffffffffffffffffff1602179055508073ffffffffffffffffffffffffffffffffffffffff16600073ffffffffffffffffffffffffffffffffffffffff167f8be0079c531659141344cd1fd0a4f28419497f9722a3daafe3b4186f6b6457e060405160405180910390a35060008060146101000a81548160ff02191690831515021790555081600690805190602001906200018c929190620001b6565b508060079080519060200190620001a5929190620001b6565b505050620002cb565b600033905090565b828054620001c49062000266565b90600052602060002090601f016020900481019282620001e8576000855562000234565b82601f106200020357805160ff191683800117855562000234565b8280016001018555821562000234579182015b828111156200023357825182559160200191906001019062000216565b5b50905062000243919062000247565b5090565b5b808211156200026257600081600090555060010162000248565b5090565b600060028204905060018216806200027f57607f821691505b602082108114156200029657620002956200029c565b5b50919050565b7f4e487b7100000000000000000000000000000000000000000000000000000000600052602260045260246000fd5b614fbb80620002db6000396000f3fe6080604052600436106101d85760003560e01c8063715018a611610102578063acca6b3111610095578063e985e9c511610064578063e985e9c5146106c2578063f2fde38b146106ff578063fa7a3bb514610728578063fe7fdced14610753576101d8565b8063acca6b311461060a578063b88d4fde14610633578063c87b56dd1461065c578063ca5774be14610699576101d8565b80638da5cb5b116100d15780638da5cb5b1461054b5780638da7f2321461057657806395d89b41146105b6578063a22cb465146105e1576101d8565b8063715018a6146104c257806373d3e6d7146104d957806388ea56ce1461050457806389ae5f4714610520576101d8565b806335280abb1161017a5780636352211e116101495780636352211e146103e25780636c877b051461041f5780636f6333401461044857806370a0823114610485576101d8565b806335280abb1461032857806342842e0e1461036557806355f804b31461038e5780635c975abb146103b7576101d8565b8063095ea7b3116101b6578063095ea7b31461028257806310a75938146102ab578063145773c9146102d657806323b872dd146102ff576101d8565b806301ffc9a7146101dd57806306fdde031461021a578063081812fc14610245575b600080fd5b3480156101e957600080fd5b5061020460048036038101906101ff919061378c565b610790565b6040516102119190613e4d565b60405180910390f35b34801561022657600080fd5b5061022f610872565b60405161023c9190613e68565b60405180910390f35b34801561025157600080fd5b5061026c6004803603810190610267919061388b565b610904565b6040516102799190613de6565b60405180910390f35b34801561028e57600080fd5b506102a960048036038101906102a491906136b9565b610989565b005b3480156102b757600080fd5b506102c0610aa1565b6040516102cd91906141ea565b60405180910390f35b3480156102e257600080fd5b506102fd60048036038101906102f891906138b4565b610ab2565b005b34801561030b57600080fd5b50610326600480360381019061032191906135b3565b610ddb565b005b34801561033457600080fd5b5061034f600480360381019061034a919061388b565b610e3b565b60405161035c91906141ea565b60405180910390f35b34801561037157600080fd5b5061038c600480360381019061038791906135b3565b610e5f565b005b34801561039a57600080fd5b506103b560048036038101906103b091906137de565b610e7f565b005b3480156103c357600080fd5b506103cc610fe9565b6040516103d99190613e4d565b60405180910390f35b3480156103ee57600080fd5b506104096004803603810190610404919061388b565b610fff565b6040516104169190613de6565b60405180910390f35b34801561042b57600080fd5b506104466004803603810190610441919061388b565b6110b1565b005b34801561045457600080fd5b5061046f600480360381019061046a919061381f565b61117c565b60405161047c9190613e4d565b60405180910390f35b34801561049157600080fd5b506104ac60048036038101906104a7919061354e565b6111d5565b6040516104b991906141ea565b60405180910390f35b3480156104ce57600080fd5b506104d761128d565b005b3480156104e557600080fd5b506104ee6113c7565b6040516104fb91906141ea565b60405180910390f35b61051e600480360381019061051991906138b4565b6113cd565b005b34801561052c57600080fd5b50610535611812565b60405161054291906141ea565b60405180910390f35b34801561055757600080fd5b50610560611818565b60405161056d9190613de6565b60405180910390f35b34801561058257600080fd5b5061059d6004803603810190610598919061388b565b611841565b6040516105ad9493929190614205565b60405180910390f35b3480156105c257600080fd5b506105cb611919565b6040516105d89190613e68565b60405180910390f35b3480156105ed57600080fd5b506106086004803603810190610603919061367d565b6119ab565b005b34801561061657600080fd5b50610631600480360381019061062c91906138b4565b611b2c565b005b34801561063f57600080fd5b5061065a60048036038101906106559190613602565b611c97565b005b34801561066857600080fd5b50610683600480360381019061067e919061388b565b611cf9565b6040516106909190613e68565b60405180910390f35b3480156106a557600080fd5b506106c060048036038101906106bb91906136f5565b611da0565b005b3480156106ce57600080fd5b506106e960048036038101906106e49190613577565b611f94565b6040516106f69190613e4d565b60405180910390f35b34801561070b57600080fd5b506107266004803603810190610721919061354e565b612028565b005b34801561073457600080fd5b5061073d6121d1565b60405161074a91906141ea565b60405180910390f35b34801561075f57600080fd5b5061077a600480360381019061077591906137de565b6121d7565b6040516107879190613e4d565b60405180910390f35b60007f80ac58cd000000000000000000000000000000000000000000000000000000007bffffffffffffffffffffffffffffffffffffffffffffffffffffffff1916827bffffffffffffffffffffffffffffffffffffffffffffffffffffffff1916148061085b57507f5b5e139f000000000000000000000000000000000000000000000000000000007bffffffffffffffffffffffffffffffffffffffffffffffffffffffff1916827bffffffffffffffffffffffffffffffffffffffffffffffffffffffff1916145b8061086b575061086a8261241b565b5b9050919050565b60606006805461088190614550565b80601f01602080910402602001604051908101604052809291908181526020018280546108ad90614550565b80156108fa5780601f106108cf576101008083540402835291602001916108fa565b820191906000526020600020905b8154815290600101906020018083116108dd57829003601f168201915b5050505050905090565b600061090f82612485565b61094e576040517f08c379a00000000000000000000000000000000000000000000000000000000081526004016109459061410a565b60405180910390fd5b600a600083815260200190815260200160002060009054906101000a900473ffffffffffffffffffffffffffffffffffffffff169050919050565b600061099482610fff565b90508073ffffffffffffffffffffffffffffffffffffffff168373ffffffffffffffffffffffffffffffffffffffff161415610a05576040517f08c379a00000000000000000000000000000000000000000000000000000000081526004016109fc9061418a565b60405180910390fd5b8073ffffffffffffffffffffffffffffffffffffffff16610a246124f1565b73ffffffffffffffffffffffffffffffffffffffff161480610a535750610a5281610a4d6124f1565b611f94565b5b610a92576040517f08c379a0000000000000000000000000000000000000000000000000000000008152600401610a899061406a565b60405180910390fd5b610a9c83836124f9565b505050565b61010080610aaf91906143fa565b81565b610abb83612485565b610afa576040517f08c379a0000000000000000000000000000000000000000000000000000000008152600401610af190613e8a565b60405180910390fd5b60006004600085815260200190815260200160002060405180608001604052908160008201548152602001600182018054610b3490614550565b80601f0160208091040260200160405190810160405280929190818152602001828054610b6090614550565b8015610bad5780601f10610b8257610100808354040283529160200191610bad565b820191906000526020600020905b815481529060010190602001808311610b9057829003601f168201915b505050505081526020016002820160009054906101000a900473ffffffffffffffffffffffffffffffffffffffff1673ffffffffffffffffffffffffffffffffffffffff1673ffffffffffffffffffffffffffffffffffffffff16815260200160038201548152505090503373ffffffffffffffffffffffffffffffffffffffff16610c3885610fff565b73ffffffffffffffffffffffffffffffffffffffff1614610c8e576040517f08c379a0000000000000000000000000000000000000000000000000000000008152600401610c8590613f6a565b60405180910390fd5b610c97836121d7565b610cd6576040517f08c379a0000000000000000000000000000000000000000000000000000000008152600401610ccd9061404a565b60405180910390fd5b610ce483826020015161117c565b1580610cf4575080606001518214155b610d33576040517f08c379a0000000000000000000000000000000000000000000000000000000008152600401610d2a90613f8a565b60405180910390fd5b828160200181905250818160600181815250508060046000868152602001908152602001600020600082015181600001556020820151816001019080519060200190610d8092919061322c565b5060408201518160020160006101000a81548173ffffffffffffffffffffffffffffffffffffffff021916908373ffffffffffffffffffffffffffffffffffffffff1602179055506060820151816003015590505050505050565b610dec610de66124f1565b826125b2565b610e2b576040517f08c379a0000000000000000000000000000000000000000000000000000000008152600401610e22906141aa565b60405180910390fd5b610e36838383612690565b505050565b60038181548110610e4b57600080fd5b906000526020600020016000915090505481565b610e7a83838360405180602001604052806000815250611c97565b505050565b610e876124f1565b73ffffffffffffffffffffffffffffffffffffffff16610ea5611818565b73ffffffffffffffffffffffffffffffffffffffff1614610efb576040517f08c379a0000000000000000000000000000000000000000000000000000000008152600401610ef29061412a565b60405180910390fd5b610f8f60058054610f0b90614550565b80601f0160208091040260200160405190810160405280929190818152602001828054610f3790614550565b8015610f845780601f10610f5957610100808354040283529160200191610f84565b820191906000526020600020905b815481529060010190602001808311610f6757829003601f168201915b50505050508261117c565b15610fcf576040517f08c379a0000000000000000000000000000000000000000000000000000000008152600401610fc6906141ca565b60405180910390fd5b8060059080519060200190610fe592919061322c565b5050565b60008060149054906101000a900460ff16905090565b6000806008600084815260200190815260200160002060009054906101000a900473ffffffffffffffffffffffffffffffffffffffff169050600073ffffffffffffffffffffffffffffffffffffffff168173ffffffffffffffffffffffffffffffffffffffff1614156110a8576040517f08c379a000000000000000000000000000000000000000000000000000000000815260040161109f906140ca565b60405180910390fd5b80915050919050565b6110b96124f1565b73ffffffffffffffffffffffffffffffffffffffff166110d7611818565b73ffffffffffffffffffffffffffffffffffffffff161461112d576040517f08c379a00000000000000000000000000000000000000000000000000000000081526004016111249061412a565b60405180910390fd5b806001541415611172576040517f08c379a000000000000000000000000000000000000000000000000000000000815260040161116990613eca565b60405180910390fd5b8060018190555050565b60008160405160200161118f9190613dab565b60405160208183030381529060405280519060200120836040516020016111b69190613dab565b6040516020818303038152906040528051906020012014905092915050565b60008073ffffffffffffffffffffffffffffffffffffffff168273ffffffffffffffffffffffffffffffffffffffff161415611246576040517f08c379a000000000000000000000000000000000000000000000000000000000815260040161123d906140aa565b60405180910390fd5b600960008373ffffffffffffffffffffffffffffffffffffffff1673ffffffffffffffffffffffffffffffffffffffff168152602001908152602001600020549050919050565b6112956124f1565b73ffffffffffffffffffffffffffffffffffffffff166112b3611818565b73ffffffffffffffffffffffffffffffffffffffff1614611309576040517f08c379a00000000000000000000000000000000000000000000000000000000081526004016113009061412a565b60405180910390fd5b600073ffffffffffffffffffffffffffffffffffffffff1660008054906101000a900473ffffffffffffffffffffffffffffffffffffffff1673ffffffffffffffffffffffffffffffffffffffff167f8be0079c531659141344cd1fd0a4f28419497f9722a3daafe3b4186f6b6457e060405160405180910390a360008060006101000a81548173ffffffffffffffffffffffffffffffffffffffff021916908373ffffffffffffffffffffffffffffffffffffffff160217905550565b60025481565b6113d683612485565b611415576040517f08c379a000000000000000000000000000000000000000000000000000000000815260040161140c90613e8a565b60405180910390fd5b6000600460008581526020019081526020016000206040518060800160405290816000820154815260200160018201805461144f90614550565b80601f016020809104026020016040519081016040528092919081815260200182805461147b90614550565b80156114c85780601f1061149d576101008083540402835291602001916114c8565b820191906000526020600020905b8154815290600101906020018083116114ab57829003601f168201915b505050505081526020016002820160009054906101000a900473ffffffffffffffffffffffffffffffffffffffff1673ffffffffffffffffffffffffffffffffffffffff1673ffffffffffffffffffffffffffffffffffffffff16815260200160038201548152505090503373ffffffffffffffffffffffffffffffffffffffff1661155385610fff565b73ffffffffffffffffffffffffffffffffffffffff1614156115aa576040517f08c379a00000000000000000000000000000000000000000000000000000000081526004016115a190613eaa565b60405180910390fd5b6115b3836121d7565b6115f2576040517f08c379a00000000000000000000000000000000000000000000000000000000081526004016115e99061404a565b60405180910390fd5b8060600151341015611639576040517f08c379a00000000000000000000000000000000000000000000000000000000081526004016116309061408a565b60405180910390fd5b600060015411156116ac5761164c611818565b73ffffffffffffffffffffffffffffffffffffffff166108fc60646001543461167591906143fa565b61167f91906143c9565b9081150290604051600060405180830381858888f193505050501580156116aa573d6000803e3d6000fd5b505b6116b584610fff565b73ffffffffffffffffffffffffffffffffffffffff166108fc6064600154346116de91906143fa565b6116e891906143c9565b346116f39190614454565b9081150290604051600060405180830381858888f1935050505015801561171e573d6000803e3d6000fd5b5061173261172b85610fff565b3386612690565b8281602001819052508181606001818152505033816040019073ffffffffffffffffffffffffffffffffffffffff16908173ffffffffffffffffffffffffffffffffffffffff168152505080600460008681526020019081526020016000206000820151816000015560208201518160010190805190602001906117b792919061322c565b5060408201518160020160006101000a81548173ffffffffffffffffffffffffffffffffffffffff021916908373ffffffffffffffffffffffffffffffffffffffff1602179055506060820151816003015590505050505050565b61010081565b60008060009054906101000a900473ffffffffffffffffffffffffffffffffffffffff16905090565b600460205280600052604060002060009150905080600001549080600101805461186a90614550565b80601f016020809104026020016040519081016040528092919081815260200182805461189690614550565b80156118e35780601f106118b8576101008083540402835291602001916118e3565b820191906000526020600020905b8154815290600101906020018083116118c657829003601f168201915b5050505050908060020160009054906101000a900473ffffffffffffffffffffffffffffffffffffffff16908060030154905084565b60606007805461192890614550565b80601f016020809104026020016040519081016040528092919081815260200182805461195490614550565b80156119a15780601f10611976576101008083540402835291602001916119a1565b820191906000526020600020905b81548152906001019060200180831161198457829003601f168201915b5050505050905090565b6119b36124f1565b73ffffffffffffffffffffffffffffffffffffffff168273ffffffffffffffffffffffffffffffffffffffff161415611a21576040517f08c379a0000000000000000000000000000000000000000000000000000000008152600401611a1890613fca565b60405180910390fd5b80600b6000611a2e6124f1565b73ffffffffffffffffffffffffffffffffffffffff1673ffffffffffffffffffffffffffffffffffffffff16815260200190815260200160002060008473ffffffffffffffffffffffffffffffffffffffff1673ffffffffffffffffffffffffffffffffffffffff16815260200190815260200160002060006101000a81548160ff0219169083151502179055508173ffffffffffffffffffffffffffffffffffffffff16611adb6124f1565b73ffffffffffffffffffffffffffffffffffffffff167f17307eab39ab6107e8899845ad3d59bd9653f200f220920489ca2b5937696c3183604051611b209190613e4d565b60405180910390a35050565b61010080611b3a91906143fa565b8310611b7b576040517f08c379a0000000000000000000000000000000000000000000000000000000008152600401611b729061402a565b60405180910390fd5b611b84826121d7565b611bc3576040517f08c379a0000000000000000000000000000000000000000000000000000000008152600401611bba9061404a565b60405180910390fd5b611bcd3384612ad2565b60405180608001604052808481526020018381526020013373ffffffffffffffffffffffffffffffffffffffff1681526020018281525060046000858152602001908152602001600020600082015181600001556020820151816001019080519060200190611c3d92919061322c565b5060408201518160020160006101000a81548173ffffffffffffffffffffffffffffffffffffffff021916908373ffffffffffffffffffffffffffffffffffffffff16021790555060608201518160030155905050505050565b611ca8611ca26124f1565b836125b2565b611ce7576040517f08c379a0000000000000000000000000000000000000000000000000000000008152600401611cde906141aa565b60405180910390fd5b611cf384848484612de2565b50505050565b6060611d0482612485565b611d43576040517f08c379a0000000000000000000000000000000000000000000000000000000008152600401611d3a9061416a565b60405180910390fd5b6000611d4d612e3e565b90506000815111611d6d5760405180602001604052806000815250611d98565b80611d7784612ed0565b604051602001611d88929190613dc2565b6040516020818303038152906040525b915050919050565b611da86124f1565b73ffffffffffffffffffffffffffffffffffffffff16611dc6611818565b73ffffffffffffffffffffffffffffffffffffffff1614611e1c576040517f08c379a0000000000000000000000000000000000000000000000000000000008152600401611e139061412a565b60405180910390fd5b8151835114611e60576040517f08c379a0000000000000000000000000000000000000000000000000000000008152600401611e5790613f2a565b60405180910390fd5b8051835114611ea4576040517f08c379a0000000000000000000000000000000000000000000000000000000008152600401611e9b90613fea565b60405180910390fd5b60005b8351811015611f8e57611f7b848281518110611eec577f4e487b7100000000000000000000000000000000000000000000000000000000600052603260045260246000fd5b6020026020010151848381518110611f2d577f4e487b7100000000000000000000000000000000000000000000000000000000600052603260045260246000fd5b6020026020010151848481518110611f6e577f4e487b7100000000000000000000000000000000000000000000000000000000600052603260045260246000fd5b6020026020010151611b2c565b8080611f86906145b3565b915050611ea7565b50505050565b6000600b60008473ffffffffffffffffffffffffffffffffffffffff1673ffffffffffffffffffffffffffffffffffffffff16815260200190815260200160002060008373ffffffffffffffffffffffffffffffffffffffff1673ffffffffffffffffffffffffffffffffffffffff16815260200190815260200160002060009054906101000a900460ff16905092915050565b6120306124f1565b73ffffffffffffffffffffffffffffffffffffffff1661204e611818565b73ffffffffffffffffffffffffffffffffffffffff16146120a4576040517f08c379a000000000000000000000000000000000000000000000000000000000815260040161209b9061412a565b60405180910390fd5b600073ffffffffffffffffffffffffffffffffffffffff168173ffffffffffffffffffffffffffffffffffffffff161415612114576040517f08c379a000000000000000000000000000000000000000000000000000000000815260040161210b90613f0a565b60405180910390fd5b8073ffffffffffffffffffffffffffffffffffffffff1660008054906101000a900473ffffffffffffffffffffffffffffffffffffffff1673ffffffffffffffffffffffffffffffffffffffff167f8be0079c531659141344cd1fd0a4f28419497f9722a3daafe3b4186f6b6457e060405160405180910390a3806000806101000a81548173ffffffffffffffffffffffffffffffffffffffff021916908373ffffffffffffffffffffffffffffffffffffffff16021790555050565b60015481565b60008082905060078151146121f0576000915050612416565b602360f81b8160008151811061222f577f4e487b7100000000000000000000000000000000000000000000000000000000600052603260045260246000fd5b602001015160f81c60f81b7effffffffffffffffffffffffffffffffffffffffffffffffffffffffffffff19161461226b576000915050612416565b6000600190505b815181101561240f5760008282815181106122b6577f4e487b7100000000000000000000000000000000000000000000000000000000600052603260045260246000fd5b602001015160f81c60f81b9050603060f81b817effffffffffffffffffffffffffffffffffffffffffffffffffffffffffffff19161015801561231f5750603960f81b817effffffffffffffffffffffffffffffffffffffffffffffffffffffffffffff191611155b1580156123855750604160f81b817effffffffffffffffffffffffffffffffffffffffffffffffffffffffffffff1916101580156123835750604660f81b817effffffffffffffffffffffffffffffffffffffffffffffffffffffffffffff191611155b155b80156123ea5750606160f81b817effffffffffffffffffffffffffffffffffffffffffffffffffffffffffffff1916101580156123e85750606660f81b817effffffffffffffffffffffffffffffffffffffffffffffffffffffffffffff191611155b155b156123fb5760009350505050612416565b508080612407906145b3565b915050612272565b5060019150505b919050565b60007f01ffc9a7000000000000000000000000000000000000000000000000000000007bffffffffffffffffffffffffffffffffffffffffffffffffffffffff1916827bffffffffffffffffffffffffffffffffffffffffffffffffffffffff1916149050919050565b60008073ffffffffffffffffffffffffffffffffffffffff166008600084815260200190815260200160002060009054906101000a900473ffffffffffffffffffffffffffffffffffffffff1673ffffffffffffffffffffffffffffffffffffffff1614159050919050565b600033905090565b81600a600083815260200190815260200160002060006101000a81548173ffffffffffffffffffffffffffffffffffffffff021916908373ffffffffffffffffffffffffffffffffffffffff160217905550808273ffffffffffffffffffffffffffffffffffffffff1661256c83610fff565b73ffffffffffffffffffffffffffffffffffffffff167f8c5be1e5ebec7d5bd14f71427d1e84f3dd0314c0f7b2291e5b200ac8c7c3b92560405160405180910390a45050565b60006125bd82612485565b6125fc576040517f08c379a00000000000000000000000000000000000000000000000000000000081526004016125f39061400a565b60405180910390fd5b600061260783610fff565b90508073ffffffffffffffffffffffffffffffffffffffff168473ffffffffffffffffffffffffffffffffffffffff16148061267657508373ffffffffffffffffffffffffffffffffffffffff1661265e84610904565b73ffffffffffffffffffffffffffffffffffffffff16145b8061268757506126868185611f94565b5b91505092915050565b8273ffffffffffffffffffffffffffffffffffffffff166126b082610fff565b73ffffffffffffffffffffffffffffffffffffffff1614612706576040517f08c379a00000000000000000000000000000000000000000000000000000000081526004016126fd9061414a565b60405180910390fd5b600073ffffffffffffffffffffffffffffffffffffffff168273ffffffffffffffffffffffffffffffffffffffff161415612776576040517f08c379a000000000000000000000000000000000000000000000000000000000815260040161276d90613faa565b60405180910390fd5b61278183838361307d565b61278c6000826124f9565b600060046000838152602001908152602001600020604051806080016040529081600082015481526020016001820180546127c690614550565b80601f01602080910402602001604051908101604052809291908181526020018280546127f290614550565b801561283f5780601f106128145761010080835404028352916020019161283f565b820191906000526020600020905b81548152906001019060200180831161282257829003601f168201915b505050505081526020016002820160009054906101000a900473ffffffffffffffffffffffffffffffffffffffff1673ffffffffffffffffffffffffffffffffffffffff1673ffffffffffffffffffffffffffffffffffffffff168152602001600382015481525050905082816040019073ffffffffffffffffffffffffffffffffffffffff16908173ffffffffffffffffffffffffffffffffffffffff1681525050806004600084815260200190815260200160002060008201518160000155602082015181600101908051906020019061291c92919061322c565b5060408201518160020160006101000a81548173ffffffffffffffffffffffffffffffffffffffff021916908373ffffffffffffffffffffffffffffffffffffffff160217905550606082015181600301559050506001600960008673ffffffffffffffffffffffffffffffffffffffff1673ffffffffffffffffffffffffffffffffffffffff16815260200190815260200160002060008282546129c19190614454565b925050819055506001600960008573ffffffffffffffffffffffffffffffffffffffff1673ffffffffffffffffffffffffffffffffffffffff1681526020019081526020016000206000828254612a189190614373565b92505081905550826008600084815260200190815260200160002060006101000a81548173ffffffffffffffffffffffffffffffffffffffff021916908373ffffffffffffffffffffffffffffffffffffffff160217905550818373ffffffffffffffffffffffffffffffffffffffff168573ffffffffffffffffffffffffffffffffffffffff167fddf252ad1be2c89b69c2b068fc378daa952ba7f163c4a11628f55a4df523b3ef60405160405180910390a450505050565b600073ffffffffffffffffffffffffffffffffffffffff168273ffffffffffffffffffffffffffffffffffffffff161415612b42576040517f08c379a0000000000000000000000000000000000000000000000000000000008152600401612b39906140ea565b60405180910390fd5b612b4b81612485565b15612b8b576040517f08c379a0000000000000000000000000000000000000000000000000000000008152600401612b8290613f4a565b60405180910390fd5b612b976000838361307d565b60026000815480929190612baa906145b3565b9190505550600381908060018154018082558091505060019003906000526020600020016000909190919091505560405180608001604052808281526020016040518060400160405280600781526020017f236666666666660000000000000000000000000000000000000000000000000081525081526020018373ffffffffffffffffffffffffffffffffffffffff1681526020016611c37937e0800081525060046000838152602001908152602001600020600082015181600001556020820151816001019080519060200190612c8492919061322c565b5060408201518160020160006101000a81548173ffffffffffffffffffffffffffffffffffffffff021916908373ffffffffffffffffffffffffffffffffffffffff160217905550606082015181600301559050506001600960008473ffffffffffffffffffffffffffffffffffffffff1673ffffffffffffffffffffffffffffffffffffffff1681526020019081526020016000206000828254612d299190614373565b92505081905550816008600083815260200190815260200160002060006101000a81548173ffffffffffffffffffffffffffffffffffffffff021916908373ffffffffffffffffffffffffffffffffffffffff160217905550808273ffffffffffffffffffffffffffffffffffffffff16600073ffffffffffffffffffffffffffffffffffffffff167fddf252ad1be2c89b69c2b068fc378daa952ba7f163c4a11628f55a4df523b3ef60405160405180910390a45050565b612ded848484612690565b612df984848484613082565b612e38576040517f08c379a0000000000000000000000000000000000000000000000000000000008152600401612e2f90613eea565b60405180910390fd5b50505050565b606060058054612e4d90614550565b80601f0160208091040260200160405190810160405280929190818152602001828054612e7990614550565b8015612ec65780601f10612e9b57610100808354040283529160200191612ec6565b820191906000526020600020905b815481529060010190602001808311612ea957829003601f168201915b5050505050905090565b60606000821415612f18576040518060400160405280600181526020017f30000000000000000000000000000000000000000000000000000000000000008152509050613078565b600082905060005b60008214612f4a578080612f33906145b3565b915050600a82612f4391906143c9565b9150612f20565b60008167ffffffffffffffff811115612f8c577f4e487b7100000000000000000000000000000000000000000000000000000000600052604160045260246000fd5b6040519080825280601f01601f191660200182016040528015612fbe5781602001600182028036833780820191505090505b5090505b6000851461307157600182612fd79190614454565b9150600a85612fe691906145fc565b6030612ff29190614373565b60f81b81838151811061302e577f4e487b7100000000000000000000000000000000000000000000000000000000600052603260045260246000fd5b60200101907effffffffffffffffffffffffffffffffffffffffffffffffffffffffffffff1916908160001a905350600a8561306a91906143c9565b9450612fc2565b8093505050505b919050565b505050565b60006130a38473ffffffffffffffffffffffffffffffffffffffff16613219565b1561320c578373ffffffffffffffffffffffffffffffffffffffff1663150b7a026130cc6124f1565b8786866040518563ffffffff1660e01b81526004016130ee9493929190613e01565b602060405180830381600087803b15801561310857600080fd5b505af192505050801561313957506040513d601f19601f8201168201806040525081019061313691906137b5565b60015b6131bc573d8060008114613169576040519150601f19603f3d011682016040523d82523d6000602084013e61316e565b606091505b506000815114156131b4576040517f08c379a00000000000000000000000000000000000000000000000000000000081526004016131ab90613eea565b60405180910390fd5b805181602001fd5b63150b7a0260e01b7bffffffffffffffffffffffffffffffffffffffffffffffffffffffff1916817bffffffffffffffffffffffffffffffffffffffffffffffffffffffff191614915050613211565b600190505b949350505050565b600080823b905060008111915050919050565b82805461323890614550565b90600052602060002090601f01602090048101928261325a57600085556132a1565b82601f1061327357805160ff19168380011785556132a1565b828001600101855582156132a1579182015b828111156132a0578251825591602001919060010190613285565b5b5090506132ae91906132b2565b5090565b5b808211156132cb5760008160009055506001016132b3565b5090565b60006132e26132dd84614276565b614251565b9050808382526020820190508285602086028201111561330157600080fd5b60005b8581101561334b57813567ffffffffffffffff81111561332357600080fd5b808601613330898261350f565b85526020850194506020840193505050600181019050613304565b5050509392505050565b6000613368613363846142a2565b614251565b9050808382526020820190508285602086028201111561338757600080fd5b60005b858110156133b7578161339d8882613539565b84526020840193506020830192505060018101905061338a565b5050509392505050565b60006133d46133cf846142ce565b614251565b9050828152602081018484840111156133ec57600080fd5b6133f784828561450e565b509392505050565b600061341261340d846142ff565b614251565b90508281526020810184848401111561342a57600080fd5b61343584828561450e565b509392505050565b60008135905061344c81614f29565b92915050565b600082601f83011261346357600080fd5b81356134738482602086016132cf565b91505092915050565b600082601f83011261348d57600080fd5b813561349d848260208601613355565b91505092915050565b6000813590506134b581614f40565b92915050565b6000813590506134ca81614f57565b92915050565b6000815190506134df81614f57565b92915050565b600082601f8301126134f657600080fd5b81356135068482602086016133c1565b91505092915050565b600082601f83011261352057600080fd5b81356135308482602086016133ff565b91505092915050565b60008135905061354881614f6e565b92915050565b60006020828403121561356057600080fd5b600061356e8482850161343d565b91505092915050565b6000806040838503121561358a57600080fd5b60006135988582860161343d565b92505060206135a98582860161343d565b9150509250929050565b6000806000606084860312156135c857600080fd5b60006135d68682870161343d565b93505060206135e78682870161343d565b92505060406135f886828701613539565b9150509250925092565b6000806000806080858703121561361857600080fd5b60006136268782880161343d565b94505060206136378782880161343d565b935050604061364887828801613539565b925050606085013567ffffffffffffffff81111561366557600080fd5b613671878288016134e5565b91505092959194509250565b6000806040838503121561369057600080fd5b600061369e8582860161343d565b92505060206136af858286016134a6565b9150509250929050565b600080604083850312156136cc57600080fd5b60006136da8582860161343d565b92505060206136eb85828601613539565b9150509250929050565b60008060006060848603121561370a57600080fd5b600084013567ffffffffffffffff81111561372457600080fd5b6137308682870161347c565b935050602084013567ffffffffffffffff81111561374d57600080fd5b61375986828701613452565b925050604084013567ffffffffffffffff81111561377657600080fd5b6137828682870161347c565b9150509250925092565b60006020828403121561379e57600080fd5b60006137ac848285016134bb565b91505092915050565b6000602082840312156137c757600080fd5b60006137d5848285016134d0565b91505092915050565b6000602082840312156137f057600080fd5b600082013567ffffffffffffffff81111561380a57600080fd5b6138168482850161350f565b91505092915050565b6000806040838503121561383257600080fd5b600083013567ffffffffffffffff81111561384c57600080fd5b6138588582860161350f565b925050602083013567ffffffffffffffff81111561387557600080fd5b6138818582860161350f565b9150509250929050565b60006020828403121561389d57600080fd5b60006138ab84828501613539565b91505092915050565b6000806000606084860312156138c957600080fd5b60006138d786828701613539565b935050602084013567ffffffffffffffff8111156138f457600080fd5b6139008682870161350f565b925050604061391186828701613539565b9150509250925092565b6139248161449a565b82525050565b61393381614488565b82525050565b613942816144ac565b82525050565b600061395382614330565b61395d8185614346565b935061396d81856020860161451d565b613976816146e9565b840191505092915050565b600061398c8261433b565b6139968185614357565b93506139a681856020860161451d565b6139af816146e9565b840191505092915050565b60006139c58261433b565b6139cf8185614368565b93506139df81856020860161451d565b80840191505092915050565b60006139f8603983614357565b9150613a03826146fa565b604082019050919050565b6000613a1b602883614357565b9150613a2682614749565b604082019050919050565b6000613a3e603783614357565b9150613a4982614798565b604082019050919050565b6000613a61603283614357565b9150613a6c826147e7565b604082019050919050565b6000613a84602683614357565b9150613a8f82614836565b604082019050919050565b6000613aa7604483614357565b9150613ab282614885565b606082019050919050565b6000613aca601c83614357565b9150613ad5826148fa565b602082019050919050565b6000613aed602483614357565b9150613af882614923565b604082019050919050565b6000613b10603983614357565b9150613b1b82614972565b604082019050919050565b6000613b33602483614357565b9150613b3e826149c1565b604082019050919050565b6000613b56601983614357565b9150613b6182614a10565b602082019050919050565b6000613b79604883614357565b9150613b8482614a39565b606082019050919050565b6000613b9c602c83614357565b9150613ba782614aae565b604082019050919050565b6000613bbf604683614357565b9150613bca82614afd565b606082019050919050565b6000613be2602383614357565b9150613bed82614b72565b604082019050919050565b6000613c05603883614357565b9150613c1082614bc1565b604082019050919050565b6000613c28602183614357565b9150613c3382614c10565b604082019050919050565b6000613c4b602a83614357565b9150613c5682614c5f565b604082019050919050565b6000613c6e602983614357565b9150613c7982614cae565b604082019050919050565b6000613c91602083614357565b9150613c9c82614cfd565b602082019050919050565b6000613cb4602c83614357565b9150613cbf82614d26565b604082019050919050565b6000613cd7602083614357565b9150613ce282614d75565b602082019050919050565b6000613cfa602983614357565b9150613d0582614d9e565b604082019050919050565b6000613d1d602f83614357565b9150613d2882614ded565b604082019050919050565b6000613d40602183614357565b9150613d4b82614e3c565b604082019050919050565b6000613d63603183614357565b9150613d6e82614e8b565b604082019050919050565b6000613d86603083614357565b9150613d9182614eda565b604082019050919050565b613da581614504565b82525050565b6000613db782846139ba565b915081905092915050565b6000613dce82856139ba565b9150613dda82846139ba565b91508190509392505050565b6000602082019050613dfb600083018461392a565b92915050565b6000608082019050613e16600083018761392a565b613e23602083018661392a565b613e306040830185613d9c565b8181036060830152613e428184613948565b905095945050505050565b6000602082019050613e626000830184613939565b92915050565b60006020820190508181036000830152613e828184613981565b905092915050565b60006020820190508181036000830152613ea3816139eb565b9050919050565b60006020820190508181036000830152613ec381613a0e565b9050919050565b60006020820190508181036000830152613ee381613a31565b9050919050565b60006020820190508181036000830152613f0381613a54565b9050919050565b60006020820190508181036000830152613f2381613a77565b9050919050565b60006020820190508181036000830152613f4381613a9a565b9050919050565b60006020820190508181036000830152613f6381613abd565b9050919050565b60006020820190508181036000830152613f8381613ae0565b9050919050565b60006020820190508181036000830152613fa381613b03565b9050919050565b60006020820190508181036000830152613fc381613b26565b9050919050565b60006020820190508181036000830152613fe381613b49565b9050919050565b6000602082019050818103600083015261400381613b6c565b9050919050565b6000602082019050818103600083015261402381613b8f565b9050919050565b6000602082019050818103600083015261404381613bb2565b9050919050565b6000602082019050818103600083015261406381613bd5565b9050919050565b6000602082019050818103600083015261408381613bf8565b9050919050565b600060208201905081810360008301526140a381613c1b565b9050919050565b600060208201905081810360008301526140c381613c3e565b9050919050565b600060208201905081810360008301526140e381613c61565b9050919050565b6000602082019050818103600083015261410381613c84565b9050919050565b6000602082019050818103600083015261412381613ca7565b9050919050565b6000602082019050818103600083015261414381613cca565b9050919050565b6000602082019050818103600083015261416381613ced565b9050919050565b6000602082019050818103600083015261418381613d10565b9050919050565b600060208201905081810360008301526141a381613d33565b9050919050565b600060208201905081810360008301526141c381613d56565b9050919050565b600060208201905081810360008301526141e381613d79565b9050919050565b60006020820190506141ff6000830184613d9c565b92915050565b600060808201905061421a6000830187613d9c565b818103602083015261422c8186613981565b905061423b604083018561391b565b6142486060830184613d9c565b95945050505050565b600061425b61426c565b90506142678282614582565b919050565b6000604051905090565b600067ffffffffffffffff821115614291576142906146ba565b5b602082029050602081019050919050565b600067ffffffffffffffff8211156142bd576142bc6146ba565b5b602082029050602081019050919050565b600067ffffffffffffffff8211156142e9576142e86146ba565b5b6142f2826146e9565b9050602081019050919050565b600067ffffffffffffffff82111561431a576143196146ba565b5b614323826146e9565b9050602081019050919050565b600081519050919050565b600081519050919050565b600082825260208201905092915050565b600082825260208201905092915050565b600081905092915050565b600061437e82614504565b915061438983614504565b9250827fffffffffffffffffffffffffffffffffffffffffffffffffffffffffffffffff038211156143be576143bd61462d565b5b828201905092915050565b60006143d482614504565b91506143df83614504565b9250826143ef576143ee61465c565b5b828204905092915050565b600061440582614504565b915061441083614504565b9250817fffffffffffffffffffffffffffffffffffffffffffffffffffffffffffffffff04831182151516156144495761444861462d565b5b828202905092915050565b600061445f82614504565b915061446a83614504565b92508282101561447d5761447c61462d565b5b828203905092915050565b6000614493826144e4565b9050919050565b60006144a5826144e4565b9050919050565b60008115159050919050565b60007fffffffff0000000000000000000000000000000000000000000000000000000082169050919050565b600073ffffffffffffffffffffffffffffffffffffffff82169050919050565b6000819050919050565b82818337600083830152505050565b60005b8381101561453b578082015181840152602081019050614520565b8381111561454a576000848401525b50505050565b6000600282049050600182168061456857607f821691505b6020821081141561457c5761457b61468b565b5b50919050565b61458b826146e9565b810181811067ffffffffffffffff821117156145aa576145a96146ba565b5b80604052505050565b60006145be82614504565b91507fffffffffffffffffffffffffffffffffffffffffffffffffffffffffffffffff8214156145f1576145f061462d565b5b600182019050919050565b600061460782614504565b915061461283614504565b9250826146225761462161465c565b5b828206905092915050565b7f4e487b7100000000000000000000000000000000000000000000000000000000600052601160045260246000fd5b7f4e487b7100000000000000000000000000000000000000000000000000000000600052601260045260246000fd5b7f4e487b7100000000000000000000000000000000000000000000000000000000600052602260045260246000fd5b7f4e487b7100000000000000000000000000000000000000000000000000000000600052604160045260246000fd5b6000601f19601f8301169050919050565b7f496e76616c696420636f6f7264696e61746573206f722074686520706978656c60008201527f20686173206e6f7420796574206265656e206d696e7465642e00000000000000602082015250565b7f596f7520616c72656164792061726520746865206f776e6572206f662074686960008201527f7320706978656c2e000000000000000000000000000000000000000000000000602082015250565b7f546865206e6577207472616e73616374696f6e2066656520697320746865207360008201527f616d65206173207468652063757272656e74206f6e652e000000000000000000602082015250565b7f4552433732313a207472616e7366657220746f206e6f6e20455243373231526560008201527f63656976657220696d706c656d656e7465720000000000000000000000000000602082015250565b7f4f776e61626c653a206e6577206f776e657220697320746865207a65726f206160008201527f6464726573730000000000000000000000000000000000000000000000000000602082015250565b7f54686520636f6c6f7273206172726179206c656e67746820646f6573206e6f7460008201527f206d617463682074686520636f6f7264696e61746573206172726179206c656e60208201527f6774682e00000000000000000000000000000000000000000000000000000000604082015250565b7f4552433732313a20746f6b656e20616c7265616479206d696e74656400000000600082015250565b7f596f7520617265206e6f7420746865206f776e6572206f66207468697320706960008201527f78656c2e00000000000000000000000000000000000000000000000000000000602082015250565b7f546865206e657720636f6c6f7220616e6420707269636520617265207468652060008201527f73616d65206173207468652063757272656e74206f6e65732e00000000000000602082015250565b7f4552433732313a207472616e7366657220746f20746865207a65726f2061646460008201527f7265737300000000000000000000000000000000000000000000000000000000602082015250565b7f4552433732313a20617070726f766520746f2063616c6c657200000000000000600082015250565b7f5468652077656920707269636573206172726179206c656e67746820646f657360008201527f206e6f74206d617463682074686520636f6f7264696e6174657320617272617960208201527f206c656e6774682e000000000000000000000000000000000000000000000000604082015250565b7f4552433732313a206f70657261746f7220717565727920666f72206e6f6e657860008201527f697374656e7420746f6b656e0000000000000000000000000000000000000000602082015250565b7f436f6f7264696e61746520666f722074686520706978656c206973206f75742060008201527f6f66206c696d6974732e2030203c3d20636f6f7264696e617465203c2032353660208201527f202a203235360000000000000000000000000000000000000000000000000000604082015250565b7f496e76616c69642048455820636f6c6f7220636f64652e20456a3a202346463060008201527f3030300000000000000000000000000000000000000000000000000000000000602082015250565b7f4552433732313a20617070726f76652063616c6c6572206973206e6f74206f7760008201527f6e6572206e6f7220617070726f76656420666f7220616c6c0000000000000000602082015250565b7f5072696365206973206c6f776572207468616e2073656c6c696e67207072696360008201527f6500000000000000000000000000000000000000000000000000000000000000602082015250565b7f4552433732313a2062616c616e636520717565727920666f7220746865207a6560008201527f726f206164647265737300000000000000000000000000000000000000000000602082015250565b7f4552433732313a206f776e657220717565727920666f72206e6f6e657869737460008201527f656e7420746f6b656e0000000000000000000000000000000000000000000000602082015250565b7f4552433732313a206d696e7420746f20746865207a65726f2061646472657373600082015250565b7f4552433732313a20617070726f76656420717565727920666f72206e6f6e657860008201527f697374656e7420746f6b656e0000000000000000000000000000000000000000602082015250565b7f4f776e61626c653a2063616c6c6572206973206e6f7420746865206f776e6572600082015250565b7f4552433732313a207472616e73666572206f6620746f6b656e2074686174206960008201527f73206e6f74206f776e0000000000000000000000000000000000000000000000602082015250565b7f4552433732314d657461646174613a2055524920717565727920666f72206e6f60008201527f6e6578697374656e7420746f6b656e0000000000000000000000000000000000602082015250565b7f4552433732313a20617070726f76616c20746f2063757272656e74206f776e6560008201527f7200000000000000000000000000000000000000000000000000000000000000602082015250565b7f4552433732313a207472616e736665722063616c6c6572206973206e6f74206f60008201527f776e6572206e6f7220617070726f766564000000000000000000000000000000602082015250565b7f546865206e6577206261736520555249206973207468652073616d652061732060008201527f7468652063757272656e74206f6e652e00000000000000000000000000000000602082015250565b614f3281614488565b8114614f3d57600080fd5b50565b614f49816144ac565b8114614f5457600080fd5b50565b614f60816144b8565b8114614f6b57600080fd5b50565b614f7781614504565b8114614f8257600080fd5b5056fea264697066735822122061e15d2ae94f64f6a5cb0861430bf98fb75018a2efff8080784da852479417e864736f6c63430008040033",
  "immutableReferences": {},
  "source": "// SPDX-License-Identifier: MIT\r\npragma solidity ^0.8.0;\r\n\r\nimport \"./ERC721.sol\";\r\n\r\n/**\r\n    @title An image where each pixel is an NFT\r\n    @author Carles Rojas\r\n    @notice You can use this contract to change the color of your pixels, trade them or mint new ones (Up to a limit).\r\n*/\r\ncontract CryptoPlace is ERC721 {\r\n    // ##################################################################\r\n    //    MAIN FUNCTIONS\r\n    // ##################################################################\r\n\r\n    /**\r\n        @notice The constructor for the CryptoPlace contract\r\n    */\r\n    constructor() ERC721(\"Pixel\", \"PXL\") {}\r\n\r\n    /**\r\n        @notice Create a new pixel.\r\n        @param _coords The coordinates of the pixel being minted: coordinates = column * number_of_rows + row\r\n        @param _color The color the pixel will have once minted\r\n        @param _initialWeiPrice The selling price the pixel will have after being minted in wei\r\n    */\r\n    function mint(\r\n        uint256 _coords,\r\n        string memory _color,\r\n        uint256 _initialWeiPrice\r\n    ) public {\r\n        // Coords can not be bigger than the pixel limit\r\n        require(\r\n            _coords < PIXEL_LIMIT,\r\n            \"Coordinate for the pixel is out of limits. 0 <= coordinate < 256 * 256\"\r\n        );\r\n\r\n        // Only accept valid colors\r\n        require(isColor(_color), \"Invalid HEX color code. Ej: #FF0000\");\r\n\r\n        // Mint pixel\r\n        _mint(msg.sender, _coords);\r\n\r\n        // Add color and price to the the pixel\r\n        pixels[_coords] = Pixel(\r\n            _coords,\r\n            _color,\r\n            payable(msg.sender),\r\n            _initialWeiPrice\r\n        );\r\n    }\r\n\r\n    /**\r\n        @notice Create a batch of pixels\r\n        @param _coordsToMint An array of pixel  coordinates to be minted: coordinates = column * number_of_rows + row\r\n        @param _colors An array with colors for each pixel being minted\r\n        @param _initialWeiPrices An array with initial prices in wei for each pixel being minted\r\n    */\r\n    function mintBatch(\r\n        uint256[] memory _coordsToMint,\r\n        string[] memory _colors,\r\n        uint256[] memory _initialWeiPrices\r\n    ) public onlyOwner {\r\n        // The _coordsToMint array size has to match the _colors array size\r\n        require(\r\n            _coordsToMint.length == _colors.length,\r\n            \"The colors array length does not match the coordinates array length.\"\r\n        );\r\n\r\n        // The _coordsToMint array size has to match the _initialWeiPrices array size\r\n        require(\r\n            _coordsToMint.length == _initialWeiPrices.length,\r\n            \"The wei prices array length does not match the coordinates array length.\"\r\n        );\r\n\r\n        for (uint256 i = 0; i < _coordsToMint.length; i++) {\r\n            mint(_coordsToMint[i], _colors[i], _initialWeiPrices[i]);\r\n        }\r\n    }\r\n\r\n    /**\r\n        @notice Change the color and / or selling price of a pixel\r\n        @param _coords The coordinates of the pixel: coordinates = column * number_of_rows + row\r\n        @param _color The new color the pixel will have\r\n        @param _weiPrice The new wei price the pixel will have\r\n    */\r\n    function changeColorAndPrice(\r\n        uint256 _coords,\r\n        string memory _color,\r\n        uint256 _weiPrice\r\n    ) public {\r\n        // Do not change color if it does not exist\r\n        require(\r\n            _exists(_coords),\r\n            \"Invalid coordinates or the pixel has not yet been minted.\"\r\n        );\r\n\r\n        // Fetch the pixel\r\n        Pixel memory _pixel = pixels[_coords];\r\n\r\n        // Check that the owner is correct\r\n        require(\r\n            ownerOf(_coords) == msg.sender,\r\n            \"You are not the owner of this pixel.\"\r\n        );\r\n\r\n        // Only accept valid colors\r\n        require(isColor(_color), \"Invalid HEX color code. Ej: #FF0000\");\r\n\r\n        // Check that the color is different than the old one or the price is diferent from the old one\r\n        require(\r\n            !stringsAreEqual(_color, _pixel.color) ||\r\n                _weiPrice != _pixel.weiPrice,\r\n            \"The new color and price are the same as the current ones.\"\r\n        );\r\n\r\n        // Change color & price\r\n        _pixel.color = _color;\r\n        _pixel.weiPrice = _weiPrice;\r\n\r\n        // Save pixel\r\n        pixels[_coords] = _pixel;\r\n    }\r\n\r\n    /**\r\n        @notice Buy a pixel\r\n        @param _coords The coordinates of the pixel to buy: coordinates = column * number_of_rows + row\r\n        @param _color The new color the pixel will have after buying it\r\n        @param _weiPrice The new wei price the pixel will have after buying it\r\n    */\r\n    function buyPixel(\r\n        uint256 _coords,\r\n        string memory _color,\r\n        uint256 _weiPrice\r\n    ) public payable {\r\n        // Do not buy if it does not exist\r\n        require(\r\n            _exists(_coords),\r\n            \"Invalid coordinates or the pixel has not yet been minted.\"\r\n        );\r\n\r\n        // Fetch the pixel\r\n        Pixel memory _pixel = pixels[_coords];\r\n\r\n        // Check that the owner is not the buyer\r\n        require(\r\n            ownerOf(_coords) != msg.sender,\r\n            \"You already are the owner of this pixel.\"\r\n        );\r\n\r\n        // Only accept valid colors\r\n        require(isColor(_color), \"Invalid HEX color code. Ej: #FF0000\");\r\n\r\n        // Price must be higher than the required selling price\r\n        require(\r\n            msg.value >= _pixel.weiPrice,\r\n            \"Price is lower than selling price\"\r\n        );\r\n\r\n        // Transfer fee to owner\r\n        if (transctionFee > 0)\r\n            payable(owner()).transfer((msg.value * transctionFee) / 100);\r\n\r\n        // Transfer rest of price to seller\r\n        payable(ownerOf(_coords)).transfer(\r\n            msg.value - ((msg.value * transctionFee) / 100)\r\n        );\r\n\r\n        // Transfer pixel to buyer\r\n        _transfer(ownerOf(_coords), msg.sender, _coords);\r\n\r\n        // Change color & price\r\n        _pixel.color = _color;\r\n        _pixel.weiPrice = _weiPrice;\r\n        _pixel.owner = payable(msg.sender);\r\n\r\n        // Save pixel\r\n        pixels[_coords] = _pixel;\r\n    }\r\n\r\n    /**\r\n        @notice Set the new transaction fee for buying a pixel\r\n        @param _newTransactionFee The new base URI\r\n    */\r\n    function setTransctionFee(uint256 _newTransactionFee) public onlyOwner {\r\n        // Check that the Transaction Fee is different than the old one\r\n        require(\r\n            transctionFee != _newTransactionFee,\r\n            \"The new transaction fee is the same as the current one.\"\r\n        );\r\n\r\n        transctionFee = _newTransactionFee;\r\n    }\r\n}\r\n",
  "sourcePath": "/mnt/c/Users/Carles' PC/Documents/Repos/CryptoPlace/src/contracts/CryptoPlace.sol",
  "compiler": {
    "name": "solc",
    "version": "0.8.4+commit.c7e474f2.Emscripten.clang"
  },
  "schemaVersion": "3.4.1",
  "updatedAt": "2021-06-05T10:09:05.815Z",
  "networkType": "ethereum",
  "devdoc": {
    "author": "Carles Rojas",
    "kind": "dev",
    "methods": {
      "approve(address,uint256)": {
        "details": "See {IERC721-approve}."
      },
      "balanceOf(address)": {
        "details": "See {IERC721-balanceOf}."
      },
      "buyPixel(uint256,string,uint256)": {
        "params": {
          "_color": "The new color the pixel will have after buying it",
          "_coords": "The coordinates of the pixel to buy: coordinates = column * number_of_rows + row",
          "_weiPrice": "The new wei price the pixel will have after buying it"
        }
      },
      "changeColorAndPrice(uint256,string,uint256)": {
        "params": {
          "_color": "The new color the pixel will have",
          "_coords": "The coordinates of the pixel: coordinates = column * number_of_rows + row",
          "_weiPrice": "The new wei price the pixel will have"
        }
      },
      "getApproved(uint256)": {
        "details": "See {IERC721-getApproved}."
      },
      "isApprovedForAll(address,address)": {
        "details": "See {IERC721-isApprovedForAll}."
      },
      "isColor(string)": {
        "params": {
          "_color": "The HEX color code to check"
        },
        "returns": {
          "_0": "True if the string is a valid HEX color code"
        }
      },
      "mint(uint256,string,uint256)": {
        "params": {
          "_color": "The color the pixel will have once minted",
          "_coords": "The coordinates of the pixel being minted: coordinates = column * number_of_rows + row",
          "_initialWeiPrice": "The selling price the pixel will have after being minted in wei"
        }
      },
      "mintBatch(uint256[],string[],uint256[])": {
        "params": {
          "_colors": "An array with colors for each pixel being minted",
          "_coordsToMint": "An array of pixel  coordinates to be minted: coordinates = column * number_of_rows + row",
          "_initialWeiPrices": "An array with initial prices in wei for each pixel being minted"
        }
      },
      "name()": {
        "details": "See {IERC721Metadata-name}."
      },
      "owner()": {
        "details": "Returns the address of the current owner."
      },
      "ownerOf(uint256)": {
        "details": "See {IERC721-ownerOf}."
      },
      "paused()": {
        "details": "Returns true if the contract is paused, and false otherwise."
      },
      "renounceOwnership()": {
        "details": "Leaves the contract without owner. It will not be possible to call `onlyOwner` functions anymore. Can only be called by the current owner. NOTE: Renouncing ownership will leave the contract without an owner, thereby removing any functionality that is only available to the owner."
      },
      "safeTransferFrom(address,address,uint256)": {
        "details": "See {IERC721-safeTransferFrom}."
      },
      "safeTransferFrom(address,address,uint256,bytes)": {
        "details": "See {IERC721-safeTransferFrom}."
      },
      "setApprovalForAll(address,bool)": {
        "details": "See {IERC721-setApprovalForAll}."
      },
      "setBaseURI(string)": {
        "params": {
          "baseURI_": "The new base URI"
        }
      },
      "setTransctionFee(uint256)": {
        "params": {
          "_newTransactionFee": "The new base URI"
        }
      },
      "stringsAreEqual(string,string)": {
        "params": {
          "_s1": "The first string to compare",
          "_s2": "The second string to compare"
        },
        "returns": {
          "_0": "True if the strings are equal"
        }
      },
      "supportsInterface(bytes4)": {
        "details": "See {IERC165-supportsInterface}."
      },
      "symbol()": {
        "details": "See {IERC721Metadata-symbol}."
      },
      "tokenURI(uint256)": {
        "details": "See {IERC721Metadata-tokenURI}."
      },
      "transferFrom(address,address,uint256)": {
        "details": "See {IERC721-transferFrom}."
      },
      "transferOwnership(address)": {
        "details": "Transfers ownership of the contract to a new account (`newOwner`). Can only be called by the current owner."
      }
    },
    "title": "An image where each pixel is an NFT",
    "version": 1
  },
  "userdoc": {
    "kind": "user",
    "methods": {
      "buyPixel(uint256,string,uint256)": {
        "notice": "Buy a pixel"
      },
      "changeColorAndPrice(uint256,string,uint256)": {
        "notice": "Change the color and / or selling price of a pixel"
      },
      "constructor": {
        "notice": "The constructor for the CryptoPlace contract"
      },
      "isColor(string)": {
        "notice": "Checks if a color is a valid HEX color code"
      },
      "mint(uint256,string,uint256)": {
        "notice": "Create a new pixel."
      },
      "mintBatch(uint256[],string[],uint256[])": {
        "notice": "Create a batch of pixels"
      },
      "setBaseURI(string)": {
        "notice": "Set the new base URI for all the pixels"
      },
      "setTransctionFee(uint256)": {
        "notice": "Set the new transaction fee for buying a pixel"
      },
      "stringsAreEqual(string,string)": {
        "notice": "Checks if two strings are equal"
      }
    },
    "notice": "You can use this contract to change the color of your pixels, trade them or mint new ones (Up to a limit).",
    "version": 1
  }
}