{
  "contractName": "CryptoPlace",
  "abi": [
    {
      "inputs": [],
      "stateMutability": "nonpayable",
      "type": "constructor"
    },
    {
      "anonymous": false,
      "inputs": [
        {
          "indexed": true,
          "internalType": "address",
          "name": "owner",
          "type": "address"
        },
        {
          "indexed": true,
          "internalType": "address",
          "name": "approved",
          "type": "address"
        },
        {
          "indexed": true,
          "internalType": "uint256",
          "name": "tokenId",
          "type": "uint256"
        }
      ],
      "name": "Approval",
      "type": "event"
    },
    {
      "anonymous": false,
      "inputs": [
        {
          "indexed": true,
          "internalType": "address",
          "name": "owner",
          "type": "address"
        },
        {
          "indexed": true,
          "internalType": "address",
          "name": "operator",
          "type": "address"
        },
        {
          "indexed": false,
          "internalType": "bool",
          "name": "approved",
          "type": "bool"
        }
      ],
      "name": "ApprovalForAll",
      "type": "event"
    },
    {
      "anonymous": false,
      "inputs": [
        {
          "indexed": false,
          "internalType": "uint256",
          "name": "coords",
          "type": "uint256"
        },
        {
          "indexed": false,
          "internalType": "string",
          "name": "color",
          "type": "string"
        },
        {
          "indexed": false,
          "internalType": "address payable",
          "name": "author",
          "type": "address"
        },
        {
          "indexed": false,
          "internalType": "bool",
          "name": "exists",
          "type": "bool"
        }
      ],
      "name": "PixelColorChanged",
      "type": "event"
    },
    {
      "anonymous": false,
      "inputs": [
        {
          "indexed": true,
          "internalType": "address",
          "name": "from",
          "type": "address"
        },
        {
          "indexed": true,
          "internalType": "address",
          "name": "to",
          "type": "address"
        },
        {
          "indexed": true,
          "internalType": "uint256",
          "name": "tokenId",
          "type": "uint256"
        }
      ],
      "name": "Transfer",
      "type": "event"
    },
    {
      "inputs": [
        {
          "internalType": "address",
          "name": "to",
          "type": "address"
        },
        {
          "internalType": "uint256",
          "name": "tokenId",
          "type": "uint256"
        }
      ],
      "name": "approve",
      "outputs": [],
      "stateMutability": "nonpayable",
      "type": "function"
    },
    {
      "inputs": [
        {
          "internalType": "address",
          "name": "owner",
          "type": "address"
        }
      ],
      "name": "balanceOf",
      "outputs": [
        {
          "internalType": "uint256",
          "name": "",
          "type": "uint256"
        }
      ],
      "stateMutability": "view",
      "type": "function",
      "constant": true
    },
    {
      "inputs": [
        {
          "internalType": "uint256",
          "name": "tokenId",
          "type": "uint256"
        }
      ],
      "name": "getApproved",
      "outputs": [
        {
          "internalType": "address",
          "name": "",
          "type": "address"
        }
      ],
      "stateMutability": "view",
      "type": "function",
      "constant": true
    },
    {
      "inputs": [
        {
          "internalType": "address",
          "name": "owner",
          "type": "address"
        },
        {
          "internalType": "address",
          "name": "operator",
          "type": "address"
        }
      ],
      "name": "isApprovedForAll",
      "outputs": [
        {
          "internalType": "bool",
          "name": "",
          "type": "bool"
        }
      ],
      "stateMutability": "view",
      "type": "function",
      "constant": true
    },
    {
      "inputs": [
        {
          "internalType": "uint256",
          "name": "",
          "type": "uint256"
        }
      ],
      "name": "mintedPixels",
      "outputs": [
        {
          "internalType": "uint256",
          "name": "",
          "type": "uint256"
        }
      ],
      "stateMutability": "view",
      "type": "function",
      "constant": true
    },
    {
      "inputs": [],
      "name": "name",
      "outputs": [
        {
          "internalType": "string",
          "name": "",
          "type": "string"
        }
      ],
      "stateMutability": "view",
      "type": "function",
      "constant": true
    },
    {
      "inputs": [],
      "name": "numRows",
      "outputs": [
        {
          "internalType": "uint256",
          "name": "",
          "type": "uint256"
        }
      ],
      "stateMutability": "view",
      "type": "function",
      "constant": true
    },
    {
      "inputs": [],
      "name": "owner",
      "outputs": [
        {
          "internalType": "address",
          "name": "",
          "type": "address"
        }
      ],
      "stateMutability": "view",
      "type": "function",
      "constant": true
    },
    {
      "inputs": [
        {
          "internalType": "uint256",
          "name": "tokenId",
          "type": "uint256"
        }
      ],
      "name": "ownerOf",
      "outputs": [
        {
          "internalType": "address",
          "name": "",
          "type": "address"
        }
      ],
      "stateMutability": "view",
      "type": "function",
      "constant": true
    },
    {
      "inputs": [],
      "name": "pixelCount",
      "outputs": [
        {
          "internalType": "uint256",
          "name": "",
          "type": "uint256"
        }
      ],
      "stateMutability": "view",
      "type": "function",
      "constant": true
    },
    {
      "inputs": [],
      "name": "pixelLimit",
      "outputs": [
        {
          "internalType": "uint256",
          "name": "",
          "type": "uint256"
        }
      ],
      "stateMutability": "view",
      "type": "function",
      "constant": true
    },
    {
      "inputs": [
        {
          "internalType": "uint256",
          "name": "",
          "type": "uint256"
        }
      ],
      "name": "pixels",
      "outputs": [
        {
          "internalType": "uint256",
          "name": "coords",
          "type": "uint256"
        },
        {
          "internalType": "string",
          "name": "color",
          "type": "string"
        },
        {
          "internalType": "address payable",
          "name": "author",
          "type": "address"
        },
        {
          "internalType": "bool",
          "name": "exists",
          "type": "bool"
        }
      ],
      "stateMutability": "view",
      "type": "function",
      "constant": true
    },
    {
      "inputs": [
        {
          "internalType": "address",
          "name": "from",
          "type": "address"
        },
        {
          "internalType": "address",
          "name": "to",
          "type": "address"
        },
        {
          "internalType": "uint256",
          "name": "tokenId",
          "type": "uint256"
        }
      ],
      "name": "safeTransferFrom",
      "outputs": [],
      "stateMutability": "nonpayable",
      "type": "function"
    },
    {
      "inputs": [
        {
          "internalType": "address",
          "name": "from",
          "type": "address"
        },
        {
          "internalType": "address",
          "name": "to",
          "type": "address"
        },
        {
          "internalType": "uint256",
          "name": "tokenId",
          "type": "uint256"
        },
        {
          "internalType": "bytes",
          "name": "_data",
          "type": "bytes"
        }
      ],
      "name": "safeTransferFrom",
      "outputs": [],
      "stateMutability": "nonpayable",
      "type": "function"
    },
    {
      "inputs": [
        {
          "internalType": "address",
          "name": "operator",
          "type": "address"
        },
        {
          "internalType": "bool",
          "name": "approved",
          "type": "bool"
        }
      ],
      "name": "setApprovalForAll",
      "outputs": [],
      "stateMutability": "nonpayable",
      "type": "function"
    },
    {
      "inputs": [
        {
          "internalType": "bytes4",
          "name": "interfaceId",
          "type": "bytes4"
        }
      ],
      "name": "supportsInterface",
      "outputs": [
        {
          "internalType": "bool",
          "name": "",
          "type": "bool"
        }
      ],
      "stateMutability": "view",
      "type": "function",
      "constant": true
    },
    {
      "inputs": [],
      "name": "symbol",
      "outputs": [
        {
          "internalType": "string",
          "name": "",
          "type": "string"
        }
      ],
      "stateMutability": "view",
      "type": "function",
      "constant": true
    },
    {
      "inputs": [
        {
          "internalType": "uint256",
          "name": "tokenId",
          "type": "uint256"
        }
      ],
      "name": "tokenURI",
      "outputs": [
        {
          "internalType": "string",
          "name": "",
          "type": "string"
        }
      ],
      "stateMutability": "view",
      "type": "function",
      "constant": true
    },
    {
      "inputs": [
        {
          "internalType": "address",
          "name": "from",
          "type": "address"
        },
        {
          "internalType": "address",
          "name": "to",
          "type": "address"
        },
        {
          "internalType": "uint256",
          "name": "tokenId",
          "type": "uint256"
        }
      ],
      "name": "transferFrom",
      "outputs": [],
      "stateMutability": "nonpayable",
      "type": "function"
    },
    {
      "inputs": [
        {
          "internalType": "uint256",
          "name": "_coord",
          "type": "uint256"
        },
        {
          "internalType": "string",
          "name": "_color",
          "type": "string"
        }
      ],
      "name": "mint",
      "outputs": [],
      "stateMutability": "nonpayable",
      "type": "function"
    },
    {
      "inputs": [
        {
          "internalType": "uint256[]",
          "name": "coordsToMint",
          "type": "uint256[]"
        },
        {
          "internalType": "string[]",
          "name": "colors",
          "type": "string[]"
        }
      ],
      "name": "mintBatch",
      "outputs": [],
      "stateMutability": "nonpayable",
      "type": "function"
    },
    {
      "inputs": [
        {
          "internalType": "uint256",
          "name": "_coord",
          "type": "uint256"
        },
        {
          "internalType": "string",
          "name": "_color",
          "type": "string"
        }
      ],
      "name": "changeColor",
      "outputs": [],
      "stateMutability": "nonpayable",
      "type": "function"
    },
    {
      "inputs": [
        {
          "internalType": "string",
          "name": "s1",
          "type": "string"
        },
        {
          "internalType": "string",
          "name": "s2",
          "type": "string"
        }
      ],
      "name": "stringsAreEqual",
      "outputs": [
        {
          "internalType": "bool",
          "name": "",
          "type": "bool"
        }
      ],
      "stateMutability": "pure",
      "type": "function",
      "constant": true
    },
    {
      "inputs": [
        {
          "internalType": "string",
          "name": "_color",
          "type": "string"
        }
      ],
      "name": "isColor",
      "outputs": [
        {
          "internalType": "bool",
          "name": "",
          "type": "bool"
        }
      ],
      "stateMutability": "pure",
      "type": "function",
      "constant": true
    },
    {
      "inputs": [
        {
          "internalType": "string",
          "name": "baseURI_",
          "type": "string"
        }
      ],
      "name": "setBaseURI",
      "outputs": [],
      "stateMutability": "nonpayable",
      "type": "function"
    }
  ],
  "bytecode": "0x608060405233600b60006101000a81548173ffffffffffffffffffffffffffffffffffffffff021916908373ffffffffffffffffffffffffffffffffffffffff1602179055503480156200005257600080fd5b506040518060400160405280600581526020017f506978656c0000000000000000000000000000000000000000000000000000008152506040518060400160405280600381526020017f50584c00000000000000000000000000000000000000000000000000000000008152508160009080519060200190620000d79291906200010c565b508060019080519060200190620000f09291906200010c565b5050506102006006819055506204000060088190555062000221565b8280546200011a90620001bc565b90600052602060002090601f0160209004810192826200013e57600085556200018a565b82601f106200015957805160ff19168380011785556200018a565b828001600101855582156200018a579182015b82811115620001895782518255916020019190600101906200016c565b5b5090506200019991906200019d565b5090565b5b80821115620001b85760008160009055506001016200019e565b5090565b60006002820490506001821680620001d557607f821691505b60208210811415620001ec57620001eb620001f2565b5b50919050565b7f4e487b7100000000000000000000000000000000000000000000000000000000600052602260045260246000fd5b61382780620002316000396000f3fe608060405234801561001057600080fd5b50600436106101735760003560e01c806377097fc8116100de578063b88d4fde11610097578063cf68d97e11610071578063cf68d97e14610471578063df57a8f41461048d578063e985e9c5146104ab578063fe7fdced146104db57610173565b8063b88d4fde14610407578063c87b56dd14610423578063c9be7bb51461045357610173565b806377097fc8146103445780638da5cb5b146103605780638da7f2321461037e57806395d89b41146103b15780639b500d9c146103cf578063a22cb465146103eb57610173565b806342842e0e1161013057806342842e0e1461025e57806355f804b31461027a5780636352211e146102965780636f633340146102c657806370a08231146102f657806373d3e6d71461032657610173565b806301ffc9a71461017857806306fdde03146101a8578063081812fc146101c6578063095ea7b3146101f657806323b872dd1461021257806335280abb1461022e575b600080fd5b610192600480360381019061018d919061281b565b61050b565b60405161019f9190612d02565b60405180910390f35b6101b06105ed565b6040516101bd9190612d1d565b60405180910390f35b6101e060048036038101906101db919061291a565b61067f565b6040516101ed9190612c9b565b60405180910390f35b610210600480360381019061020b9190612773565b610704565b005b61022c6004803603810190610227919061266d565b61081c565b005b6102486004803603810190610243919061291a565b61087c565b6040516102559190612eff565b60405180910390f35b6102786004803603810190610273919061266d565b6108a0565b005b610294600480360381019061028f919061286d565b6108c0565b005b6102b060048036038101906102ab919061291a565b6109d4565b6040516102bd9190612c9b565b60405180910390f35b6102e060048036038101906102db91906128ae565b610a86565b6040516102ed9190612d02565b60405180910390f35b610310600480360381019061030b9190612608565b610adf565b60405161031d9190612eff565b60405180910390f35b61032e610b97565b60405161033b9190612eff565b60405180910390f35b61035e60048036038101906103599190612943565b610b9d565b005b610368610d18565b6040516103759190612c9b565b60405180910390f35b6103986004803603810190610393919061291a565b610d3e565b6040516103a89493929190612f1a565b60405180910390f35b6103b9610e23565b6040516103c69190612d1d565b60405180910390f35b6103e960048036038101906103e491906127af565b610eb5565b005b61040560048036038101906104009190612737565b610fcd565b005b610421600480360381019061041c91906126bc565b61114e565b005b61043d6004803603810190610438919061291a565b6111b0565b60405161044a9190612d1d565b60405180910390f35b61045b611257565b6040516104689190612eff565b60405180910390f35b61048b60048036038101906104869190612943565b61125d565b005b61049561151f565b6040516104a29190612eff565b60405180910390f35b6104c560048036038101906104c09190612631565b611525565b6040516104d29190612d02565b60405180910390f35b6104f560048036038101906104f0919061286d565b6115b9565b6040516105029190612d02565b60405180910390f35b60007f80ac58cd000000000000000000000000000000000000000000000000000000007bffffffffffffffffffffffffffffffffffffffffffffffffffffffff1916827bffffffffffffffffffffffffffffffffffffffffffffffffffffffff191614806105d657507f5b5e139f000000000000000000000000000000000000000000000000000000007bffffffffffffffffffffffffffffffffffffffffffffffffffffffff1916827bffffffffffffffffffffffffffffffffffffffffffffffffffffffff1916145b806105e657506105e5826117fd565b5b9050919050565b6060600080546105fc9061320b565b80601f01602080910402602001604051908101604052809291908181526020018280546106289061320b565b80156106755780601f1061064a57610100808354040283529160200191610675565b820191906000526020600020905b81548152906001019060200180831161065857829003601f168201915b5050505050905090565b600061068a82611867565b6106c9576040517f08c379a00000000000000000000000000000000000000000000000000000000081526004016106c090612e5f565b60405180910390fd5b6004600083815260200190815260200160002060009054906101000a900473ffffffffffffffffffffffffffffffffffffffff169050919050565b600061070f826109d4565b90508073ffffffffffffffffffffffffffffffffffffffff168373ffffffffffffffffffffffffffffffffffffffff161415610780576040517f08c379a000000000000000000000000000000000000000000000000000000000815260040161077790612ebf565b60405180910390fd5b8073ffffffffffffffffffffffffffffffffffffffff1661079f6118d3565b73ffffffffffffffffffffffffffffffffffffffff1614806107ce57506107cd816107c86118d3565b611525565b5b61080d576040517f08c379a000000000000000000000000000000000000000000000000000000000815260040161080490612ddf565b60405180910390fd5b61081783836118db565b505050565b61082d6108276118d3565b82611994565b61086c576040517f08c379a000000000000000000000000000000000000000000000000000000000815260040161086390612edf565b60405180910390fd5b610877838383611a72565b505050565b6009818154811061088c57600080fd5b906000526020600020016000915090505481565b6108bb8383836040518060200160405280600081525061114e565b505050565b600b60009054906101000a900473ffffffffffffffffffffffffffffffffffffffff168073ffffffffffffffffffffffffffffffffffffffff163373ffffffffffffffffffffffffffffffffffffffff161461091b57600080fd5b6109af600c805461092b9061320b565b80601f01602080910402602001604051908101604052809291908181526020018280546109579061320b565b80156109a45780601f10610979576101008083540402835291602001916109a4565b820191906000526020600020905b81548152906001019060200180831161098757829003601f168201915b505050505083610a86565b156109b957600080fd5b81600c90805190602001906109cf9291906122e6565b505050565b6000806002600084815260200190815260200160002060009054906101000a900473ffffffffffffffffffffffffffffffffffffffff169050600073ffffffffffffffffffffffffffffffffffffffff168173ffffffffffffffffffffffffffffffffffffffff161415610a7d576040517f08c379a0000000000000000000000000000000000000000000000000000000008152600401610a7490612e1f565b60405180910390fd5b80915050919050565b600081604051602001610a999190612c60565b6040516020818303038152906040528051906020012083604051602001610ac09190612c60565b6040516020818303038152906040528051906020012014905092915050565b60008073ffffffffffffffffffffffffffffffffffffffff168273ffffffffffffffffffffffffffffffffffffffff161415610b50576040517f08c379a0000000000000000000000000000000000000000000000000000000008152600401610b4790612dff565b60405180910390fd5b600360008373ffffffffffffffffffffffffffffffffffffffff1673ffffffffffffffffffffffffffffffffffffffff168152602001908152602001600020549050919050565b60075481565b600a600083815260200190815260200160002060020160149054906101000a900460ff1615610bcb57600080fd5b6008548210610bd957600080fd5b610be2816115b9565b610beb57600080fd5b60076000815480929190610bfe9061326e565b9190505550610c0d3383611cce565b600982908060018154018082558091505060019003906000526020600020016000909190919091505560405180608001604052808381526020018281526020013373ffffffffffffffffffffffffffffffffffffffff16815260200160011515815250600a6000848152602001908152602001600020600082015181600001556020820151816001019080519060200190610ca99291906122e6565b5060408201518160020160006101000a81548173ffffffffffffffffffffffffffffffffffffffff021916908373ffffffffffffffffffffffffffffffffffffffff16021790555060608201518160020160146101000a81548160ff0219169083151502179055509050505050565b600b60009054906101000a900473ffffffffffffffffffffffffffffffffffffffff1681565b600a602052806000526040600020600091509050806000015490806001018054610d679061320b565b80601f0160208091040260200160405190810160405280929190818152602001828054610d939061320b565b8015610de05780601f10610db557610100808354040283529160200191610de0565b820191906000526020600020905b815481529060010190602001808311610dc357829003601f168201915b5050505050908060020160009054906101000a900473ffffffffffffffffffffffffffffffffffffffff16908060020160149054906101000a900460ff16905084565b606060018054610e329061320b565b80601f0160208091040260200160405190810160405280929190818152602001828054610e5e9061320b565b8015610eab5780601f10610e8057610100808354040283529160200191610eab565b820191906000526020600020905b815481529060010190602001808311610e8e57829003601f168201915b5050505050905090565b600b60009054906101000a900473ffffffffffffffffffffffffffffffffffffffff168073ffffffffffffffffffffffffffffffffffffffff163373ffffffffffffffffffffffffffffffffffffffff1614610f1057600080fd5b8151835114610f1e57600080fd5b60005b8351811015610fc757610fb4848281518110610f66577f4e487b7100000000000000000000000000000000000000000000000000000000600052603260045260246000fd5b6020026020010151848381518110610fa7577f4e487b7100000000000000000000000000000000000000000000000000000000600052603260045260246000fd5b6020026020010151610b9d565b8080610fbf9061326e565b915050610f21565b50505050565b610fd56118d3565b73ffffffffffffffffffffffffffffffffffffffff168273ffffffffffffffffffffffffffffffffffffffff161415611043576040517f08c379a000000000000000000000000000000000000000000000000000000000815260040161103a90612d9f565b60405180910390fd5b80600560006110506118d3565b73ffffffffffffffffffffffffffffffffffffffff1673ffffffffffffffffffffffffffffffffffffffff16815260200190815260200160002060008473ffffffffffffffffffffffffffffffffffffffff1673ffffffffffffffffffffffffffffffffffffffff16815260200190815260200160002060006101000a81548160ff0219169083151502179055508173ffffffffffffffffffffffffffffffffffffffff166110fd6118d3565b73ffffffffffffffffffffffffffffffffffffffff167f17307eab39ab6107e8899845ad3d59bd9653f200f220920489ca2b5937696c31836040516111429190612d02565b60405180910390a35050565b61115f6111596118d3565b83611994565b61119e576040517f08c379a000000000000000000000000000000000000000000000000000000000815260040161119590612edf565b60405180910390fd5b6111aa84848484611e9c565b50505050565b60606111bb82611867565b6111fa576040517f08c379a00000000000000000000000000000000000000000000000000000000081526004016111f190612e9f565b60405180910390fd5b6000611204611ef8565b90506000815111611224576040518060200160405280600081525061124f565b8061122e84611f8a565b60405160200161123f929190612c77565b6040516020818303038152906040525b915050919050565b60065481565b600a600083815260200190815260200160002060020160149054906101000a900460ff1661128a57600080fd5b6000600a6000848152602001908152602001600020604051806080016040529081600082015481526020016001820180546112c49061320b565b80601f01602080910402602001604051908101604052809291908181526020018280546112f09061320b565b801561133d5780601f106113125761010080835404028352916020019161133d565b820191906000526020600020905b81548152906001019060200180831161132057829003601f168201915b505050505081526020016002820160009054906101000a900473ffffffffffffffffffffffffffffffffffffffff1673ffffffffffffffffffffffffffffffffffffffff1673ffffffffffffffffffffffffffffffffffffffff1681526020016002820160149054906101000a900460ff16151515158152505090503373ffffffffffffffffffffffffffffffffffffffff16816040015173ffffffffffffffffffffffffffffffffffffffff16146113f557600080fd5b6113fe826115b9565b61140757600080fd5b611415828260200151610a86565b1561141f57600080fd5b81816020018190525080600a60008581526020019081526020016000206000820151816000015560208201518160010190805190602001906114629291906122e6565b5060408201518160020160006101000a81548173ffffffffffffffffffffffffffffffffffffffff021916908373ffffffffffffffffffffffffffffffffffffffff16021790555060608201518160020160146101000a81548160ff0219169083151502179055509050507fe7747985b747283d355fea91473aab3f6969998e081299f62b02c5bbb67917c581600001518260200151836040015184606001516040516115129493929190612f1a565b60405180910390a1505050565b60085481565b6000600560008473ffffffffffffffffffffffffffffffffffffffff1673ffffffffffffffffffffffffffffffffffffffff16815260200190815260200160002060008373ffffffffffffffffffffffffffffffffffffffff1673ffffffffffffffffffffffffffffffffffffffff16815260200190815260200160002060009054906101000a900460ff16905092915050565b60008082905060078151146115d25760009150506117f8565b602360f81b81600081518110611611577f4e487b7100000000000000000000000000000000000000000000000000000000600052603260045260246000fd5b602001015160f81c60f81b7effffffffffffffffffffffffffffffffffffffffffffffffffffffffffffff19161461164d5760009150506117f8565b6000600190505b81518110156117f1576000828281518110611698577f4e487b7100000000000000000000000000000000000000000000000000000000600052603260045260246000fd5b602001015160f81c60f81b9050603060f81b817effffffffffffffffffffffffffffffffffffffffffffffffffffffffffffff1916101580156117015750603960f81b817effffffffffffffffffffffffffffffffffffffffffffffffffffffffffffff191611155b1580156117675750604160f81b817effffffffffffffffffffffffffffffffffffffffffffffffffffffffffffff1916101580156117655750604660f81b817effffffffffffffffffffffffffffffffffffffffffffffffffffffffffffff191611155b155b80156117cc5750606160f81b817effffffffffffffffffffffffffffffffffffffffffffffffffffffffffffff1916101580156117ca5750606660f81b817effffffffffffffffffffffffffffffffffffffffffffffffffffffffffffff191611155b155b156117dd57600093505050506117f8565b5080806117e99061326e565b915050611654565b5060019150505b919050565b60007f01ffc9a7000000000000000000000000000000000000000000000000000000007bffffffffffffffffffffffffffffffffffffffffffffffffffffffff1916827bffffffffffffffffffffffffffffffffffffffffffffffffffffffff1916149050919050565b60008073ffffffffffffffffffffffffffffffffffffffff166002600084815260200190815260200160002060009054906101000a900473ffffffffffffffffffffffffffffffffffffffff1673ffffffffffffffffffffffffffffffffffffffff1614159050919050565b600033905090565b816004600083815260200190815260200160002060006101000a81548173ffffffffffffffffffffffffffffffffffffffff021916908373ffffffffffffffffffffffffffffffffffffffff160217905550808273ffffffffffffffffffffffffffffffffffffffff1661194e836109d4565b73ffffffffffffffffffffffffffffffffffffffff167f8c5be1e5ebec7d5bd14f71427d1e84f3dd0314c0f7b2291e5b200ac8c7c3b92560405160405180910390a45050565b600061199f82611867565b6119de576040517f08c379a00000000000000000000000000000000000000000000000000000000081526004016119d590612dbf565b60405180910390fd5b60006119e9836109d4565b90508073ffffffffffffffffffffffffffffffffffffffff168473ffffffffffffffffffffffffffffffffffffffff161480611a5857508373ffffffffffffffffffffffffffffffffffffffff16611a408461067f565b73ffffffffffffffffffffffffffffffffffffffff16145b80611a695750611a688185611525565b5b91505092915050565b8273ffffffffffffffffffffffffffffffffffffffff16611a92826109d4565b73ffffffffffffffffffffffffffffffffffffffff1614611ae8576040517f08c379a0000000000000000000000000000000000000000000000000000000008152600401611adf90612e7f565b60405180910390fd5b600073ffffffffffffffffffffffffffffffffffffffff168273ffffffffffffffffffffffffffffffffffffffff161415611b58576040517f08c379a0000000000000000000000000000000000000000000000000000000008152600401611b4f90612d7f565b60405180910390fd5b611b63838383612137565b611b6e6000826118db565b6001600360008573ffffffffffffffffffffffffffffffffffffffff1673ffffffffffffffffffffffffffffffffffffffff1681526020019081526020016000206000828254611bbe919061310f565b925050819055506001600360008473ffffffffffffffffffffffffffffffffffffffff1673ffffffffffffffffffffffffffffffffffffffff1681526020019081526020016000206000828254611c159190613088565b92505081905550816002600083815260200190815260200160002060006101000a81548173ffffffffffffffffffffffffffffffffffffffff021916908373ffffffffffffffffffffffffffffffffffffffff160217905550808273ffffffffffffffffffffffffffffffffffffffff168473ffffffffffffffffffffffffffffffffffffffff167fddf252ad1be2c89b69c2b068fc378daa952ba7f163c4a11628f55a4df523b3ef60405160405180910390a4505050565b600073ffffffffffffffffffffffffffffffffffffffff168273ffffffffffffffffffffffffffffffffffffffff161415611d3e576040517f08c379a0000000000000000000000000000000000000000000000000000000008152600401611d3590612e3f565b60405180910390fd5b611d4781611867565b15611d87576040517f08c379a0000000000000000000000000000000000000000000000000000000008152600401611d7e90612d5f565b60405180910390fd5b611d9360008383612137565b6001600360008473ffffffffffffffffffffffffffffffffffffffff1673ffffffffffffffffffffffffffffffffffffffff1681526020019081526020016000206000828254611de39190613088565b92505081905550816002600083815260200190815260200160002060006101000a81548173ffffffffffffffffffffffffffffffffffffffff021916908373ffffffffffffffffffffffffffffffffffffffff160217905550808273ffffffffffffffffffffffffffffffffffffffff16600073ffffffffffffffffffffffffffffffffffffffff167fddf252ad1be2c89b69c2b068fc378daa952ba7f163c4a11628f55a4df523b3ef60405160405180910390a45050565b611ea7848484611a72565b611eb38484848461213c565b611ef2576040517f08c379a0000000000000000000000000000000000000000000000000000000008152600401611ee990612d3f565b60405180910390fd5b50505050565b6060600c8054611f079061320b565b80601f0160208091040260200160405190810160405280929190818152602001828054611f339061320b565b8015611f805780601f10611f5557610100808354040283529160200191611f80565b820191906000526020600020905b815481529060010190602001808311611f6357829003601f168201915b5050505050905090565b60606000821415611fd2576040518060400160405280600181526020017f30000000000000000000000000000000000000000000000000000000000000008152509050612132565b600082905060005b60008214612004578080611fed9061326e565b915050600a82611ffd91906130de565b9150611fda565b60008167ffffffffffffffff811115612046577f4e487b7100000000000000000000000000000000000000000000000000000000600052604160045260246000fd5b6040519080825280601f01601f1916602001820160405280156120785781602001600182028036833780820191505090505b5090505b6000851461212b57600182612091919061310f565b9150600a856120a091906132b7565b60306120ac9190613088565b60f81b8183815181106120e8577f4e487b7100000000000000000000000000000000000000000000000000000000600052603260045260246000fd5b60200101907effffffffffffffffffffffffffffffffffffffffffffffffffffffffffffff1916908160001a905350600a8561212491906130de565b945061207c565b8093505050505b919050565b505050565b600061215d8473ffffffffffffffffffffffffffffffffffffffff166122d3565b156122c6578373ffffffffffffffffffffffffffffffffffffffff1663150b7a026121866118d3565b8786866040518563ffffffff1660e01b81526004016121a89493929190612cb6565b602060405180830381600087803b1580156121c257600080fd5b505af19250505080156121f357506040513d601f19601f820116820180604052508101906121f09190612844565b60015b612276573d8060008114612223576040519150601f19603f3d011682016040523d82523d6000602084013e612228565b606091505b5060008151141561226e576040517f08c379a000000000000000000000000000000000000000000000000000000000815260040161226590612d3f565b60405180910390fd5b805181602001fd5b63150b7a0260e01b7bffffffffffffffffffffffffffffffffffffffffffffffffffffffff1916817bffffffffffffffffffffffffffffffffffffffffffffffffffffffff1916149150506122cb565b600190505b949350505050565b600080823b905060008111915050919050565b8280546122f29061320b565b90600052602060002090601f016020900481019282612314576000855561235b565b82601f1061232d57805160ff191683800117855561235b565b8280016001018555821561235b579182015b8281111561235a57825182559160200191906001019061233f565b5b509050612368919061236c565b5090565b5b8082111561238557600081600090555060010161236d565b5090565b600061239c61239784612f8b565b612f66565b905080838252602082019050828560208602820111156123bb57600080fd5b60005b8581101561240557813567ffffffffffffffff8111156123dd57600080fd5b8086016123ea89826125c9565b855260208501945060208401935050506001810190506123be565b5050509392505050565b600061242261241d84612fb7565b612f66565b9050808382526020820190508285602086028201111561244157600080fd5b60005b85811015612471578161245788826125f3565b845260208401935060208301925050600181019050612444565b5050509392505050565b600061248e61248984612fe3565b612f66565b9050828152602081018484840111156124a657600080fd5b6124b18482856131c9565b509392505050565b60006124cc6124c784613014565b612f66565b9050828152602081018484840111156124e457600080fd5b6124ef8482856131c9565b509392505050565b60008135905061250681613795565b92915050565b600082601f83011261251d57600080fd5b813561252d848260208601612389565b91505092915050565b600082601f83011261254757600080fd5b813561255784826020860161240f565b91505092915050565b60008135905061256f816137ac565b92915050565b600081359050612584816137c3565b92915050565b600081519050612599816137c3565b92915050565b600082601f8301126125b057600080fd5b81356125c084826020860161247b565b91505092915050565b600082601f8301126125da57600080fd5b81356125ea8482602086016124b9565b91505092915050565b600081359050612602816137da565b92915050565b60006020828403121561261a57600080fd5b6000612628848285016124f7565b91505092915050565b6000806040838503121561264457600080fd5b6000612652858286016124f7565b9250506020612663858286016124f7565b9150509250929050565b60008060006060848603121561268257600080fd5b6000612690868287016124f7565b93505060206126a1868287016124f7565b92505060406126b2868287016125f3565b9150509250925092565b600080600080608085870312156126d257600080fd5b60006126e0878288016124f7565b94505060206126f1878288016124f7565b9350506040612702878288016125f3565b925050606085013567ffffffffffffffff81111561271f57600080fd5b61272b8782880161259f565b91505092959194509250565b6000806040838503121561274a57600080fd5b6000612758858286016124f7565b925050602061276985828601612560565b9150509250929050565b6000806040838503121561278657600080fd5b6000612794858286016124f7565b92505060206127a5858286016125f3565b9150509250929050565b600080604083850312156127c257600080fd5b600083013567ffffffffffffffff8111156127dc57600080fd5b6127e885828601612536565b925050602083013567ffffffffffffffff81111561280557600080fd5b6128118582860161250c565b9150509250929050565b60006020828403121561282d57600080fd5b600061283b84828501612575565b91505092915050565b60006020828403121561285657600080fd5b60006128648482850161258a565b91505092915050565b60006020828403121561287f57600080fd5b600082013567ffffffffffffffff81111561289957600080fd5b6128a5848285016125c9565b91505092915050565b600080604083850312156128c157600080fd5b600083013567ffffffffffffffff8111156128db57600080fd5b6128e7858286016125c9565b925050602083013567ffffffffffffffff81111561290457600080fd5b612910858286016125c9565b9150509250929050565b60006020828403121561292c57600080fd5b600061293a848285016125f3565b91505092915050565b6000806040838503121561295657600080fd5b6000612964858286016125f3565b925050602083013567ffffffffffffffff81111561298157600080fd5b61298d858286016125c9565b9150509250929050565b6129a081613155565b82525050565b6129af81613143565b82525050565b6129be81613167565b82525050565b60006129cf82613045565b6129d9818561305b565b93506129e98185602086016131d8565b6129f2816133a4565b840191505092915050565b6000612a0882613050565b612a12818561306c565b9350612a228185602086016131d8565b612a2b816133a4565b840191505092915050565b6000612a4182613050565b612a4b818561307d565b9350612a5b8185602086016131d8565b80840191505092915050565b6000612a7460328361306c565b9150612a7f826133b5565b604082019050919050565b6000612a97601c8361306c565b9150612aa282613404565b602082019050919050565b6000612aba60248361306c565b9150612ac58261342d565b604082019050919050565b6000612add60198361306c565b9150612ae88261347c565b602082019050919050565b6000612b00602c8361306c565b9150612b0b826134a5565b604082019050919050565b6000612b2360388361306c565b9150612b2e826134f4565b604082019050919050565b6000612b46602a8361306c565b9150612b5182613543565b604082019050919050565b6000612b6960298361306c565b9150612b7482613592565b604082019050919050565b6000612b8c60208361306c565b9150612b97826135e1565b602082019050919050565b6000612baf602c8361306c565b9150612bba8261360a565b604082019050919050565b6000612bd260298361306c565b9150612bdd82613659565b604082019050919050565b6000612bf5602f8361306c565b9150612c00826136a8565b604082019050919050565b6000612c1860218361306c565b9150612c23826136f7565b604082019050919050565b6000612c3b60318361306c565b9150612c4682613746565b604082019050919050565b612c5a816131bf565b82525050565b6000612c6c8284612a36565b915081905092915050565b6000612c838285612a36565b9150612c8f8284612a36565b91508190509392505050565b6000602082019050612cb060008301846129a6565b92915050565b6000608082019050612ccb60008301876129a6565b612cd860208301866129a6565b612ce56040830185612c51565b8181036060830152612cf781846129c4565b905095945050505050565b6000602082019050612d1760008301846129b5565b92915050565b60006020820190508181036000830152612d3781846129fd565b905092915050565b60006020820190508181036000830152612d5881612a67565b9050919050565b60006020820190508181036000830152612d7881612a8a565b9050919050565b60006020820190508181036000830152612d9881612aad565b9050919050565b60006020820190508181036000830152612db881612ad0565b9050919050565b60006020820190508181036000830152612dd881612af3565b9050919050565b60006020820190508181036000830152612df881612b16565b9050919050565b60006020820190508181036000830152612e1881612b39565b9050919050565b60006020820190508181036000830152612e3881612b5c565b9050919050565b60006020820190508181036000830152612e5881612b7f565b9050919050565b60006020820190508181036000830152612e7881612ba2565b9050919050565b60006020820190508181036000830152612e9881612bc5565b9050919050565b60006020820190508181036000830152612eb881612be8565b9050919050565b60006020820190508181036000830152612ed881612c0b565b9050919050565b60006020820190508181036000830152612ef881612c2e565b9050919050565b6000602082019050612f146000830184612c51565b92915050565b6000608082019050612f2f6000830187612c51565b8181036020830152612f4181866129fd565b9050612f506040830185612997565b612f5d60608301846129b5565b95945050505050565b6000612f70612f81565b9050612f7c828261323d565b919050565b6000604051905090565b600067ffffffffffffffff821115612fa657612fa5613375565b5b602082029050602081019050919050565b600067ffffffffffffffff821115612fd257612fd1613375565b5b602082029050602081019050919050565b600067ffffffffffffffff821115612ffe57612ffd613375565b5b613007826133a4565b9050602081019050919050565b600067ffffffffffffffff82111561302f5761302e613375565b5b613038826133a4565b9050602081019050919050565b600081519050919050565b600081519050919050565b600082825260208201905092915050565b600082825260208201905092915050565b600081905092915050565b6000613093826131bf565b915061309e836131bf565b9250827fffffffffffffffffffffffffffffffffffffffffffffffffffffffffffffffff038211156130d3576130d26132e8565b5b828201905092915050565b60006130e9826131bf565b91506130f4836131bf565b92508261310457613103613317565b5b828204905092915050565b600061311a826131bf565b9150613125836131bf565b925082821015613138576131376132e8565b5b828203905092915050565b600061314e8261319f565b9050919050565b60006131608261319f565b9050919050565b60008115159050919050565b60007fffffffff0000000000000000000000000000000000000000000000000000000082169050919050565b600073ffffffffffffffffffffffffffffffffffffffff82169050919050565b6000819050919050565b82818337600083830152505050565b60005b838110156131f65780820151818401526020810190506131db565b83811115613205576000848401525b50505050565b6000600282049050600182168061322357607f821691505b6020821081141561323757613236613346565b5b50919050565b613246826133a4565b810181811067ffffffffffffffff8211171561326557613264613375565b5b80604052505050565b6000613279826131bf565b91507fffffffffffffffffffffffffffffffffffffffffffffffffffffffffffffffff8214156132ac576132ab6132e8565b5b600182019050919050565b60006132c2826131bf565b91506132cd836131bf565b9250826132dd576132dc613317565b5b828206905092915050565b7f4e487b7100000000000000000000000000000000000000000000000000000000600052601160045260246000fd5b7f4e487b7100000000000000000000000000000000000000000000000000000000600052601260045260246000fd5b7f4e487b7100000000000000000000000000000000000000000000000000000000600052602260045260246000fd5b7f4e487b7100000000000000000000000000000000000000000000000000000000600052604160045260246000fd5b6000601f19601f8301169050919050565b7f4552433732313a207472616e7366657220746f206e6f6e20455243373231526560008201527f63656976657220696d706c656d656e7465720000000000000000000000000000602082015250565b7f4552433732313a20746f6b656e20616c7265616479206d696e74656400000000600082015250565b7f4552433732313a207472616e7366657220746f20746865207a65726f2061646460008201527f7265737300000000000000000000000000000000000000000000000000000000602082015250565b7f4552433732313a20617070726f766520746f2063616c6c657200000000000000600082015250565b7f4552433732313a206f70657261746f7220717565727920666f72206e6f6e657860008201527f697374656e7420746f6b656e0000000000000000000000000000000000000000602082015250565b7f4552433732313a20617070726f76652063616c6c6572206973206e6f74206f7760008201527f6e6572206e6f7220617070726f76656420666f7220616c6c0000000000000000602082015250565b7f4552433732313a2062616c616e636520717565727920666f7220746865207a6560008201527f726f206164647265737300000000000000000000000000000000000000000000602082015250565b7f4552433732313a206f776e657220717565727920666f72206e6f6e657869737460008201527f656e7420746f6b656e0000000000000000000000000000000000000000000000602082015250565b7f4552433732313a206d696e7420746f20746865207a65726f2061646472657373600082015250565b7f4552433732313a20617070726f76656420717565727920666f72206e6f6e657860008201527f697374656e7420746f6b656e0000000000000000000000000000000000000000602082015250565b7f4552433732313a207472616e73666572206f6620746f6b656e2074686174206960008201527f73206e6f74206f776e0000000000000000000000000000000000000000000000602082015250565b7f4552433732314d657461646174613a2055524920717565727920666f72206e6f60008201527f6e6578697374656e7420746f6b656e0000000000000000000000000000000000602082015250565b7f4552433732313a20617070726f76616c20746f2063757272656e74206f776e6560008201527f7200000000000000000000000000000000000000000000000000000000000000602082015250565b7f4552433732313a207472616e736665722063616c6c6572206973206e6f74206f60008201527f776e6572206e6f7220617070726f766564000000000000000000000000000000602082015250565b61379e81613143565b81146137a957600080fd5b50565b6137b581613167565b81146137c057600080fd5b50565b6137cc81613173565b81146137d757600080fd5b50565b6137e3816131bf565b81146137ee57600080fd5b5056fea2646970667358221220c537f222f4cdc918790ca56b312b10ed0e4ab3d276d440de101d34cd4f630a5964736f6c63430008040033",
  "immutableReferences": {},
  "source": "// SPDX-License-Identifier: MIT\r\npragma solidity ^0.8.0;\r\n\r\nimport \"@openzeppelin/contracts/token/ERC721/ERC721.sol\";\r\n\r\ncontract CryptoPlace is ERC721 {\r\n    // ##################################################################\r\n    //    GLOBAR VARS\r\n    // ##################################################################\r\n\r\n    uint256 public numRows;\r\n    uint256 public pixelCount;\r\n    uint256 public pixelLimit;\r\n    uint256[] public mintedPixels;\r\n    mapping(uint256 => Pixel) public pixels;\r\n    address public owner = msg.sender;\r\n\r\n    // ##################################################################\r\n    //    STRUCTS\r\n    // ##################################################################\r\n\r\n    // Represents a pixel\r\n    struct Pixel {\r\n        uint256 coords;\r\n        string color;\r\n        address payable author;\r\n        bool exists;\r\n    }\r\n\r\n    // ##################################################################\r\n    //    MAIN FUNCTIONS\r\n    // ##################################################################\r\n\r\n    // Constructor fuunction\r\n    constructor() ERC721(\"Pixel\", \"PXL\") {\r\n        numRows = 512;\r\n        pixelLimit = 512 * 512;\r\n    }\r\n\r\n    // Create a new pixel\r\n    function mint(uint256 _coord, string memory _color) public {\r\n        // Do not create if coordinate already exists\r\n        require(!pixels[_coord].exists);\r\n\r\n        // Coords can not be bigger than the pixel limit\r\n        require(_coord < pixelLimit);\r\n\r\n        // Only accept valid colors\r\n        require(isColor(_color));\r\n\r\n        // Increment the pixel count\r\n        pixelCount++;\r\n\r\n        // Mint pixel\r\n        _mint(msg.sender, _coord);\r\n\r\n        // Add to minted pixels array\r\n        mintedPixels.push(_coord);\r\n\r\n        // Save the pixel\r\n        pixels[_coord] = Pixel(_coord, _color, payable(msg.sender), true);\r\n    }\r\n\r\n    // Mint a batch number of coordinates\r\n    function mintBatch(uint256[] memory coordsToMint, string[] memory colors) public onlyBy(owner) {\r\n        // The coords to mint array size has to match the color size\r\n        require(coordsToMint.length == colors.length);\r\n\r\n        for (uint i = 0; i < coordsToMint.length; i++) {\r\n            mint(coordsToMint[i], colors[i]);\r\n        }\r\n    }\r\n\r\n    // Change the color of a pixel\r\n    function changeColor(uint256 _coord, string memory _color) public {\r\n        // Do not change color if it does not exists\r\n        require(pixels[_coord].exists);\r\n\r\n        // Fetch the pixel\r\n        Pixel memory _pixel = pixels[_coord];\r\n\r\n        // Check that the owner is correct\r\n        require(_pixel.author == msg.sender);\r\n\r\n        // Only accept valid colors\r\n        require(isColor(_color));\r\n\r\n        // Check that the color is different than the old one\r\n        require(!stringsAreEqual(_color, _pixel.color));\r\n\r\n        // Change color\r\n        _pixel.color = _color;\r\n\r\n        // Save pixel\r\n        pixels[_coord] = _pixel;\r\n\r\n        // Emit event\r\n        emit PixelColorChanged(\r\n            _pixel.coords,\r\n            _pixel.color,\r\n            _pixel.author,\r\n            _pixel.exists\r\n        );\r\n    }\r\n\r\n    // ##################################################################\r\n    //    MODIFIERS\r\n    // ##################################################################\r\n\r\n    // Only the owner of the contract can call functions with this modifier\r\n    modifier onlyBy(address _account) {\r\n        require(msg.sender == _account);\r\n        _;\r\n    }\r\n\r\n    // ##################################################################\r\n    //    AUX FUNCTIONS\r\n    // ##################################################################\r\n\r\n    // Returns true if the strings are equal\r\n    function stringsAreEqual(string memory s1, string memory s2)\r\n        public\r\n        pure\r\n        returns (bool)\r\n    {\r\n        return\r\n            keccak256(abi.encodePacked(s1)) == keccak256(abi.encodePacked(s2));\r\n    }\r\n\r\n    // Returns true if the string is a valid HEX color code\r\n    function isColor(string memory _color) public pure returns (bool) {\r\n        // String to bytes\r\n        bytes memory b = bytes(_color);\r\n\r\n        // Not correct length\r\n        if (b.length != 7) return false;\r\n\r\n        // First charater must be '#'\r\n        if (b[0] != 0x23) return false;\r\n\r\n        // Other characters have to be 1-9 or A-F or a-f\r\n        for (uint256 i = 1; i < b.length; i++) {\r\n            bytes1 char = b[i];\r\n\r\n            if (\r\n                !(char >= 0x30 && char <= 0x39) && // 0-9\r\n                !(char >= 0x41 && char <= 0x46) && // A-F\r\n                !(char >= 0x61 && char <= 0x66) // a-f\r\n            ) return false;\r\n        }\r\n\r\n        // String is a color hex value\r\n        return true;\r\n    }\r\n\r\n    // ##################################################################\r\n    //    ADD TOKEN URI\r\n    // ##################################################################\r\n\r\n    // Base URI\r\n    string private baseURI;\r\n\r\n    // Set a new base uri\r\n    function setBaseURI(string memory baseURI_) public onlyBy(owner) {\r\n        // Check that the color is different than the old one\r\n        require(!stringsAreEqual(baseURI, baseURI_));\r\n\r\n        baseURI = baseURI_;\r\n    }\r\n\r\n    // Returns the correct base uri\r\n    function _baseURI() internal view virtual override returns (string memory) {\r\n        return baseURI;\r\n    }\r\n\r\n    // ##################################################################\r\n    //    EVENTS\r\n    // ##################################################################\r\n\r\n    // Emited when the color of a pixel changes\r\n    event PixelColorChanged(\r\n        uint256 coords,\r\n        string color,\r\n        address payable author,\r\n        bool exists\r\n    );\r\n}\r\n",
  "sourcePath": "/mnt/c/Users/Carles' PC/Documents/Repos/CryptoPlace/src/contracts/CryptoPlace.sol",
  "compiler": {
    "name": "solc",
    "version": "0.8.4+commit.c7e474f2.Emscripten.clang"
  },
  "schemaVersion": "3.4.1",
  "updatedAt": "2021-06-01T10:47:57.788Z",
  "networkType": "ethereum",
  "devdoc": {
    "kind": "dev",
    "methods": {
      "approve(address,uint256)": {
        "details": "See {IERC721-approve}."
      },
      "balanceOf(address)": {
        "details": "See {IERC721-balanceOf}."
      },
      "getApproved(uint256)": {
        "details": "See {IERC721-getApproved}."
      },
      "isApprovedForAll(address,address)": {
        "details": "See {IERC721-isApprovedForAll}."
      },
      "name()": {
        "details": "See {IERC721Metadata-name}."
      },
      "ownerOf(uint256)": {
        "details": "See {IERC721-ownerOf}."
      },
      "safeTransferFrom(address,address,uint256)": {
        "details": "See {IERC721-safeTransferFrom}."
      },
      "safeTransferFrom(address,address,uint256,bytes)": {
        "details": "See {IERC721-safeTransferFrom}."
      },
      "setApprovalForAll(address,bool)": {
        "details": "See {IERC721-setApprovalForAll}."
      },
      "supportsInterface(bytes4)": {
        "details": "See {IERC165-supportsInterface}."
      },
      "symbol()": {
        "details": "See {IERC721Metadata-symbol}."
      },
      "tokenURI(uint256)": {
        "details": "See {IERC721Metadata-tokenURI}."
      },
      "transferFrom(address,address,uint256)": {
        "details": "See {IERC721-transferFrom}."
      }
    },
    "version": 1
  },
  "userdoc": {
    "kind": "user",
    "methods": {},
    "version": 1
  }
}