{
  "contractName": "CryptoPlace",
  "abi": [
    {
      "inputs": [],
      "stateMutability": "nonpayable",
      "type": "constructor"
    },
    {
      "anonymous": false,
      "inputs": [
        {
          "indexed": true,
          "internalType": "address",
          "name": "owner",
          "type": "address"
        },
        {
          "indexed": true,
          "internalType": "address",
          "name": "approved",
          "type": "address"
        },
        {
          "indexed": true,
          "internalType": "uint256",
          "name": "tokenId",
          "type": "uint256"
        }
      ],
      "name": "Approval",
      "type": "event"
    },
    {
      "anonymous": false,
      "inputs": [
        {
          "indexed": true,
          "internalType": "address",
          "name": "owner",
          "type": "address"
        },
        {
          "indexed": true,
          "internalType": "address",
          "name": "operator",
          "type": "address"
        },
        {
          "indexed": false,
          "internalType": "bool",
          "name": "approved",
          "type": "bool"
        }
      ],
      "name": "ApprovalForAll",
      "type": "event"
    },
    {
      "anonymous": false,
      "inputs": [
        {
          "indexed": true,
          "internalType": "address",
          "name": "previousOwner",
          "type": "address"
        },
        {
          "indexed": true,
          "internalType": "address",
          "name": "newOwner",
          "type": "address"
        }
      ],
      "name": "OwnershipTransferred",
      "type": "event"
    },
    {
      "anonymous": false,
      "inputs": [
        {
          "indexed": false,
          "internalType": "address",
          "name": "account",
          "type": "address"
        }
      ],
      "name": "Paused",
      "type": "event"
    },
    {
      "anonymous": false,
      "inputs": [
        {
          "indexed": true,
          "internalType": "address",
          "name": "from",
          "type": "address"
        },
        {
          "indexed": true,
          "internalType": "address",
          "name": "to",
          "type": "address"
        },
        {
          "indexed": true,
          "internalType": "uint256",
          "name": "tokenId",
          "type": "uint256"
        }
      ],
      "name": "Transfer",
      "type": "event"
    },
    {
      "anonymous": false,
      "inputs": [
        {
          "indexed": false,
          "internalType": "address",
          "name": "account",
          "type": "address"
        }
      ],
      "name": "Unpaused",
      "type": "event"
    },
    {
      "inputs": [],
      "name": "NUM_ROWS",
      "outputs": [
        {
          "internalType": "uint256",
          "name": "",
          "type": "uint256"
        }
      ],
      "stateMutability": "view",
      "type": "function",
      "constant": true
    },
    {
      "inputs": [],
      "name": "PIXEL_LIMIT",
      "outputs": [
        {
          "internalType": "uint256",
          "name": "",
          "type": "uint256"
        }
      ],
      "stateMutability": "view",
      "type": "function",
      "constant": true
    },
    {
      "inputs": [
        {
          "internalType": "address",
          "name": "to",
          "type": "address"
        },
        {
          "internalType": "uint256",
          "name": "tokenId",
          "type": "uint256"
        }
      ],
      "name": "approve",
      "outputs": [],
      "stateMutability": "nonpayable",
      "type": "function"
    },
    {
      "inputs": [
        {
          "internalType": "address",
          "name": "owner",
          "type": "address"
        }
      ],
      "name": "balanceOf",
      "outputs": [
        {
          "internalType": "uint256",
          "name": "",
          "type": "uint256"
        }
      ],
      "stateMutability": "view",
      "type": "function",
      "constant": true
    },
    {
      "inputs": [
        {
          "internalType": "uint256",
          "name": "tokenId",
          "type": "uint256"
        }
      ],
      "name": "getApproved",
      "outputs": [
        {
          "internalType": "address",
          "name": "",
          "type": "address"
        }
      ],
      "stateMutability": "view",
      "type": "function",
      "constant": true
    },
    {
      "inputs": [
        {
          "internalType": "address",
          "name": "owner",
          "type": "address"
        },
        {
          "internalType": "address",
          "name": "operator",
          "type": "address"
        }
      ],
      "name": "isApprovedForAll",
      "outputs": [
        {
          "internalType": "bool",
          "name": "",
          "type": "bool"
        }
      ],
      "stateMutability": "view",
      "type": "function",
      "constant": true
    },
    {
      "inputs": [
        {
          "internalType": "uint256",
          "name": "",
          "type": "uint256"
        }
      ],
      "name": "mintedPixels",
      "outputs": [
        {
          "internalType": "uint256",
          "name": "",
          "type": "uint256"
        }
      ],
      "stateMutability": "view",
      "type": "function",
      "constant": true
    },
    {
      "inputs": [],
      "name": "name",
      "outputs": [
        {
          "internalType": "string",
          "name": "",
          "type": "string"
        }
      ],
      "stateMutability": "view",
      "type": "function",
      "constant": true
    },
    {
      "inputs": [],
      "name": "owner",
      "outputs": [
        {
          "internalType": "address",
          "name": "",
          "type": "address"
        }
      ],
      "stateMutability": "view",
      "type": "function",
      "constant": true
    },
    {
      "inputs": [
        {
          "internalType": "uint256",
          "name": "tokenId",
          "type": "uint256"
        }
      ],
      "name": "ownerOf",
      "outputs": [
        {
          "internalType": "address",
          "name": "",
          "type": "address"
        }
      ],
      "stateMutability": "view",
      "type": "function",
      "constant": true
    },
    {
      "inputs": [],
      "name": "paused",
      "outputs": [
        {
          "internalType": "bool",
          "name": "",
          "type": "bool"
        }
      ],
      "stateMutability": "view",
      "type": "function",
      "constant": true
    },
    {
      "inputs": [],
      "name": "pixelCount",
      "outputs": [
        {
          "internalType": "uint256",
          "name": "",
          "type": "uint256"
        }
      ],
      "stateMutability": "view",
      "type": "function",
      "constant": true
    },
    {
      "inputs": [
        {
          "internalType": "uint256",
          "name": "",
          "type": "uint256"
        }
      ],
      "name": "pixels",
      "outputs": [
        {
          "internalType": "uint256",
          "name": "coords",
          "type": "uint256"
        },
        {
          "internalType": "string",
          "name": "color",
          "type": "string"
        },
        {
          "internalType": "address payable",
          "name": "owner",
          "type": "address"
        },
        {
          "internalType": "uint256",
          "name": "weiPrice",
          "type": "uint256"
        },
        {
          "internalType": "bool",
          "name": "exists",
          "type": "bool"
        }
      ],
      "stateMutability": "view",
      "type": "function",
      "constant": true
    },
    {
      "inputs": [],
      "name": "renounceOwnership",
      "outputs": [],
      "stateMutability": "nonpayable",
      "type": "function"
    },
    {
      "inputs": [
        {
          "internalType": "address",
          "name": "from",
          "type": "address"
        },
        {
          "internalType": "address",
          "name": "to",
          "type": "address"
        },
        {
          "internalType": "uint256",
          "name": "tokenId",
          "type": "uint256"
        }
      ],
      "name": "safeTransferFrom",
      "outputs": [],
      "stateMutability": "nonpayable",
      "type": "function"
    },
    {
      "inputs": [
        {
          "internalType": "address",
          "name": "from",
          "type": "address"
        },
        {
          "internalType": "address",
          "name": "to",
          "type": "address"
        },
        {
          "internalType": "uint256",
          "name": "tokenId",
          "type": "uint256"
        },
        {
          "internalType": "bytes",
          "name": "_data",
          "type": "bytes"
        }
      ],
      "name": "safeTransferFrom",
      "outputs": [],
      "stateMutability": "nonpayable",
      "type": "function"
    },
    {
      "inputs": [
        {
          "internalType": "address",
          "name": "operator",
          "type": "address"
        },
        {
          "internalType": "bool",
          "name": "approved",
          "type": "bool"
        }
      ],
      "name": "setApprovalForAll",
      "outputs": [],
      "stateMutability": "nonpayable",
      "type": "function"
    },
    {
      "inputs": [
        {
          "internalType": "bytes4",
          "name": "interfaceId",
          "type": "bytes4"
        }
      ],
      "name": "supportsInterface",
      "outputs": [
        {
          "internalType": "bool",
          "name": "",
          "type": "bool"
        }
      ],
      "stateMutability": "view",
      "type": "function",
      "constant": true
    },
    {
      "inputs": [],
      "name": "symbol",
      "outputs": [
        {
          "internalType": "string",
          "name": "",
          "type": "string"
        }
      ],
      "stateMutability": "view",
      "type": "function",
      "constant": true
    },
    {
      "inputs": [
        {
          "internalType": "uint256",
          "name": "tokenId",
          "type": "uint256"
        }
      ],
      "name": "tokenURI",
      "outputs": [
        {
          "internalType": "string",
          "name": "",
          "type": "string"
        }
      ],
      "stateMutability": "view",
      "type": "function",
      "constant": true
    },
    {
      "inputs": [
        {
          "internalType": "address",
          "name": "from",
          "type": "address"
        },
        {
          "internalType": "address",
          "name": "to",
          "type": "address"
        },
        {
          "internalType": "uint256",
          "name": "tokenId",
          "type": "uint256"
        }
      ],
      "name": "transferFrom",
      "outputs": [],
      "stateMutability": "nonpayable",
      "type": "function"
    },
    {
      "inputs": [
        {
          "internalType": "address",
          "name": "newOwner",
          "type": "address"
        }
      ],
      "name": "transferOwnership",
      "outputs": [],
      "stateMutability": "nonpayable",
      "type": "function"
    },
    {
      "inputs": [
        {
          "internalType": "uint256",
          "name": "_coords",
          "type": "uint256"
        },
        {
          "internalType": "string",
          "name": "_color",
          "type": "string"
        },
        {
          "internalType": "uint256",
          "name": "_initialWeiPrice",
          "type": "uint256"
        }
      ],
      "name": "mint",
      "outputs": [],
      "stateMutability": "nonpayable",
      "type": "function"
    },
    {
      "inputs": [
        {
          "internalType": "uint256[]",
          "name": "_coordsToMint",
          "type": "uint256[]"
        },
        {
          "internalType": "string[]",
          "name": "_colors",
          "type": "string[]"
        },
        {
          "internalType": "uint256[]",
          "name": "_initialWeiPrices",
          "type": "uint256[]"
        }
      ],
      "name": "mintBatch",
      "outputs": [],
      "stateMutability": "nonpayable",
      "type": "function"
    },
    {
      "inputs": [
        {
          "internalType": "uint256",
          "name": "_coords",
          "type": "uint256"
        },
        {
          "internalType": "string",
          "name": "_color",
          "type": "string"
        },
        {
          "internalType": "uint256",
          "name": "_weiPrice",
          "type": "uint256"
        }
      ],
      "name": "changeColorAndPrice",
      "outputs": [],
      "stateMutability": "nonpayable",
      "type": "function"
    },
    {
      "inputs": [
        {
          "internalType": "string",
          "name": "baseURI_",
          "type": "string"
        }
      ],
      "name": "setBaseURI",
      "outputs": [],
      "stateMutability": "nonpayable",
      "type": "function"
    },
    {
      "inputs": [
        {
          "internalType": "string",
          "name": "_s1",
          "type": "string"
        },
        {
          "internalType": "string",
          "name": "_s2",
          "type": "string"
        }
      ],
      "name": "stringsAreEqual",
      "outputs": [
        {
          "internalType": "bool",
          "name": "",
          "type": "bool"
        }
      ],
      "stateMutability": "pure",
      "type": "function",
      "constant": true
    },
    {
      "inputs": [
        {
          "internalType": "string",
          "name": "_color",
          "type": "string"
        }
      ],
      "name": "isColor",
      "outputs": [
        {
          "internalType": "bool",
          "name": "",
          "type": "bool"
        }
      ],
      "stateMutability": "pure",
      "type": "function",
      "constant": true
    }
  ],
  "bytecode": "0x60806040523480156200001157600080fd5b506040518060400160405280600581526020017f506978656c0000000000000000000000000000000000000000000000000000008152506040518060400160405280600381526020017f50584c00000000000000000000000000000000000000000000000000000000008152508160009080519060200190620000969291906200018c565b508060019080519060200190620000af9291906200018c565b5050506000620000c46200018460201b60201c565b905080600660006101000a81548173ffffffffffffffffffffffffffffffffffffffff021916908373ffffffffffffffffffffffffffffffffffffffff1602179055508073ffffffffffffffffffffffffffffffffffffffff16600073ffffffffffffffffffffffffffffffffffffffff167f8be0079c531659141344cd1fd0a4f28419497f9722a3daafe3b4186f6b6457e060405160405180910390a3506000600660146101000a81548160ff021916908315150217905550620002a1565b600033905090565b8280546200019a906200023c565b90600052602060002090601f016020900481019282620001be57600085556200020a565b82601f10620001d957805160ff19168380011785556200020a565b828001600101855582156200020a579182015b8281111562000209578251825591602001919060010190620001ec565b5b5090506200021991906200021d565b5090565b5b80821115620002385760008160009055506001016200021e565b5090565b600060028204905060018216806200025557607f821691505b602082108114156200026c576200026b62000272565b5b50919050565b7f4e487b7100000000000000000000000000000000000000000000000000000000600052602260045260246000fd5b6145b380620002b16000396000f3fe608060405234801561001057600080fd5b50600436106101c45760003560e01c8063715018a6116100f9578063acca6b3111610097578063ca5774be11610071578063ca5774be14610509578063e985e9c514610525578063f2fde38b14610555578063fe7fdced14610571576101c4565b8063acca6b31146104a1578063b88d4fde146104bd578063c87b56dd146104d9576101c4565b80638da5cb5b116100d35780638da5cb5b146104155780638da7f2321461043357806395d89b4114610467578063a22cb46514610485576101c4565b8063715018a6146103cf57806373d3e6d7146103d957806389ae5f47146103f7576101c4565b806335280abb116101665780635c975abb116101405780635c975abb146103215780636352211e1461033f5780636f6333401461036f57806370a082311461039f576101c4565b806335280abb146102b957806342842e0e146102e957806355f804b314610305576101c4565b8063095ea7b3116101a2578063095ea7b31461024757806310a7593814610263578063145773c91461028157806323b872dd1461029d576101c4565b806301ffc9a7146101c957806306fdde03146101f9578063081812fc14610217575b600080fd5b6101e360048036038101906101de9190612e9a565b6105a1565b6040516101f09190613515565b60405180910390f35b610201610683565b60405161020e9190613530565b60405180910390f35b610231600480360381019061022c9190612f99565b610715565b60405161023e91906134ae565b60405180910390f35b610261600480360381019061025c9190612dc7565b61079a565b005b61026b6108b2565b6040516102789190613872565b60405180910390f35b61029b60048036038101906102969190612fc2565b6108c3565b005b6102b760048036038101906102b29190612cc1565b610c3e565b005b6102d360048036038101906102ce9190612f99565b610c9e565b6040516102e09190613872565b60405180910390f35b61030360048036038101906102fe9190612cc1565b610cc2565b005b61031f600480360381019061031a9190612eec565b610ce2565b005b610329610e4c565b6040516103369190613515565b60405180910390f35b61035960048036038101906103549190612f99565b610e63565b60405161036691906134ae565b60405180910390f35b61038960048036038101906103849190612f2d565b610f15565b6040516103969190613515565b60405180910390f35b6103b960048036038101906103b49190612c5c565b610f6e565b6040516103c69190613872565b60405180910390f35b6103d7611026565b005b6103e1611163565b6040516103ee9190613872565b60405180910390f35b6103ff611169565b60405161040c9190613872565b60405180910390f35b61041d61116f565b60405161042a91906134ae565b60405180910390f35b61044d60048036038101906104489190612f99565b611199565b60405161045e95949392919061388d565b60405180910390f35b61046f611284565b60405161047c9190613530565b60405180910390f35b61049f600480360381019061049a9190612d8b565b611316565b005b6104bb60048036038101906104b69190612fc2565b611497565b005b6104d760048036038101906104d29190612d10565b6116d0565b005b6104f360048036038101906104ee9190612f99565b611732565b6040516105009190613530565b60405180910390f35b610523600480360381019061051e9190612e03565b6117d9565b005b61053f600480360381019061053a9190612c85565b6119cd565b60405161054c9190613515565b60405180910390f35b61056f600480360381019061056a9190612c5c565b611a61565b005b61058b60048036038101906105869190612eec565b611c0d565b6040516105989190613515565b60405180910390f35b60007f80ac58cd000000000000000000000000000000000000000000000000000000007bffffffffffffffffffffffffffffffffffffffffffffffffffffffff1916827bffffffffffffffffffffffffffffffffffffffffffffffffffffffff1916148061066c57507f5b5e139f000000000000000000000000000000000000000000000000000000007bffffffffffffffffffffffffffffffffffffffffffffffffffffffff1916827bffffffffffffffffffffffffffffffffffffffffffffffffffffffff1916145b8061067c575061067b82611e51565b5b9050919050565b60606000805461069290613be6565b80601f01602080910402602001604051908101604052809291908181526020018280546106be90613be6565b801561070b5780601f106106e05761010080835404028352916020019161070b565b820191906000526020600020905b8154815290600101906020018083116106ee57829003601f168201915b5050505050905090565b600061072082611ebb565b61075f576040517f08c379a000000000000000000000000000000000000000000000000000000000815260040161075690613772565b60405180910390fd5b6004600083815260200190815260200160002060009054906101000a900473ffffffffffffffffffffffffffffffffffffffff169050919050565b60006107a582610e63565b90508073ffffffffffffffffffffffffffffffffffffffff168373ffffffffffffffffffffffffffffffffffffffff161415610816576040517f08c379a000000000000000000000000000000000000000000000000000000000815260040161080d906137f2565b60405180910390fd5b8073ffffffffffffffffffffffffffffffffffffffff16610835611f27565b73ffffffffffffffffffffffffffffffffffffffff16148061086457506108638161085e611f27565b6119cd565b5b6108a3576040517f08c379a000000000000000000000000000000000000000000000000000000000815260040161089a906136f2565b60405180910390fd5b6108ad8383611f2f565b505050565b610100806108c09190613a90565b81565b6009600084815260200190815260200160002060040160009054906101000a900460ff16610926576040517f08c379a000000000000000000000000000000000000000000000000000000000815260040161091d906136d2565b60405180910390fd5b6000600960008581526020019081526020016000206040518060a00160405290816000820154815260200160018201805461096090613be6565b80601f016020809104026020016040519081016040528092919081815260200182805461098c90613be6565b80156109d95780601f106109ae576101008083540402835291602001916109d9565b820191906000526020600020905b8154815290600101906020018083116109bc57829003601f168201915b505050505081526020016002820160009054906101000a900473ffffffffffffffffffffffffffffffffffffffff1673ffffffffffffffffffffffffffffffffffffffff1673ffffffffffffffffffffffffffffffffffffffff168152602001600382015481526020016004820160009054906101000a900460ff16151515158152505090503373ffffffffffffffffffffffffffffffffffffffff16816040015173ffffffffffffffffffffffffffffffffffffffff1614610ad1576040517f08c379a0000000000000000000000000000000000000000000000000000000008152600401610ac8906135d2565b60405180910390fd5b610ada83611c0d565b610b19576040517f08c379a0000000000000000000000000000000000000000000000000000000008152600401610b10906136b2565b60405180910390fd5b610b27838260200151610f15565b1580610b37575080606001518214155b610b76576040517f08c379a0000000000000000000000000000000000000000000000000000000008152600401610b6d906135f2565b60405180910390fd5b828160200181905250818160600181815250508060096000868152602001908152602001600020600082015181600001556020820151816001019080519060200190610bc392919061293a565b5060408201518160020160006101000a81548173ffffffffffffffffffffffffffffffffffffffff021916908373ffffffffffffffffffffffffffffffffffffffff1602179055506060820151816003015560808201518160040160006101000a81548160ff02191690831515021790555090505050505050565b610c4f610c49611f27565b82611fe8565b610c8e576040517f08c379a0000000000000000000000000000000000000000000000000000000008152600401610c8590613812565b60405180910390fd5b610c998383836120c6565b505050565b60088181548110610cae57600080fd5b906000526020600020016000915090505481565b610cdd838383604051806020016040528060008152506116d0565b505050565b610cea611f27565b73ffffffffffffffffffffffffffffffffffffffff16610d0861116f565b73ffffffffffffffffffffffffffffffffffffffff1614610d5e576040517f08c379a0000000000000000000000000000000000000000000000000000000008152600401610d5590613792565b60405180910390fd5b610df2600a8054610d6e90613be6565b80601f0160208091040260200160405190810160405280929190818152602001828054610d9a90613be6565b8015610de75780601f10610dbc57610100808354040283529160200191610de7565b820191906000526020600020905b815481529060010190602001808311610dca57829003601f168201915b505050505082610f15565b15610e32576040517f08c379a0000000000000000000000000000000000000000000000000000000008152600401610e2990613852565b60405180910390fd5b80600a9080519060200190610e4892919061293a565b5050565b6000600660149054906101000a900460ff16905090565b6000806002600084815260200190815260200160002060009054906101000a900473ffffffffffffffffffffffffffffffffffffffff169050600073ffffffffffffffffffffffffffffffffffffffff168173ffffffffffffffffffffffffffffffffffffffff161415610f0c576040517f08c379a0000000000000000000000000000000000000000000000000000000008152600401610f0390613732565b60405180910390fd5b80915050919050565b600081604051602001610f289190613473565b6040516020818303038152906040528051906020012083604051602001610f4f9190613473565b6040516020818303038152906040528051906020012014905092915050565b60008073ffffffffffffffffffffffffffffffffffffffff168273ffffffffffffffffffffffffffffffffffffffff161415610fdf576040517f08c379a0000000000000000000000000000000000000000000000000000000008152600401610fd690613712565b60405180910390fd5b600360008373ffffffffffffffffffffffffffffffffffffffff1673ffffffffffffffffffffffffffffffffffffffff168152602001908152602001600020549050919050565b61102e611f27565b73ffffffffffffffffffffffffffffffffffffffff1661104c61116f565b73ffffffffffffffffffffffffffffffffffffffff16146110a2576040517f08c379a000000000000000000000000000000000000000000000000000000000815260040161109990613792565b60405180910390fd5b600073ffffffffffffffffffffffffffffffffffffffff16600660009054906101000a900473ffffffffffffffffffffffffffffffffffffffff1673ffffffffffffffffffffffffffffffffffffffff167f8be0079c531659141344cd1fd0a4f28419497f9722a3daafe3b4186f6b6457e060405160405180910390a36000600660006101000a81548173ffffffffffffffffffffffffffffffffffffffff021916908373ffffffffffffffffffffffffffffffffffffffff160217905550565b60075481565b61010081565b6000600660009054906101000a900473ffffffffffffffffffffffffffffffffffffffff16905090565b60096020528060005260406000206000915090508060000154908060010180546111c290613be6565b80601f01602080910402602001604051908101604052809291908181526020018280546111ee90613be6565b801561123b5780601f106112105761010080835404028352916020019161123b565b820191906000526020600020905b81548152906001019060200180831161121e57829003601f168201915b5050505050908060020160009054906101000a900473ffffffffffffffffffffffffffffffffffffffff16908060030154908060040160009054906101000a900460ff16905085565b60606001805461129390613be6565b80601f01602080910402602001604051908101604052809291908181526020018280546112bf90613be6565b801561130c5780601f106112e15761010080835404028352916020019161130c565b820191906000526020600020905b8154815290600101906020018083116112ef57829003601f168201915b5050505050905090565b61131e611f27565b73ffffffffffffffffffffffffffffffffffffffff168273ffffffffffffffffffffffffffffffffffffffff16141561138c576040517f08c379a000000000000000000000000000000000000000000000000000000000815260040161138390613632565b60405180910390fd5b8060056000611399611f27565b73ffffffffffffffffffffffffffffffffffffffff1673ffffffffffffffffffffffffffffffffffffffff16815260200190815260200160002060008473ffffffffffffffffffffffffffffffffffffffff1673ffffffffffffffffffffffffffffffffffffffff16815260200190815260200160002060006101000a81548160ff0219169083151502179055508173ffffffffffffffffffffffffffffffffffffffff16611446611f27565b73ffffffffffffffffffffffffffffffffffffffff167f17307eab39ab6107e8899845ad3d59bd9653f200f220920489ca2b5937696c318360405161148b9190613515565b60405180910390a35050565b6009600084815260200190815260200160002060040160009054906101000a900460ff16156114fb576040517f08c379a00000000000000000000000000000000000000000000000000000000081526004016114f290613832565b60405180910390fd5b610100806115099190613a90565b831061154a576040517f08c379a000000000000000000000000000000000000000000000000000000000815260040161154190613692565b60405180910390fd5b61155382611c0d565b611592576040517f08c379a0000000000000000000000000000000000000000000000000000000008152600401611589906136b2565b60405180910390fd5b600760008154809291906115a590613c49565b91905055506115b43384612322565b60088390806001815401808255809150506001900390600052602060002001600090919091909150556040518060a001604052808481526020018381526020013373ffffffffffffffffffffffffffffffffffffffff168152602001828152602001600115158152506009600085815260200190815260200160002060008201518160000155602082015181600101908051906020019061165692919061293a565b5060408201518160020160006101000a81548173ffffffffffffffffffffffffffffffffffffffff021916908373ffffffffffffffffffffffffffffffffffffffff1602179055506060820151816003015560808201518160040160006101000a81548160ff021916908315150217905550905050505050565b6116e16116db611f27565b83611fe8565b611720576040517f08c379a000000000000000000000000000000000000000000000000000000000815260040161171790613812565b60405180910390fd5b61172c848484846124f0565b50505050565b606061173d82611ebb565b61177c576040517f08c379a0000000000000000000000000000000000000000000000000000000008152600401611773906137d2565b60405180910390fd5b600061178661254c565b905060008151116117a657604051806020016040528060008152506117d1565b806117b0846125de565b6040516020016117c192919061348a565b6040516020818303038152906040525b915050919050565b6117e1611f27565b73ffffffffffffffffffffffffffffffffffffffff166117ff61116f565b73ffffffffffffffffffffffffffffffffffffffff1614611855576040517f08c379a000000000000000000000000000000000000000000000000000000000815260040161184c90613792565b60405180910390fd5b8151835114611899576040517f08c379a000000000000000000000000000000000000000000000000000000000815260040161189090613592565b60405180910390fd5b80518351146118dd576040517f08c379a00000000000000000000000000000000000000000000000000000000081526004016118d490613652565b60405180910390fd5b60005b83518110156119c7576119b4848281518110611925577f4e487b7100000000000000000000000000000000000000000000000000000000600052603260045260246000fd5b6020026020010151848381518110611966577f4e487b7100000000000000000000000000000000000000000000000000000000600052603260045260246000fd5b60200260200101518484815181106119a7577f4e487b7100000000000000000000000000000000000000000000000000000000600052603260045260246000fd5b6020026020010151611497565b80806119bf90613c49565b9150506118e0565b50505050565b6000600560008473ffffffffffffffffffffffffffffffffffffffff1673ffffffffffffffffffffffffffffffffffffffff16815260200190815260200160002060008373ffffffffffffffffffffffffffffffffffffffff1673ffffffffffffffffffffffffffffffffffffffff16815260200190815260200160002060009054906101000a900460ff16905092915050565b611a69611f27565b73ffffffffffffffffffffffffffffffffffffffff16611a8761116f565b73ffffffffffffffffffffffffffffffffffffffff1614611add576040517f08c379a0000000000000000000000000000000000000000000000000000000008152600401611ad490613792565b60405180910390fd5b600073ffffffffffffffffffffffffffffffffffffffff168173ffffffffffffffffffffffffffffffffffffffff161415611b4d576040517f08c379a0000000000000000000000000000000000000000000000000000000008152600401611b4490613572565b60405180910390fd5b8073ffffffffffffffffffffffffffffffffffffffff16600660009054906101000a900473ffffffffffffffffffffffffffffffffffffffff1673ffffffffffffffffffffffffffffffffffffffff167f8be0079c531659141344cd1fd0a4f28419497f9722a3daafe3b4186f6b6457e060405160405180910390a380600660006101000a81548173ffffffffffffffffffffffffffffffffffffffff021916908373ffffffffffffffffffffffffffffffffffffffff16021790555050565b6000808290506007815114611c26576000915050611e4c565b602360f81b81600081518110611c65577f4e487b7100000000000000000000000000000000000000000000000000000000600052603260045260246000fd5b602001015160f81c60f81b7effffffffffffffffffffffffffffffffffffffffffffffffffffffffffffff191614611ca1576000915050611e4c565b6000600190505b8151811015611e45576000828281518110611cec577f4e487b7100000000000000000000000000000000000000000000000000000000600052603260045260246000fd5b602001015160f81c60f81b9050603060f81b817effffffffffffffffffffffffffffffffffffffffffffffffffffffffffffff191610158015611d555750603960f81b817effffffffffffffffffffffffffffffffffffffffffffffffffffffffffffff191611155b158015611dbb5750604160f81b817effffffffffffffffffffffffffffffffffffffffffffffffffffffffffffff191610158015611db95750604660f81b817effffffffffffffffffffffffffffffffffffffffffffffffffffffffffffff191611155b155b8015611e205750606160f81b817effffffffffffffffffffffffffffffffffffffffffffffffffffffffffffff191610158015611e1e5750606660f81b817effffffffffffffffffffffffffffffffffffffffffffffffffffffffffffff191611155b155b15611e315760009350505050611e4c565b508080611e3d90613c49565b915050611ca8565b5060019150505b919050565b60007f01ffc9a7000000000000000000000000000000000000000000000000000000007bffffffffffffffffffffffffffffffffffffffffffffffffffffffff1916827bffffffffffffffffffffffffffffffffffffffffffffffffffffffff1916149050919050565b60008073ffffffffffffffffffffffffffffffffffffffff166002600084815260200190815260200160002060009054906101000a900473ffffffffffffffffffffffffffffffffffffffff1673ffffffffffffffffffffffffffffffffffffffff1614159050919050565b600033905090565b816004600083815260200190815260200160002060006101000a81548173ffffffffffffffffffffffffffffffffffffffff021916908373ffffffffffffffffffffffffffffffffffffffff160217905550808273ffffffffffffffffffffffffffffffffffffffff16611fa283610e63565b73ffffffffffffffffffffffffffffffffffffffff167f8c5be1e5ebec7d5bd14f71427d1e84f3dd0314c0f7b2291e5b200ac8c7c3b92560405160405180910390a45050565b6000611ff382611ebb565b612032576040517f08c379a000000000000000000000000000000000000000000000000000000000815260040161202990613672565b60405180910390fd5b600061203d83610e63565b90508073ffffffffffffffffffffffffffffffffffffffff168473ffffffffffffffffffffffffffffffffffffffff1614806120ac57508373ffffffffffffffffffffffffffffffffffffffff1661209484610715565b73ffffffffffffffffffffffffffffffffffffffff16145b806120bd57506120bc81856119cd565b5b91505092915050565b8273ffffffffffffffffffffffffffffffffffffffff166120e682610e63565b73ffffffffffffffffffffffffffffffffffffffff161461213c576040517f08c379a0000000000000000000000000000000000000000000000000000000008152600401612133906137b2565b60405180910390fd5b600073ffffffffffffffffffffffffffffffffffffffff168273ffffffffffffffffffffffffffffffffffffffff1614156121ac576040517f08c379a00000000000000000000000000000000000000000000000000000000081526004016121a390613612565b60405180910390fd5b6121b783838361278b565b6121c2600082611f2f565b6001600360008573ffffffffffffffffffffffffffffffffffffffff1673ffffffffffffffffffffffffffffffffffffffff16815260200190815260200160002060008282546122129190613aea565b925050819055506001600360008473ffffffffffffffffffffffffffffffffffffffff1673ffffffffffffffffffffffffffffffffffffffff16815260200190815260200160002060008282546122699190613a09565b92505081905550816002600083815260200190815260200160002060006101000a81548173ffffffffffffffffffffffffffffffffffffffff021916908373ffffffffffffffffffffffffffffffffffffffff160217905550808273ffffffffffffffffffffffffffffffffffffffff168473ffffffffffffffffffffffffffffffffffffffff167fddf252ad1be2c89b69c2b068fc378daa952ba7f163c4a11628f55a4df523b3ef60405160405180910390a4505050565b600073ffffffffffffffffffffffffffffffffffffffff168273ffffffffffffffffffffffffffffffffffffffff161415612392576040517f08c379a000000000000000000000000000000000000000000000000000000000815260040161238990613752565b60405180910390fd5b61239b81611ebb565b156123db576040517f08c379a00000000000000000000000000000000000000000000000000000000081526004016123d2906135b2565b60405180910390fd5b6123e76000838361278b565b6001600360008473ffffffffffffffffffffffffffffffffffffffff1673ffffffffffffffffffffffffffffffffffffffff16815260200190815260200160002060008282546124379190613a09565b92505081905550816002600083815260200190815260200160002060006101000a81548173ffffffffffffffffffffffffffffffffffffffff021916908373ffffffffffffffffffffffffffffffffffffffff160217905550808273ffffffffffffffffffffffffffffffffffffffff16600073ffffffffffffffffffffffffffffffffffffffff167fddf252ad1be2c89b69c2b068fc378daa952ba7f163c4a11628f55a4df523b3ef60405160405180910390a45050565b6124fb8484846120c6565b61250784848484612790565b612546576040517f08c379a000000000000000000000000000000000000000000000000000000000815260040161253d90613552565b60405180910390fd5b50505050565b6060600a805461255b90613be6565b80601f016020809104026020016040519081016040528092919081815260200182805461258790613be6565b80156125d45780601f106125a9576101008083540402835291602001916125d4565b820191906000526020600020905b8154815290600101906020018083116125b757829003601f168201915b5050505050905090565b60606000821415612626576040518060400160405280600181526020017f30000000000000000000000000000000000000000000000000000000000000008152509050612786565b600082905060005b6000821461265857808061264190613c49565b915050600a826126519190613a5f565b915061262e565b60008167ffffffffffffffff81111561269a577f4e487b7100000000000000000000000000000000000000000000000000000000600052604160045260246000fd5b6040519080825280601f01601f1916602001820160405280156126cc5781602001600182028036833780820191505090505b5090505b6000851461277f576001826126e59190613aea565b9150600a856126f49190613c92565b60306127009190613a09565b60f81b81838151811061273c577f4e487b7100000000000000000000000000000000000000000000000000000000600052603260045260246000fd5b60200101907effffffffffffffffffffffffffffffffffffffffffffffffffffffffffffff1916908160001a905350600a856127789190613a5f565b94506126d0565b8093505050505b919050565b505050565b60006127b18473ffffffffffffffffffffffffffffffffffffffff16612927565b1561291a578373ffffffffffffffffffffffffffffffffffffffff1663150b7a026127da611f27565b8786866040518563ffffffff1660e01b81526004016127fc94939291906134c9565b602060405180830381600087803b15801561281657600080fd5b505af192505050801561284757506040513d601f19601f820116820180604052508101906128449190612ec3565b60015b6128ca573d8060008114612877576040519150601f19603f3d011682016040523d82523d6000602084013e61287c565b606091505b506000815114156128c2576040517f08c379a00000000000000000000000000000000000000000000000000000000081526004016128b990613552565b60405180910390fd5b805181602001fd5b63150b7a0260e01b7bffffffffffffffffffffffffffffffffffffffffffffffffffffffff1916817bffffffffffffffffffffffffffffffffffffffffffffffffffffffff19161491505061291f565b600190505b949350505050565b600080823b905060008111915050919050565b82805461294690613be6565b90600052602060002090601f01602090048101928261296857600085556129af565b82601f1061298157805160ff19168380011785556129af565b828001600101855582156129af579182015b828111156129ae578251825591602001919060010190612993565b5b5090506129bc91906129c0565b5090565b5b808211156129d95760008160009055506001016129c1565b5090565b60006129f06129eb8461390c565b6138e7565b90508083825260208201905082856020860282011115612a0f57600080fd5b60005b85811015612a5957813567ffffffffffffffff811115612a3157600080fd5b808601612a3e8982612c1d565b85526020850194506020840193505050600181019050612a12565b5050509392505050565b6000612a76612a7184613938565b6138e7565b90508083825260208201905082856020860282011115612a9557600080fd5b60005b85811015612ac55781612aab8882612c47565b845260208401935060208301925050600181019050612a98565b5050509392505050565b6000612ae2612add84613964565b6138e7565b905082815260208101848484011115612afa57600080fd5b612b05848285613ba4565b509392505050565b6000612b20612b1b84613995565b6138e7565b905082815260208101848484011115612b3857600080fd5b612b43848285613ba4565b509392505050565b600081359050612b5a81614521565b92915050565b600082601f830112612b7157600080fd5b8135612b818482602086016129dd565b91505092915050565b600082601f830112612b9b57600080fd5b8135612bab848260208601612a63565b91505092915050565b600081359050612bc381614538565b92915050565b600081359050612bd88161454f565b92915050565b600081519050612bed8161454f565b92915050565b600082601f830112612c0457600080fd5b8135612c14848260208601612acf565b91505092915050565b600082601f830112612c2e57600080fd5b8135612c3e848260208601612b0d565b91505092915050565b600081359050612c5681614566565b92915050565b600060208284031215612c6e57600080fd5b6000612c7c84828501612b4b565b91505092915050565b60008060408385031215612c9857600080fd5b6000612ca685828601612b4b565b9250506020612cb785828601612b4b565b9150509250929050565b600080600060608486031215612cd657600080fd5b6000612ce486828701612b4b565b9350506020612cf586828701612b4b565b9250506040612d0686828701612c47565b9150509250925092565b60008060008060808587031215612d2657600080fd5b6000612d3487828801612b4b565b9450506020612d4587828801612b4b565b9350506040612d5687828801612c47565b925050606085013567ffffffffffffffff811115612d7357600080fd5b612d7f87828801612bf3565b91505092959194509250565b60008060408385031215612d9e57600080fd5b6000612dac85828601612b4b565b9250506020612dbd85828601612bb4565b9150509250929050565b60008060408385031215612dda57600080fd5b6000612de885828601612b4b565b9250506020612df985828601612c47565b9150509250929050565b600080600060608486031215612e1857600080fd5b600084013567ffffffffffffffff811115612e3257600080fd5b612e3e86828701612b8a565b935050602084013567ffffffffffffffff811115612e5b57600080fd5b612e6786828701612b60565b925050604084013567ffffffffffffffff811115612e8457600080fd5b612e9086828701612b8a565b9150509250925092565b600060208284031215612eac57600080fd5b6000612eba84828501612bc9565b91505092915050565b600060208284031215612ed557600080fd5b6000612ee384828501612bde565b91505092915050565b600060208284031215612efe57600080fd5b600082013567ffffffffffffffff811115612f1857600080fd5b612f2484828501612c1d565b91505092915050565b60008060408385031215612f4057600080fd5b600083013567ffffffffffffffff811115612f5a57600080fd5b612f6685828601612c1d565b925050602083013567ffffffffffffffff811115612f8357600080fd5b612f8f85828601612c1d565b9150509250929050565b600060208284031215612fab57600080fd5b6000612fb984828501612c47565b91505092915050565b600080600060608486031215612fd757600080fd5b6000612fe586828701612c47565b935050602084013567ffffffffffffffff81111561300257600080fd5b61300e86828701612c1d565b925050604061301f86828701612c47565b9150509250925092565b61303281613b30565b82525050565b61304181613b1e565b82525050565b61305081613b42565b82525050565b6000613061826139c6565b61306b81856139dc565b935061307b818560208601613bb3565b61308481613d7f565b840191505092915050565b600061309a826139d1565b6130a481856139ed565b93506130b4818560208601613bb3565b6130bd81613d7f565b840191505092915050565b60006130d3826139d1565b6130dd81856139fe565b93506130ed818560208601613bb3565b80840191505092915050565b60006131066032836139ed565b915061311182613d90565b604082019050919050565b60006131296026836139ed565b915061313482613ddf565b604082019050919050565b600061314c6044836139ed565b915061315782613e2e565b606082019050919050565b600061316f601c836139ed565b915061317a82613ea3565b602082019050919050565b60006131926024836139ed565b915061319d82613ecc565b604082019050919050565b60006131b56039836139ed565b91506131c082613f1b565b604082019050919050565b60006131d86024836139ed565b91506131e382613f6a565b604082019050919050565b60006131fb6019836139ed565b915061320682613fb9565b602082019050919050565b600061321e6048836139ed565b915061322982613fe2565b606082019050919050565b6000613241602c836139ed565b915061324c82614057565b604082019050919050565b60006132646046836139ed565b915061326f826140a6565b606082019050919050565b60006132876023836139ed565b91506132928261411b565b604082019050919050565b60006132aa6048836139ed565b91506132b58261416a565b606082019050919050565b60006132cd6038836139ed565b91506132d8826141df565b604082019050919050565b60006132f0602a836139ed565b91506132fb8261422e565b604082019050919050565b60006133136029836139ed565b915061331e8261427d565b604082019050919050565b60006133366020836139ed565b9150613341826142cc565b602082019050919050565b6000613359602c836139ed565b9150613364826142f5565b604082019050919050565b600061337c6020836139ed565b915061338782614344565b602082019050919050565b600061339f6029836139ed565b91506133aa8261436d565b604082019050919050565b60006133c2602f836139ed565b91506133cd826143bc565b604082019050919050565b60006133e56021836139ed565b91506133f08261440b565b604082019050919050565b60006134086031836139ed565b91506134138261445a565b604082019050919050565b600061342b601e836139ed565b9150613436826144a9565b602082019050919050565b600061344e6030836139ed565b9150613459826144d2565b604082019050919050565b61346d81613b9a565b82525050565b600061347f82846130c8565b915081905092915050565b600061349682856130c8565b91506134a282846130c8565b91508190509392505050565b60006020820190506134c36000830184613038565b92915050565b60006080820190506134de6000830187613038565b6134eb6020830186613038565b6134f86040830185613464565b818103606083015261350a8184613056565b905095945050505050565b600060208201905061352a6000830184613047565b92915050565b6000602082019050818103600083015261354a818461308f565b905092915050565b6000602082019050818103600083015261356b816130f9565b9050919050565b6000602082019050818103600083015261358b8161311c565b9050919050565b600060208201905081810360008301526135ab8161313f565b9050919050565b600060208201905081810360008301526135cb81613162565b9050919050565b600060208201905081810360008301526135eb81613185565b9050919050565b6000602082019050818103600083015261360b816131a8565b9050919050565b6000602082019050818103600083015261362b816131cb565b9050919050565b6000602082019050818103600083015261364b816131ee565b9050919050565b6000602082019050818103600083015261366b81613211565b9050919050565b6000602082019050818103600083015261368b81613234565b9050919050565b600060208201905081810360008301526136ab81613257565b9050919050565b600060208201905081810360008301526136cb8161327a565b9050919050565b600060208201905081810360008301526136eb8161329d565b9050919050565b6000602082019050818103600083015261370b816132c0565b9050919050565b6000602082019050818103600083015261372b816132e3565b9050919050565b6000602082019050818103600083015261374b81613306565b9050919050565b6000602082019050818103600083015261376b81613329565b9050919050565b6000602082019050818103600083015261378b8161334c565b9050919050565b600060208201905081810360008301526137ab8161336f565b9050919050565b600060208201905081810360008301526137cb81613392565b9050919050565b600060208201905081810360008301526137eb816133b5565b9050919050565b6000602082019050818103600083015261380b816133d8565b9050919050565b6000602082019050818103600083015261382b816133fb565b9050919050565b6000602082019050818103600083015261384b8161341e565b9050919050565b6000602082019050818103600083015261386b81613441565b9050919050565b60006020820190506138876000830184613464565b92915050565b600060a0820190506138a26000830188613464565b81810360208301526138b4818761308f565b90506138c36040830186613029565b6138d06060830185613464565b6138dd6080830184613047565b9695505050505050565b60006138f1613902565b90506138fd8282613c18565b919050565b6000604051905090565b600067ffffffffffffffff82111561392757613926613d50565b5b602082029050602081019050919050565b600067ffffffffffffffff82111561395357613952613d50565b5b602082029050602081019050919050565b600067ffffffffffffffff82111561397f5761397e613d50565b5b61398882613d7f565b9050602081019050919050565b600067ffffffffffffffff8211156139b0576139af613d50565b5b6139b982613d7f565b9050602081019050919050565b600081519050919050565b600081519050919050565b600082825260208201905092915050565b600082825260208201905092915050565b600081905092915050565b6000613a1482613b9a565b9150613a1f83613b9a565b9250827fffffffffffffffffffffffffffffffffffffffffffffffffffffffffffffffff03821115613a5457613a53613cc3565b5b828201905092915050565b6000613a6a82613b9a565b9150613a7583613b9a565b925082613a8557613a84613cf2565b5b828204905092915050565b6000613a9b82613b9a565b9150613aa683613b9a565b9250817fffffffffffffffffffffffffffffffffffffffffffffffffffffffffffffffff0483118215151615613adf57613ade613cc3565b5b828202905092915050565b6000613af582613b9a565b9150613b0083613b9a565b925082821015613b1357613b12613cc3565b5b828203905092915050565b6000613b2982613b7a565b9050919050565b6000613b3b82613b7a565b9050919050565b60008115159050919050565b60007fffffffff0000000000000000000000000000000000000000000000000000000082169050919050565b600073ffffffffffffffffffffffffffffffffffffffff82169050919050565b6000819050919050565b82818337600083830152505050565b60005b83811015613bd1578082015181840152602081019050613bb6565b83811115613be0576000848401525b50505050565b60006002820490506001821680613bfe57607f821691505b60208210811415613c1257613c11613d21565b5b50919050565b613c2182613d7f565b810181811067ffffffffffffffff82111715613c4057613c3f613d50565b5b80604052505050565b6000613c5482613b9a565b91507fffffffffffffffffffffffffffffffffffffffffffffffffffffffffffffffff821415613c8757613c86613cc3565b5b600182019050919050565b6000613c9d82613b9a565b9150613ca883613b9a565b925082613cb857613cb7613cf2565b5b828206905092915050565b7f4e487b7100000000000000000000000000000000000000000000000000000000600052601160045260246000fd5b7f4e487b7100000000000000000000000000000000000000000000000000000000600052601260045260246000fd5b7f4e487b7100000000000000000000000000000000000000000000000000000000600052602260045260246000fd5b7f4e487b7100000000000000000000000000000000000000000000000000000000600052604160045260246000fd5b6000601f19601f8301169050919050565b7f4552433732313a207472616e7366657220746f206e6f6e20455243373231526560008201527f63656976657220696d706c656d656e7465720000000000000000000000000000602082015250565b7f4f776e61626c653a206e6577206f776e657220697320746865207a65726f206160008201527f6464726573730000000000000000000000000000000000000000000000000000602082015250565b7f54686520636f6c6f7273206172726179206c656e67746820646f6573206e6f7460008201527f206d617463682074686520636f6f7264696e61746573206172726179206c656e60208201527f6774682e00000000000000000000000000000000000000000000000000000000604082015250565b7f4552433732313a20746f6b656e20616c7265616479206d696e74656400000000600082015250565b7f596f7520617265206e6f7420746865206f776e6572206f66207468697320706960008201527f78656c2e00000000000000000000000000000000000000000000000000000000602082015250565b7f546865206e657720636f6c6f7220616e6420707269636520617265207468652060008201527f73616d65206173207468652063757272656e74206f6e65732e00000000000000602082015250565b7f4552433732313a207472616e7366657220746f20746865207a65726f2061646460008201527f7265737300000000000000000000000000000000000000000000000000000000602082015250565b7f4552433732313a20617070726f766520746f2063616c6c657200000000000000600082015250565b7f5468652077656920707269636573206172726179206c656e67746820646f657360008201527f206e6f74206d617463682074686520636f6f7264696e6174657320617272617960208201527f206c656e6774682e000000000000000000000000000000000000000000000000604082015250565b7f4552433732313a206f70657261746f7220717565727920666f72206e6f6e657860008201527f697374656e7420746f6b656e0000000000000000000000000000000000000000602082015250565b7f436f6f7264696e61746520666f722074686520706978656c206973206f75742060008201527f6f66206c696d6974732e2030203c3d20636f6f7264696e617465203c2032353660208201527f202a203235360000000000000000000000000000000000000000000000000000604082015250565b7f496e76616c69642048455820636f6c6f7220636f64652e20456a3a202346463060008201527f3030300000000000000000000000000000000000000000000000000000000000602082015250565b7f496e76616c696420636f6f7264696e617465732e204f7574206f66206c696d6960008201527f7473206f722074686520706978656c20686173206e6f7420796574206265656e60208201527f206d696e7465642e000000000000000000000000000000000000000000000000604082015250565b7f4552433732313a20617070726f76652063616c6c6572206973206e6f74206f7760008201527f6e6572206e6f7220617070726f76656420666f7220616c6c0000000000000000602082015250565b7f4552433732313a2062616c616e636520717565727920666f7220746865207a6560008201527f726f206164647265737300000000000000000000000000000000000000000000602082015250565b7f4552433732313a206f776e657220717565727920666f72206e6f6e657869737460008201527f656e7420746f6b656e0000000000000000000000000000000000000000000000602082015250565b7f4552433732313a206d696e7420746f20746865207a65726f2061646472657373600082015250565b7f4552433732313a20617070726f76656420717565727920666f72206e6f6e657860008201527f697374656e7420746f6b656e0000000000000000000000000000000000000000602082015250565b7f4f776e61626c653a2063616c6c6572206973206e6f7420746865206f776e6572600082015250565b7f4552433732313a207472616e73666572206f6620746f6b656e2074686174206960008201527f73206e6f74206f776e0000000000000000000000000000000000000000000000602082015250565b7f4552433732314d657461646174613a2055524920717565727920666f72206e6f60008201527f6e6578697374656e7420746f6b656e0000000000000000000000000000000000602082015250565b7f4552433732313a20617070726f76616c20746f2063757272656e74206f776e6560008201527f7200000000000000000000000000000000000000000000000000000000000000602082015250565b7f4552433732313a207472616e736665722063616c6c6572206973206e6f74206f60008201527f776e6572206e6f7220617070726f766564000000000000000000000000000000602082015250565b7f506978656c2068617320616c7265616479206265656e206d696e7465642e0000600082015250565b7f546865206e6577206261736520555249206973207468652073616d652061732060008201527f7468652063757272656e74206f6e652c00000000000000000000000000000000602082015250565b61452a81613b1e565b811461453557600080fd5b50565b61454181613b42565b811461454c57600080fd5b50565b61455881613b4e565b811461456357600080fd5b50565b61456f81613b9a565b811461457a57600080fd5b5056fea2646970667358221220f88229cb13569792bca89c249e57396665f7cd48670a1b9e41e64f1f20b845f464736f6c63430008040033",
  "immutableReferences": {},
  "source": "// SPDX-License-Identifier: MIT\r\npragma solidity ^0.8.0;\r\n\r\nimport \"@openzeppelin/contracts/token/ERC721/ERC721.sol\";\r\nimport \"@openzeppelin/contracts/access/Ownable.sol\";\r\nimport \"@openzeppelin/contracts/security/Pausable.sol\";\r\n\r\n/**\r\n    @title An image where each pixel is an NFT\r\n    @author Carles Rojas\r\n    @notice You can use this contract to change the color of your pixels, trade them or mint new ones (Up to a limit).\r\n*/\r\ncontract CryptoPlace is ERC721, Ownable, Pausable {\r\n    // ##################################################################\r\n    //    GLOBAR VARS\r\n    // ##################################################################\r\n\r\n    uint256 public constant NUM_ROWS = 256;\r\n    uint256 public constant PIXEL_LIMIT = NUM_ROWS * NUM_ROWS;\r\n    uint256 public pixelCount;\r\n    uint256[] public mintedPixels;\r\n    mapping(uint256 => Pixel) public pixels;\r\n\r\n    // ##################################################################\r\n    //    STRUCTS\r\n    // ##################################################################\r\n\r\n    /**\r\n        @notice Represents a pixel. With coordinates, color, owner, wei price and whether it has been minted\r\n    */\r\n    struct Pixel {\r\n        uint256 coords;\r\n        string color;\r\n        address payable owner;\r\n        uint256 weiPrice;\r\n        bool exists;\r\n    }\r\n\r\n    // ##################################################################\r\n    //    MAIN FUNCTIONS\r\n    // ##################################################################\r\n\r\n    /**\r\n        @notice The constructor for the CryptoPlace contract\r\n    */\r\n    constructor() ERC721(\"Pixel\", \"PXL\") {}\r\n\r\n    /**\r\n        @notice Create a new pixel.\r\n        @param _coords The coordinates of the pixel being minted: coordinates = column * number_of_rows + row\r\n        @param _color The color the pixel will have once minted\r\n        @param _initialWeiPrice The selling price the pixel will have after being minted in wei\r\n    */\r\n    function mint(\r\n        uint256 _coords,\r\n        string memory _color,\r\n        uint256 _initialWeiPrice\r\n    ) public {\r\n        // Do not create if coordinate already exists\r\n        require(!pixels[_coords].exists, \"Pixel has already been minted.\");\r\n\r\n        // Coords can not be bigger than the pixel limit\r\n        require(_coords < PIXEL_LIMIT, \"Coordinate for the pixel is out of limits. 0 <= coordinate < 256 * 256\");\r\n\r\n        // Only accept valid colors\r\n        require(isColor(_color), \"Invalid HEX color code. Ej: #FF0000\");\r\n\r\n        // Increment the pixel count\r\n        pixelCount++;\r\n\r\n        // Mint pixel\r\n        _mint(msg.sender, _coords);\r\n\r\n        // Add to minted pixels array\r\n        mintedPixels.push(_coords);\r\n\r\n        // Save the pixel\r\n        pixels[_coords] = Pixel(\r\n            _coords,\r\n            _color,\r\n            payable(msg.sender),\r\n            _initialWeiPrice,\r\n            true\r\n        );\r\n    }\r\n\r\n    /**\r\n        @notice Create a batch of pixels\r\n        @param _coordsToMint An array of pixel  coordinates to be minted: coordinates = column * number_of_rows + row\r\n        @param _colors An array with colors for each pixel being minted\r\n        @param _initialWeiPrices An array with initial prices in wei for each pixel being minted\r\n    */\r\n    function mintBatch(\r\n        uint256[] memory _coordsToMint,\r\n        string[] memory _colors,\r\n        uint256[] memory _initialWeiPrices\r\n    ) public onlyOwner {\r\n        // The _coordsToMint array size has to match the _colors array size\r\n        require(_coordsToMint.length == _colors.length, \"The colors array length does not match the coordinates array length.\");\r\n\r\n        // The _coordsToMint array size has to match the _initialWeiPrices array size\r\n        require(_coordsToMint.length == _initialWeiPrices.length, \"The wei prices array length does not match the coordinates array length.\");\r\n\r\n        for (uint256 i = 0; i < _coordsToMint.length; i++) {\r\n            mint(_coordsToMint[i], _colors[i], _initialWeiPrices[i]);\r\n        }\r\n    }\r\n\r\n    /**\r\n        @notice Change the color and / or selling price of a pixel\r\n        @param _coords The coordinates of the pixel: coordinates = column * number_of_rows + row\r\n        @param _color The new color the pixel will have\r\n        @param _weiPrice The new wei price the pixel will have\r\n    */\r\n    function changeColorAndPrice(\r\n        uint256 _coords,\r\n        string memory _color,\r\n        uint256 _weiPrice\r\n    ) public {\r\n        // Do not change color if it does not exists\r\n        require(pixels[_coords].exists, \"Invalid coordinates. Out of limits or the pixel has not yet been minted.\");\r\n\r\n        // Fetch the pixel\r\n        Pixel memory _pixel = pixels[_coords];\r\n\r\n        // Check that the owner is correct\r\n        require(_pixel.owner == msg.sender, \"You are not the owner of this pixel.\");\r\n\r\n        // Only accept valid colors\r\n        require(isColor(_color), \"Invalid HEX color code. Ej: #FF0000\");\r\n\r\n        // Check that the color is different than the old one or the price is diferent from the old one\r\n        require(\r\n            !stringsAreEqual(_color, _pixel.color) ||\r\n                _weiPrice != _pixel.weiPrice, \"The new color and price are the same as the current ones.\"\r\n        );\r\n\r\n        // Change color & price\r\n        _pixel.color = _color;\r\n        _pixel.weiPrice = _weiPrice;\r\n\r\n        // Save pixel\r\n        pixels[_coords] = _pixel;\r\n    }\r\n\r\n    // ##################################################################\r\n    //    ADD TOKEN URI\r\n    // ##################################################################\r\n\r\n    // Base URI\r\n    string private baseURI;\r\n\r\n    /**\r\n        @notice Set the new base URI for all the pixels\r\n        @param baseURI_ The new base URI\r\n    */\r\n    function setBaseURI(string memory baseURI_) public onlyOwner {\r\n        // Check that the color is different than the old one\r\n        require(!stringsAreEqual(baseURI, baseURI_), \"The new base URI is the same as the current one,\");\r\n\r\n        baseURI = baseURI_;\r\n    }\r\n\r\n    /**\r\n        @notice Get the base URI for the pixels\r\n        @return Returns the base URI for the pixels\r\n    */\r\n    function _baseURI() internal view virtual override returns (string memory) {\r\n        return baseURI;\r\n    }\r\n\r\n    // ##################################################################\r\n    //    AUX FUNCTIONS\r\n    // ##################################################################\r\n\r\n    /**\r\n        @notice Checks if two strings are equal\r\n        @param _s1 The first string to compare\r\n        @param _s2 The second string to compare\r\n        @return True if the strings are equal\r\n    */\r\n    function stringsAreEqual(string memory _s1, string memory _s2)\r\n        public\r\n        pure\r\n        returns (bool)\r\n    {\r\n        return\r\n            keccak256(abi.encodePacked(_s1)) ==\r\n            keccak256(abi.encodePacked(_s2));\r\n    }\r\n\r\n    /**\r\n        @notice Checks if a color is a valid HEX color code\r\n        @param _color The HEX color code to check\r\n        @return True if the string is a valid HEX color code\r\n    */\r\n    function isColor(string memory _color) public pure returns (bool) {\r\n        // String to bytes\r\n        bytes memory b = bytes(_color);\r\n\r\n        // Not correct length\r\n        if (b.length != 7) return false;\r\n\r\n        // First charater must be '#'\r\n        if (b[0] != 0x23) return false;\r\n\r\n        // Other characters have to be 1-9 or A-F or a-f\r\n        for (uint256 i = 1; i < b.length; i++) {\r\n            bytes1 char = b[i];\r\n\r\n            if (\r\n                !(char >= 0x30 && char <= 0x39) && // 0-9\r\n                !(char >= 0x41 && char <= 0x46) && // A-F\r\n                !(char >= 0x61 && char <= 0x66) // a-f\r\n            ) return false;\r\n        }\r\n\r\n        // String is a color hex value\r\n        return true;\r\n    }\r\n}\r\n",
  "sourcePath": "/mnt/c/Users/Carles' PC/Documents/Repos/CryptoPlace/src/contracts/CryptoPlace.sol",
  "compiler": {
    "name": "solc",
    "version": "0.8.4+commit.c7e474f2.Emscripten.clang"
  },
  "schemaVersion": "3.4.1",
  "updatedAt": "2021-06-02T11:38:19.347Z",
  "networkType": "ethereum",
  "devdoc": {
    "author": "Carles Rojas",
    "kind": "dev",
    "methods": {
      "approve(address,uint256)": {
        "details": "See {IERC721-approve}."
      },
      "balanceOf(address)": {
        "details": "See {IERC721-balanceOf}."
      },
      "changeColorAndPrice(uint256,string,uint256)": {
        "params": {
          "_color": "The new color the pixel will have",
          "_coords": "The coordinates of the pixel: coordinates = column * number_of_rows + row",
          "_weiPrice": "The new wei price the pixel will have"
        }
      },
      "getApproved(uint256)": {
        "details": "See {IERC721-getApproved}."
      },
      "isApprovedForAll(address,address)": {
        "details": "See {IERC721-isApprovedForAll}."
      },
      "isColor(string)": {
        "params": {
          "_color": "The HEX color code to check"
        },
        "returns": {
          "_0": "True if the string is a valid HEX color code"
        }
      },
      "mint(uint256,string,uint256)": {
        "params": {
          "_color": "The color the pixel will have once minted",
          "_coords": "The coordinates of the pixel being minted: coordinates = column * number_of_rows + row",
          "_initialWeiPrice": "The selling price the pixel will have after being minted in wei"
        }
      },
      "mintBatch(uint256[],string[],uint256[])": {
        "params": {
          "_colors": "An array with colors for each pixel being minted",
          "_coordsToMint": "An array of pixel  coordinates to be minted: coordinates = column * number_of_rows + row",
          "_initialWeiPrices": "An array with initial prices in wei for each pixel being minted"
        }
      },
      "name()": {
        "details": "See {IERC721Metadata-name}."
      },
      "owner()": {
        "details": "Returns the address of the current owner."
      },
      "ownerOf(uint256)": {
        "details": "See {IERC721-ownerOf}."
      },
      "paused()": {
        "details": "Returns true if the contract is paused, and false otherwise."
      },
      "renounceOwnership()": {
        "details": "Leaves the contract without owner. It will not be possible to call `onlyOwner` functions anymore. Can only be called by the current owner. NOTE: Renouncing ownership will leave the contract without an owner, thereby removing any functionality that is only available to the owner."
      },
      "safeTransferFrom(address,address,uint256)": {
        "details": "See {IERC721-safeTransferFrom}."
      },
      "safeTransferFrom(address,address,uint256,bytes)": {
        "details": "See {IERC721-safeTransferFrom}."
      },
      "setApprovalForAll(address,bool)": {
        "details": "See {IERC721-setApprovalForAll}."
      },
      "setBaseURI(string)": {
        "params": {
          "baseURI_": "The new base URI"
        }
      },
      "stringsAreEqual(string,string)": {
        "params": {
          "_s1": "The first string to compare",
          "_s2": "The second string to compare"
        },
        "returns": {
          "_0": "True if the strings are equal"
        }
      },
      "supportsInterface(bytes4)": {
        "details": "See {IERC165-supportsInterface}."
      },
      "symbol()": {
        "details": "See {IERC721Metadata-symbol}."
      },
      "tokenURI(uint256)": {
        "details": "See {IERC721Metadata-tokenURI}."
      },
      "transferFrom(address,address,uint256)": {
        "details": "See {IERC721-transferFrom}."
      },
      "transferOwnership(address)": {
        "details": "Transfers ownership of the contract to a new account (`newOwner`). Can only be called by the current owner."
      }
    },
    "title": "An image where each pixel is an NFT",
    "version": 1
  },
  "userdoc": {
    "kind": "user",
    "methods": {
      "changeColorAndPrice(uint256,string,uint256)": {
        "notice": "Change the color and / or selling price of a pixel"
      },
      "constructor": {
        "notice": "The constructor for the CryptoPlace contract"
      },
      "isColor(string)": {
        "notice": "Checks if a color is a valid HEX color code"
      },
      "mint(uint256,string,uint256)": {
        "notice": "Create a new pixel."
      },
      "mintBatch(uint256[],string[],uint256[])": {
        "notice": "Create a batch of pixels"
      },
      "setBaseURI(string)": {
        "notice": "Set the new base URI for all the pixels"
      },
      "stringsAreEqual(string,string)": {
        "notice": "Checks if two strings are equal"
      }
    },
    "notice": "You can use this contract to change the color of your pixels, trade them or mint new ones (Up to a limit).",
    "version": 1
  }
}