{
  "contractName": "CryptoBoard",
  "abi": [
    {
      "inputs": [],
      "stateMutability": "nonpayable",
      "type": "constructor"
    },
    {
      "anonymous": false,
      "inputs": [
        {
          "indexed": true,
          "internalType": "address",
          "name": "owner",
          "type": "address"
        },
        {
          "indexed": true,
          "internalType": "address",
          "name": "approved",
          "type": "address"
        },
        {
          "indexed": true,
          "internalType": "uint256",
          "name": "tokenId",
          "type": "uint256"
        }
      ],
      "name": "Approval",
      "type": "event"
    },
    {
      "anonymous": false,
      "inputs": [
        {
          "indexed": true,
          "internalType": "address",
          "name": "owner",
          "type": "address"
        },
        {
          "indexed": true,
          "internalType": "address",
          "name": "operator",
          "type": "address"
        },
        {
          "indexed": false,
          "internalType": "bool",
          "name": "approved",
          "type": "bool"
        }
      ],
      "name": "ApprovalForAll",
      "type": "event"
    },
    {
      "anonymous": false,
      "inputs": [
        {
          "indexed": false,
          "internalType": "uint256",
          "name": "coords",
          "type": "uint256"
        },
        {
          "indexed": false,
          "internalType": "string",
          "name": "color",
          "type": "string"
        },
        {
          "indexed": false,
          "internalType": "address payable",
          "name": "author",
          "type": "address"
        },
        {
          "indexed": false,
          "internalType": "bool",
          "name": "exists",
          "type": "bool"
        }
      ],
      "name": "PixelColorChanged",
      "type": "event"
    },
    {
      "anonymous": false,
      "inputs": [
        {
          "indexed": true,
          "internalType": "address",
          "name": "from",
          "type": "address"
        },
        {
          "indexed": true,
          "internalType": "address",
          "name": "to",
          "type": "address"
        },
        {
          "indexed": true,
          "internalType": "uint256",
          "name": "tokenId",
          "type": "uint256"
        }
      ],
      "name": "Transfer",
      "type": "event"
    },
    {
      "inputs": [
        {
          "internalType": "address",
          "name": "to",
          "type": "address"
        },
        {
          "internalType": "uint256",
          "name": "tokenId",
          "type": "uint256"
        }
      ],
      "name": "approve",
      "outputs": [],
      "stateMutability": "nonpayable",
      "type": "function"
    },
    {
      "inputs": [
        {
          "internalType": "address",
          "name": "owner",
          "type": "address"
        }
      ],
      "name": "balanceOf",
      "outputs": [
        {
          "internalType": "uint256",
          "name": "",
          "type": "uint256"
        }
      ],
      "stateMutability": "view",
      "type": "function",
      "constant": true
    },
    {
      "inputs": [
        {
          "internalType": "uint256",
          "name": "tokenId",
          "type": "uint256"
        }
      ],
      "name": "getApproved",
      "outputs": [
        {
          "internalType": "address",
          "name": "",
          "type": "address"
        }
      ],
      "stateMutability": "view",
      "type": "function",
      "constant": true
    },
    {
      "inputs": [
        {
          "internalType": "address",
          "name": "owner",
          "type": "address"
        },
        {
          "internalType": "address",
          "name": "operator",
          "type": "address"
        }
      ],
      "name": "isApprovedForAll",
      "outputs": [
        {
          "internalType": "bool",
          "name": "",
          "type": "bool"
        }
      ],
      "stateMutability": "view",
      "type": "function",
      "constant": true
    },
    {
      "inputs": [],
      "name": "name",
      "outputs": [
        {
          "internalType": "string",
          "name": "",
          "type": "string"
        }
      ],
      "stateMutability": "view",
      "type": "function",
      "constant": true
    },
    {
      "inputs": [],
      "name": "numRows",
      "outputs": [
        {
          "internalType": "uint256",
          "name": "",
          "type": "uint256"
        }
      ],
      "stateMutability": "view",
      "type": "function",
      "constant": true
    },
    {
      "inputs": [],
      "name": "owner",
      "outputs": [
        {
          "internalType": "address",
          "name": "",
          "type": "address"
        }
      ],
      "stateMutability": "view",
      "type": "function",
      "constant": true
    },
    {
      "inputs": [
        {
          "internalType": "uint256",
          "name": "tokenId",
          "type": "uint256"
        }
      ],
      "name": "ownerOf",
      "outputs": [
        {
          "internalType": "address",
          "name": "",
          "type": "address"
        }
      ],
      "stateMutability": "view",
      "type": "function",
      "constant": true
    },
    {
      "inputs": [],
      "name": "pixelCount",
      "outputs": [
        {
          "internalType": "uint256",
          "name": "",
          "type": "uint256"
        }
      ],
      "stateMutability": "view",
      "type": "function",
      "constant": true
    },
    {
      "inputs": [],
      "name": "pixelLimit",
      "outputs": [
        {
          "internalType": "uint256",
          "name": "",
          "type": "uint256"
        }
      ],
      "stateMutability": "view",
      "type": "function",
      "constant": true
    },
    {
      "inputs": [
        {
          "internalType": "uint256",
          "name": "",
          "type": "uint256"
        }
      ],
      "name": "pixels",
      "outputs": [
        {
          "internalType": "uint256",
          "name": "coords",
          "type": "uint256"
        },
        {
          "internalType": "string",
          "name": "color",
          "type": "string"
        },
        {
          "internalType": "address payable",
          "name": "author",
          "type": "address"
        },
        {
          "internalType": "bool",
          "name": "exists",
          "type": "bool"
        }
      ],
      "stateMutability": "view",
      "type": "function",
      "constant": true
    },
    {
      "inputs": [
        {
          "internalType": "address",
          "name": "from",
          "type": "address"
        },
        {
          "internalType": "address",
          "name": "to",
          "type": "address"
        },
        {
          "internalType": "uint256",
          "name": "tokenId",
          "type": "uint256"
        }
      ],
      "name": "safeTransferFrom",
      "outputs": [],
      "stateMutability": "nonpayable",
      "type": "function"
    },
    {
      "inputs": [
        {
          "internalType": "address",
          "name": "from",
          "type": "address"
        },
        {
          "internalType": "address",
          "name": "to",
          "type": "address"
        },
        {
          "internalType": "uint256",
          "name": "tokenId",
          "type": "uint256"
        },
        {
          "internalType": "bytes",
          "name": "_data",
          "type": "bytes"
        }
      ],
      "name": "safeTransferFrom",
      "outputs": [],
      "stateMutability": "nonpayable",
      "type": "function"
    },
    {
      "inputs": [
        {
          "internalType": "address",
          "name": "operator",
          "type": "address"
        },
        {
          "internalType": "bool",
          "name": "approved",
          "type": "bool"
        }
      ],
      "name": "setApprovalForAll",
      "outputs": [],
      "stateMutability": "nonpayable",
      "type": "function"
    },
    {
      "inputs": [
        {
          "internalType": "bytes4",
          "name": "interfaceId",
          "type": "bytes4"
        }
      ],
      "name": "supportsInterface",
      "outputs": [
        {
          "internalType": "bool",
          "name": "",
          "type": "bool"
        }
      ],
      "stateMutability": "view",
      "type": "function",
      "constant": true
    },
    {
      "inputs": [],
      "name": "symbol",
      "outputs": [
        {
          "internalType": "string",
          "name": "",
          "type": "string"
        }
      ],
      "stateMutability": "view",
      "type": "function",
      "constant": true
    },
    {
      "inputs": [
        {
          "internalType": "uint256",
          "name": "tokenId",
          "type": "uint256"
        }
      ],
      "name": "tokenURI",
      "outputs": [
        {
          "internalType": "string",
          "name": "",
          "type": "string"
        }
      ],
      "stateMutability": "view",
      "type": "function",
      "constant": true
    },
    {
      "inputs": [
        {
          "internalType": "address",
          "name": "from",
          "type": "address"
        },
        {
          "internalType": "address",
          "name": "to",
          "type": "address"
        },
        {
          "internalType": "uint256",
          "name": "tokenId",
          "type": "uint256"
        }
      ],
      "name": "transferFrom",
      "outputs": [],
      "stateMutability": "nonpayable",
      "type": "function"
    },
    {
      "inputs": [
        {
          "internalType": "uint256",
          "name": "_coord",
          "type": "uint256"
        },
        {
          "internalType": "string",
          "name": "_color",
          "type": "string"
        }
      ],
      "name": "mint",
      "outputs": [],
      "stateMutability": "nonpayable",
      "type": "function"
    },
    {
      "inputs": [
        {
          "internalType": "uint256",
          "name": "amount",
          "type": "uint256"
        }
      ],
      "name": "mintBatch",
      "outputs": [],
      "stateMutability": "nonpayable",
      "type": "function"
    },
    {
      "inputs": [
        {
          "internalType": "uint256",
          "name": "_coord",
          "type": "uint256"
        },
        {
          "internalType": "string",
          "name": "_color",
          "type": "string"
        }
      ],
      "name": "changeColor",
      "outputs": [],
      "stateMutability": "nonpayable",
      "type": "function"
    },
    {
      "inputs": [
        {
          "internalType": "string",
          "name": "s1",
          "type": "string"
        },
        {
          "internalType": "string",
          "name": "s2",
          "type": "string"
        }
      ],
      "name": "stringsAreEqual",
      "outputs": [
        {
          "internalType": "bool",
          "name": "",
          "type": "bool"
        }
      ],
      "stateMutability": "pure",
      "type": "function",
      "constant": true
    },
    {
      "inputs": [
        {
          "internalType": "string",
          "name": "_color",
          "type": "string"
        }
      ],
      "name": "isColor",
      "outputs": [
        {
          "internalType": "bool",
          "name": "",
          "type": "bool"
        }
      ],
      "stateMutability": "pure",
      "type": "function",
      "constant": true
    },
    {
      "inputs": [
        {
          "internalType": "string",
          "name": "baseURI_",
          "type": "string"
        }
      ],
      "name": "setBaseURI",
      "outputs": [],
      "stateMutability": "nonpayable",
      "type": "function"
    }
  ],
  "bytecode": "0x608060405233600a60006101000a81548173ffffffffffffffffffffffffffffffffffffffff021916908373ffffffffffffffffffffffffffffffffffffffff1602179055503480156200005257600080fd5b506040518060400160405280600581526020017f506978656c0000000000000000000000000000000000000000000000000000008152506040518060400160405280600381526020017f50584c00000000000000000000000000000000000000000000000000000000008152508160009080519060200190620000d792919062000109565b508060019080519060200190620000f092919062000109565b505050600560068190555060196008819055506200021e565b8280546200011790620001b9565b90600052602060002090601f0160209004810192826200013b576000855562000187565b82601f106200015657805160ff191683800117855562000187565b8280016001018555821562000187579182015b828111156200018657825182559160200191906001019062000169565b5b5090506200019691906200019a565b5090565b5b80821115620001b55760008160009055506001016200019b565b5090565b60006002820490506001821680620001d257607f821691505b60208210811415620001e957620001e8620001ef565b5b50919050565b7f4e487b7100000000000000000000000000000000000000000000000000000000600052602260045260246000fd5b61359e806200022e6000396000f3fe608060405234801561001057600080fd5b50600436106101585760003560e01c806377097fc8116100c3578063c87b56dd1161007c578063c87b56dd146103d8578063c9be7bb514610408578063cf68d97e14610426578063df57a8f414610442578063e985e9c514610460578063fe7fdced1461049057610158565b806377097fc8146103155780638da5cb5b146103315780638da7f2321461034f57806395d89b4114610382578063a22cb465146103a0578063b88d4fde146103bc57610158565b806342842e0e1161011557806342842e0e1461022f57806355f804b31461024b5780636352211e146102675780636f6333401461029757806370a08231146102c757806373d3e6d7146102f757610158565b806301ffc9a71461015d57806306fdde031461018d578063081812fc146101ab578063095ea7b3146101db57806320e409b4146101f757806323b872dd14610213575b600080fd5b610177600480360381019061017291906125ea565b6104c0565b6040516101849190612ad1565b60405180910390f35b6101956105a2565b6040516101a29190612aec565b60405180910390f35b6101c560048036038101906101c091906126e9565b610634565b6040516101d29190612a6a565b60405180910390f35b6101f560048036038101906101f091906125ae565b6106b9565b005b610211600480360381019061020c91906126e9565b6107d1565b005b61022d600480360381019061022891906124a8565b6108a4565b005b610249600480360381019061024491906124a8565b610904565b005b6102656004803603810190610260919061263c565b610924565b005b610281600480360381019061027c91906126e9565b610a38565b60405161028e9190612a6a565b60405180910390f35b6102b160048036038101906102ac919061267d565b610aea565b6040516102be9190612ad1565b60405180910390f35b6102e160048036038101906102dc9190612443565b610b43565b6040516102ee9190612cce565b60405180910390f35b6102ff610bfb565b60405161030c9190612cce565b60405180910390f35b61032f600480360381019061032a9190612712565b610c01565b005b610339610db1565b6040516103469190612a6a565b60405180910390f35b610369600480360381019061036491906126e9565b610dd7565b6040516103799493929190612ce9565b60405180910390f35b61038a610ebc565b6040516103979190612aec565b60405180910390f35b6103ba60048036038101906103b59190612572565b610f4e565b005b6103d660048036038101906103d191906124f7565b6110cf565b005b6103f260048036038101906103ed91906126e9565b611131565b6040516103ff9190612aec565b60405180910390f35b6104106111d8565b60405161041d9190612cce565b60405180910390f35b610440600480360381019061043b9190612712565b6111de565b005b61044a6114a0565b6040516104579190612cce565b60405180910390f35b61047a6004803603810190610475919061246c565b6114a6565b6040516104879190612ad1565b60405180910390f35b6104aa60048036038101906104a5919061263c565b61153a565b6040516104b79190612ad1565b60405180910390f35b60007f80ac58cd000000000000000000000000000000000000000000000000000000007bffffffffffffffffffffffffffffffffffffffffffffffffffffffff1916827bffffffffffffffffffffffffffffffffffffffffffffffffffffffff1916148061058b57507f5b5e139f000000000000000000000000000000000000000000000000000000007bffffffffffffffffffffffffffffffffffffffffffffffffffffffff1916827bffffffffffffffffffffffffffffffffffffffffffffffffffffffff1916145b8061059b575061059a8261177e565b5b9050919050565b6060600080546105b190612f82565b80601f01602080910402602001604051908101604052809291908181526020018280546105dd90612f82565b801561062a5780601f106105ff5761010080835404028352916020019161062a565b820191906000526020600020905b81548152906001019060200180831161060d57829003601f168201915b5050505050905090565b600061063f826117e8565b61067e576040517f08c379a000000000000000000000000000000000000000000000000000000000815260040161067590612c2e565b60405180910390fd5b6004600083815260200190815260200160002060009054906101000a900473ffffffffffffffffffffffffffffffffffffffff169050919050565b60006106c482610a38565b90508073ffffffffffffffffffffffffffffffffffffffff168373ffffffffffffffffffffffffffffffffffffffff161415610735576040517f08c379a000000000000000000000000000000000000000000000000000000000815260040161072c90612c8e565b60405180910390fd5b8073ffffffffffffffffffffffffffffffffffffffff16610754611854565b73ffffffffffffffffffffffffffffffffffffffff16148061078357506107828161077d611854565b6114a6565b5b6107c2576040517f08c379a00000000000000000000000000000000000000000000000000000000081526004016107b990612bae565b60405180910390fd5b6107cc838361185c565b505050565b600a60009054906101000a900473ffffffffffffffffffffffffffffffffffffffff168073ffffffffffffffffffffffffffffffffffffffff163373ffffffffffffffffffffffffffffffffffffffff161461082c57600080fd5b6000600754905060008190505b83826108459190612dff565b81101561089e5761088b816040518060400160405280600781526020017f2346464646464600000000000000000000000000000000000000000000000000815250610c01565b808061089690612fe5565b915050610839565b50505050565b6108b56108af611854565b82611915565b6108f4576040517f08c379a00000000000000000000000000000000000000000000000000000000081526004016108eb90612cae565b60405180910390fd5b6108ff8383836119f3565b505050565b61091f838383604051806020016040528060008152506110cf565b505050565b600a60009054906101000a900473ffffffffffffffffffffffffffffffffffffffff168073ffffffffffffffffffffffffffffffffffffffff163373ffffffffffffffffffffffffffffffffffffffff161461097f57600080fd5b610a13600b805461098f90612f82565b80601f01602080910402602001604051908101604052809291908181526020018280546109bb90612f82565b8015610a085780601f106109dd57610100808354040283529160200191610a08565b820191906000526020600020905b8154815290600101906020018083116109eb57829003601f168201915b505050505083610aea565b15610a1d57600080fd5b81600b9080519060200190610a33929190612267565b505050565b6000806002600084815260200190815260200160002060009054906101000a900473ffffffffffffffffffffffffffffffffffffffff169050600073ffffffffffffffffffffffffffffffffffffffff168173ffffffffffffffffffffffffffffffffffffffff161415610ae1576040517f08c379a0000000000000000000000000000000000000000000000000000000008152600401610ad890612bee565b60405180910390fd5b80915050919050565b600081604051602001610afd9190612a2f565b6040516020818303038152906040528051906020012083604051602001610b249190612a2f565b6040516020818303038152906040528051906020012014905092915050565b60008073ffffffffffffffffffffffffffffffffffffffff168273ffffffffffffffffffffffffffffffffffffffff161415610bb4576040517f08c379a0000000000000000000000000000000000000000000000000000000008152600401610bab90612bce565b60405180910390fd5b600360008373ffffffffffffffffffffffffffffffffffffffff1673ffffffffffffffffffffffffffffffffffffffff168152602001908152602001600020549050919050565b60075481565b600a60009054906101000a900473ffffffffffffffffffffffffffffffffffffffff168073ffffffffffffffffffffffffffffffffffffffff163373ffffffffffffffffffffffffffffffffffffffff1614610c5c57600080fd5b6009600084815260200190815260200160002060020160149054906101000a900460ff1615610c8a57600080fd5b60085460075410610c9a57600080fd5b610ca38261153a565b610cac57600080fd5b60076000815480929190610cbf90612fe5565b9190505550610cce3384611c4f565b60405180608001604052808481526020018381526020013373ffffffffffffffffffffffffffffffffffffffff1681526020016001151581525060096000858152602001908152602001600020600082015181600001556020820151816001019080519060200190610d41929190612267565b5060408201518160020160006101000a81548173ffffffffffffffffffffffffffffffffffffffff021916908373ffffffffffffffffffffffffffffffffffffffff16021790555060608201518160020160146101000a81548160ff021916908315150217905550905050505050565b600a60009054906101000a900473ffffffffffffffffffffffffffffffffffffffff1681565b6009602052806000526040600020600091509050806000015490806001018054610e0090612f82565b80601f0160208091040260200160405190810160405280929190818152602001828054610e2c90612f82565b8015610e795780601f10610e4e57610100808354040283529160200191610e79565b820191906000526020600020905b815481529060010190602001808311610e5c57829003601f168201915b5050505050908060020160009054906101000a900473ffffffffffffffffffffffffffffffffffffffff16908060020160149054906101000a900460ff16905084565b606060018054610ecb90612f82565b80601f0160208091040260200160405190810160405280929190818152602001828054610ef790612f82565b8015610f445780601f10610f1957610100808354040283529160200191610f44565b820191906000526020600020905b815481529060010190602001808311610f2757829003601f168201915b5050505050905090565b610f56611854565b73ffffffffffffffffffffffffffffffffffffffff168273ffffffffffffffffffffffffffffffffffffffff161415610fc4576040517f08c379a0000000000000000000000000000000000000000000000000000000008152600401610fbb90612b6e565b60405180910390fd5b8060056000610fd1611854565b73ffffffffffffffffffffffffffffffffffffffff1673ffffffffffffffffffffffffffffffffffffffff16815260200190815260200160002060008473ffffffffffffffffffffffffffffffffffffffff1673ffffffffffffffffffffffffffffffffffffffff16815260200190815260200160002060006101000a81548160ff0219169083151502179055508173ffffffffffffffffffffffffffffffffffffffff1661107e611854565b73ffffffffffffffffffffffffffffffffffffffff167f17307eab39ab6107e8899845ad3d59bd9653f200f220920489ca2b5937696c31836040516110c39190612ad1565b60405180910390a35050565b6110e06110da611854565b83611915565b61111f576040517f08c379a000000000000000000000000000000000000000000000000000000000815260040161111690612cae565b60405180910390fd5b61112b84848484611e1d565b50505050565b606061113c826117e8565b61117b576040517f08c379a000000000000000000000000000000000000000000000000000000000815260040161117290612c6e565b60405180910390fd5b6000611185611e79565b905060008151116111a557604051806020016040528060008152506111d0565b806111af84611f0b565b6040516020016111c0929190612a46565b6040516020818303038152906040525b915050919050565b60065481565b6009600083815260200190815260200160002060020160149054906101000a900460ff1661120b57600080fd5b6000600960008481526020019081526020016000206040518060800160405290816000820154815260200160018201805461124590612f82565b80601f016020809104026020016040519081016040528092919081815260200182805461127190612f82565b80156112be5780601f10611293576101008083540402835291602001916112be565b820191906000526020600020905b8154815290600101906020018083116112a157829003601f168201915b505050505081526020016002820160009054906101000a900473ffffffffffffffffffffffffffffffffffffffff1673ffffffffffffffffffffffffffffffffffffffff1673ffffffffffffffffffffffffffffffffffffffff1681526020016002820160149054906101000a900460ff16151515158152505090503373ffffffffffffffffffffffffffffffffffffffff16816040015173ffffffffffffffffffffffffffffffffffffffff161461137657600080fd5b61137f8261153a565b61138857600080fd5b611396828260200151610aea565b156113a057600080fd5b81816020018190525080600960008581526020019081526020016000206000820151816000015560208201518160010190805190602001906113e3929190612267565b5060408201518160020160006101000a81548173ffffffffffffffffffffffffffffffffffffffff021916908373ffffffffffffffffffffffffffffffffffffffff16021790555060608201518160020160146101000a81548160ff0219169083151502179055509050507fe7747985b747283d355fea91473aab3f6969998e081299f62b02c5bbb67917c581600001518260200151836040015184606001516040516114939493929190612ce9565b60405180910390a1505050565b60085481565b6000600560008473ffffffffffffffffffffffffffffffffffffffff1673ffffffffffffffffffffffffffffffffffffffff16815260200190815260200160002060008373ffffffffffffffffffffffffffffffffffffffff1673ffffffffffffffffffffffffffffffffffffffff16815260200190815260200160002060009054906101000a900460ff16905092915050565b6000808290506007815114611553576000915050611779565b602360f81b81600081518110611592577f4e487b7100000000000000000000000000000000000000000000000000000000600052603260045260246000fd5b602001015160f81c60f81b7effffffffffffffffffffffffffffffffffffffffffffffffffffffffffffff1916146115ce576000915050611779565b6000600190505b8151811015611772576000828281518110611619577f4e487b7100000000000000000000000000000000000000000000000000000000600052603260045260246000fd5b602001015160f81c60f81b9050603060f81b817effffffffffffffffffffffffffffffffffffffffffffffffffffffffffffff1916101580156116825750603960f81b817effffffffffffffffffffffffffffffffffffffffffffffffffffffffffffff191611155b1580156116e85750604160f81b817effffffffffffffffffffffffffffffffffffffffffffffffffffffffffffff1916101580156116e65750604660f81b817effffffffffffffffffffffffffffffffffffffffffffffffffffffffffffff191611155b155b801561174d5750606160f81b817effffffffffffffffffffffffffffffffffffffffffffffffffffffffffffff19161015801561174b5750606660f81b817effffffffffffffffffffffffffffffffffffffffffffffffffffffffffffff191611155b155b1561175e5760009350505050611779565b50808061176a90612fe5565b9150506115d5565b5060019150505b919050565b60007f01ffc9a7000000000000000000000000000000000000000000000000000000007bffffffffffffffffffffffffffffffffffffffffffffffffffffffff1916827bffffffffffffffffffffffffffffffffffffffffffffffffffffffff1916149050919050565b60008073ffffffffffffffffffffffffffffffffffffffff166002600084815260200190815260200160002060009054906101000a900473ffffffffffffffffffffffffffffffffffffffff1673ffffffffffffffffffffffffffffffffffffffff1614159050919050565b600033905090565b816004600083815260200190815260200160002060006101000a81548173ffffffffffffffffffffffffffffffffffffffff021916908373ffffffffffffffffffffffffffffffffffffffff160217905550808273ffffffffffffffffffffffffffffffffffffffff166118cf83610a38565b73ffffffffffffffffffffffffffffffffffffffff167f8c5be1e5ebec7d5bd14f71427d1e84f3dd0314c0f7b2291e5b200ac8c7c3b92560405160405180910390a45050565b6000611920826117e8565b61195f576040517f08c379a000000000000000000000000000000000000000000000000000000000815260040161195690612b8e565b60405180910390fd5b600061196a83610a38565b90508073ffffffffffffffffffffffffffffffffffffffff168473ffffffffffffffffffffffffffffffffffffffff1614806119d957508373ffffffffffffffffffffffffffffffffffffffff166119c184610634565b73ffffffffffffffffffffffffffffffffffffffff16145b806119ea57506119e981856114a6565b5b91505092915050565b8273ffffffffffffffffffffffffffffffffffffffff16611a1382610a38565b73ffffffffffffffffffffffffffffffffffffffff1614611a69576040517f08c379a0000000000000000000000000000000000000000000000000000000008152600401611a6090612c4e565b60405180910390fd5b600073ffffffffffffffffffffffffffffffffffffffff168273ffffffffffffffffffffffffffffffffffffffff161415611ad9576040517f08c379a0000000000000000000000000000000000000000000000000000000008152600401611ad090612b4e565b60405180910390fd5b611ae48383836120b8565b611aef60008261185c565b6001600360008573ffffffffffffffffffffffffffffffffffffffff1673ffffffffffffffffffffffffffffffffffffffff1681526020019081526020016000206000828254611b3f9190612e86565b925050819055506001600360008473ffffffffffffffffffffffffffffffffffffffff1673ffffffffffffffffffffffffffffffffffffffff1681526020019081526020016000206000828254611b969190612dff565b92505081905550816002600083815260200190815260200160002060006101000a81548173ffffffffffffffffffffffffffffffffffffffff021916908373ffffffffffffffffffffffffffffffffffffffff160217905550808273ffffffffffffffffffffffffffffffffffffffff168473ffffffffffffffffffffffffffffffffffffffff167fddf252ad1be2c89b69c2b068fc378daa952ba7f163c4a11628f55a4df523b3ef60405160405180910390a4505050565b600073ffffffffffffffffffffffffffffffffffffffff168273ffffffffffffffffffffffffffffffffffffffff161415611cbf576040517f08c379a0000000000000000000000000000000000000000000000000000000008152600401611cb690612c0e565b60405180910390fd5b611cc8816117e8565b15611d08576040517f08c379a0000000000000000000000000000000000000000000000000000000008152600401611cff90612b2e565b60405180910390fd5b611d14600083836120b8565b6001600360008473ffffffffffffffffffffffffffffffffffffffff1673ffffffffffffffffffffffffffffffffffffffff1681526020019081526020016000206000828254611d649190612dff565b92505081905550816002600083815260200190815260200160002060006101000a81548173ffffffffffffffffffffffffffffffffffffffff021916908373ffffffffffffffffffffffffffffffffffffffff160217905550808273ffffffffffffffffffffffffffffffffffffffff16600073ffffffffffffffffffffffffffffffffffffffff167fddf252ad1be2c89b69c2b068fc378daa952ba7f163c4a11628f55a4df523b3ef60405160405180910390a45050565b611e288484846119f3565b611e34848484846120bd565b611e73576040517f08c379a0000000000000000000000000000000000000000000000000000000008152600401611e6a90612b0e565b60405180910390fd5b50505050565b6060600b8054611e8890612f82565b80601f0160208091040260200160405190810160405280929190818152602001828054611eb490612f82565b8015611f015780601f10611ed657610100808354040283529160200191611f01565b820191906000526020600020905b815481529060010190602001808311611ee457829003601f168201915b5050505050905090565b60606000821415611f53576040518060400160405280600181526020017f300000000000000000000000000000000000000000000000000000000000000081525090506120b3565b600082905060005b60008214611f85578080611f6e90612fe5565b915050600a82611f7e9190612e55565b9150611f5b565b60008167ffffffffffffffff811115611fc7577f4e487b7100000000000000000000000000000000000000000000000000000000600052604160045260246000fd5b6040519080825280601f01601f191660200182016040528015611ff95781602001600182028036833780820191505090505b5090505b600085146120ac576001826120129190612e86565b9150600a85612021919061302e565b603061202d9190612dff565b60f81b818381518110612069577f4e487b7100000000000000000000000000000000000000000000000000000000600052603260045260246000fd5b60200101907effffffffffffffffffffffffffffffffffffffffffffffffffffffffffffff1916908160001a905350600a856120a59190612e55565b9450611ffd565b8093505050505b919050565b505050565b60006120de8473ffffffffffffffffffffffffffffffffffffffff16612254565b15612247578373ffffffffffffffffffffffffffffffffffffffff1663150b7a02612107611854565b8786866040518563ffffffff1660e01b81526004016121299493929190612a85565b602060405180830381600087803b15801561214357600080fd5b505af192505050801561217457506040513d601f19601f820116820180604052508101906121719190612613565b60015b6121f7573d80600081146121a4576040519150601f19603f3d011682016040523d82523d6000602084013e6121a9565b606091505b506000815114156121ef576040517f08c379a00000000000000000000000000000000000000000000000000000000081526004016121e690612b0e565b60405180910390fd5b805181602001fd5b63150b7a0260e01b7bffffffffffffffffffffffffffffffffffffffffffffffffffffffff1916817bffffffffffffffffffffffffffffffffffffffffffffffffffffffff19161491505061224c565b600190505b949350505050565b600080823b905060008111915050919050565b82805461227390612f82565b90600052602060002090601f01602090048101928261229557600085556122dc565b82601f106122ae57805160ff19168380011785556122dc565b828001600101855582156122dc579182015b828111156122db5782518255916020019190600101906122c0565b5b5090506122e991906122ed565b5090565b5b808211156123065760008160009055506001016122ee565b5090565b600061231d61231884612d5a565b612d35565b90508281526020810184848401111561233557600080fd5b612340848285612f40565b509392505050565b600061235b61235684612d8b565b612d35565b90508281526020810184848401111561237357600080fd5b61237e848285612f40565b509392505050565b6000813590506123958161350c565b92915050565b6000813590506123aa81613523565b92915050565b6000813590506123bf8161353a565b92915050565b6000815190506123d48161353a565b92915050565b600082601f8301126123eb57600080fd5b81356123fb84826020860161230a565b91505092915050565b600082601f83011261241557600080fd5b8135612425848260208601612348565b91505092915050565b60008135905061243d81613551565b92915050565b60006020828403121561245557600080fd5b600061246384828501612386565b91505092915050565b6000806040838503121561247f57600080fd5b600061248d85828601612386565b925050602061249e85828601612386565b9150509250929050565b6000806000606084860312156124bd57600080fd5b60006124cb86828701612386565b93505060206124dc86828701612386565b92505060406124ed8682870161242e565b9150509250925092565b6000806000806080858703121561250d57600080fd5b600061251b87828801612386565b945050602061252c87828801612386565b935050604061253d8782880161242e565b925050606085013567ffffffffffffffff81111561255a57600080fd5b612566878288016123da565b91505092959194509250565b6000806040838503121561258557600080fd5b600061259385828601612386565b92505060206125a48582860161239b565b9150509250929050565b600080604083850312156125c157600080fd5b60006125cf85828601612386565b92505060206125e08582860161242e565b9150509250929050565b6000602082840312156125fc57600080fd5b600061260a848285016123b0565b91505092915050565b60006020828403121561262557600080fd5b6000612633848285016123c5565b91505092915050565b60006020828403121561264e57600080fd5b600082013567ffffffffffffffff81111561266857600080fd5b61267484828501612404565b91505092915050565b6000806040838503121561269057600080fd5b600083013567ffffffffffffffff8111156126aa57600080fd5b6126b685828601612404565b925050602083013567ffffffffffffffff8111156126d357600080fd5b6126df85828601612404565b9150509250929050565b6000602082840312156126fb57600080fd5b60006127098482850161242e565b91505092915050565b6000806040838503121561272557600080fd5b60006127338582860161242e565b925050602083013567ffffffffffffffff81111561275057600080fd5b61275c85828601612404565b9150509250929050565b61276f81612ecc565b82525050565b61277e81612eba565b82525050565b61278d81612ede565b82525050565b600061279e82612dbc565b6127a88185612dd2565b93506127b8818560208601612f4f565b6127c18161311b565b840191505092915050565b60006127d782612dc7565b6127e18185612de3565b93506127f1818560208601612f4f565b6127fa8161311b565b840191505092915050565b600061281082612dc7565b61281a8185612df4565b935061282a818560208601612f4f565b80840191505092915050565b6000612843603283612de3565b915061284e8261312c565b604082019050919050565b6000612866601c83612de3565b91506128718261317b565b602082019050919050565b6000612889602483612de3565b9150612894826131a4565b604082019050919050565b60006128ac601983612de3565b91506128b7826131f3565b602082019050919050565b60006128cf602c83612de3565b91506128da8261321c565b604082019050919050565b60006128f2603883612de3565b91506128fd8261326b565b604082019050919050565b6000612915602a83612de3565b9150612920826132ba565b604082019050919050565b6000612938602983612de3565b915061294382613309565b604082019050919050565b600061295b602083612de3565b915061296682613358565b602082019050919050565b600061297e602c83612de3565b915061298982613381565b604082019050919050565b60006129a1602983612de3565b91506129ac826133d0565b604082019050919050565b60006129c4602f83612de3565b91506129cf8261341f565b604082019050919050565b60006129e7602183612de3565b91506129f28261346e565b604082019050919050565b6000612a0a603183612de3565b9150612a15826134bd565b604082019050919050565b612a2981612f36565b82525050565b6000612a3b8284612805565b915081905092915050565b6000612a528285612805565b9150612a5e8284612805565b91508190509392505050565b6000602082019050612a7f6000830184612775565b92915050565b6000608082019050612a9a6000830187612775565b612aa76020830186612775565b612ab46040830185612a20565b8181036060830152612ac68184612793565b905095945050505050565b6000602082019050612ae66000830184612784565b92915050565b60006020820190508181036000830152612b0681846127cc565b905092915050565b60006020820190508181036000830152612b2781612836565b9050919050565b60006020820190508181036000830152612b4781612859565b9050919050565b60006020820190508181036000830152612b678161287c565b9050919050565b60006020820190508181036000830152612b878161289f565b9050919050565b60006020820190508181036000830152612ba7816128c2565b9050919050565b60006020820190508181036000830152612bc7816128e5565b9050919050565b60006020820190508181036000830152612be781612908565b9050919050565b60006020820190508181036000830152612c078161292b565b9050919050565b60006020820190508181036000830152612c278161294e565b9050919050565b60006020820190508181036000830152612c4781612971565b9050919050565b60006020820190508181036000830152612c6781612994565b9050919050565b60006020820190508181036000830152612c87816129b7565b9050919050565b60006020820190508181036000830152612ca7816129da565b9050919050565b60006020820190508181036000830152612cc7816129fd565b9050919050565b6000602082019050612ce36000830184612a20565b92915050565b6000608082019050612cfe6000830187612a20565b8181036020830152612d1081866127cc565b9050612d1f6040830185612766565b612d2c6060830184612784565b95945050505050565b6000612d3f612d50565b9050612d4b8282612fb4565b919050565b6000604051905090565b600067ffffffffffffffff821115612d7557612d746130ec565b5b612d7e8261311b565b9050602081019050919050565b600067ffffffffffffffff821115612da657612da56130ec565b5b612daf8261311b565b9050602081019050919050565b600081519050919050565b600081519050919050565b600082825260208201905092915050565b600082825260208201905092915050565b600081905092915050565b6000612e0a82612f36565b9150612e1583612f36565b9250827fffffffffffffffffffffffffffffffffffffffffffffffffffffffffffffffff03821115612e4a57612e4961305f565b5b828201905092915050565b6000612e6082612f36565b9150612e6b83612f36565b925082612e7b57612e7a61308e565b5b828204905092915050565b6000612e9182612f36565b9150612e9c83612f36565b925082821015612eaf57612eae61305f565b5b828203905092915050565b6000612ec582612f16565b9050919050565b6000612ed782612f16565b9050919050565b60008115159050919050565b60007fffffffff0000000000000000000000000000000000000000000000000000000082169050919050565b600073ffffffffffffffffffffffffffffffffffffffff82169050919050565b6000819050919050565b82818337600083830152505050565b60005b83811015612f6d578082015181840152602081019050612f52565b83811115612f7c576000848401525b50505050565b60006002820490506001821680612f9a57607f821691505b60208210811415612fae57612fad6130bd565b5b50919050565b612fbd8261311b565b810181811067ffffffffffffffff82111715612fdc57612fdb6130ec565b5b80604052505050565b6000612ff082612f36565b91507fffffffffffffffffffffffffffffffffffffffffffffffffffffffffffffffff8214156130235761302261305f565b5b600182019050919050565b600061303982612f36565b915061304483612f36565b9250826130545761305361308e565b5b828206905092915050565b7f4e487b7100000000000000000000000000000000000000000000000000000000600052601160045260246000fd5b7f4e487b7100000000000000000000000000000000000000000000000000000000600052601260045260246000fd5b7f4e487b7100000000000000000000000000000000000000000000000000000000600052602260045260246000fd5b7f4e487b7100000000000000000000000000000000000000000000000000000000600052604160045260246000fd5b6000601f19601f8301169050919050565b7f4552433732313a207472616e7366657220746f206e6f6e20455243373231526560008201527f63656976657220696d706c656d656e7465720000000000000000000000000000602082015250565b7f4552433732313a20746f6b656e20616c7265616479206d696e74656400000000600082015250565b7f4552433732313a207472616e7366657220746f20746865207a65726f2061646460008201527f7265737300000000000000000000000000000000000000000000000000000000602082015250565b7f4552433732313a20617070726f766520746f2063616c6c657200000000000000600082015250565b7f4552433732313a206f70657261746f7220717565727920666f72206e6f6e657860008201527f697374656e7420746f6b656e0000000000000000000000000000000000000000602082015250565b7f4552433732313a20617070726f76652063616c6c6572206973206e6f74206f7760008201527f6e6572206e6f7220617070726f76656420666f7220616c6c0000000000000000602082015250565b7f4552433732313a2062616c616e636520717565727920666f7220746865207a6560008201527f726f206164647265737300000000000000000000000000000000000000000000602082015250565b7f4552433732313a206f776e657220717565727920666f72206e6f6e657869737460008201527f656e7420746f6b656e0000000000000000000000000000000000000000000000602082015250565b7f4552433732313a206d696e7420746f20746865207a65726f2061646472657373600082015250565b7f4552433732313a20617070726f76656420717565727920666f72206e6f6e657860008201527f697374656e7420746f6b656e0000000000000000000000000000000000000000602082015250565b7f4552433732313a207472616e73666572206f6620746f6b656e2074686174206960008201527f73206e6f74206f776e0000000000000000000000000000000000000000000000602082015250565b7f4552433732314d657461646174613a2055524920717565727920666f72206e6f60008201527f6e6578697374656e7420746f6b656e0000000000000000000000000000000000602082015250565b7f4552433732313a20617070726f76616c20746f2063757272656e74206f776e6560008201527f7200000000000000000000000000000000000000000000000000000000000000602082015250565b7f4552433732313a207472616e736665722063616c6c6572206973206e6f74206f60008201527f776e6572206e6f7220617070726f766564000000000000000000000000000000602082015250565b61351581612eba565b811461352057600080fd5b50565b61352c81612ede565b811461353757600080fd5b50565b61354381612eea565b811461354e57600080fd5b50565b61355a81612f36565b811461356557600080fd5b5056fea2646970667358221220e40027f47f408024a798af5ed80b934a148942e32815d6802651de0a866ffc8364736f6c63430008040033",
  "immutableReferences": {},
  "source": "// SPDX-License-Identifier: MIT\r\npragma solidity ^0.8.0;\r\n\r\nimport \"@openzeppelin/contracts/token/ERC721/ERC721.sol\";\r\n\r\ncontract CryptoBoard is ERC721 {\r\n    // ##################################################################\r\n    //    GLOBAR VARS\r\n    // ##################################################################\r\n\r\n    uint256 public numRows;\r\n    uint256 public pixelCount;\r\n    uint256 public pixelLimit;\r\n    mapping(uint256 => Pixel) public pixels;\r\n    address public owner = msg.sender;\r\n\r\n    // ##################################################################\r\n    //    STRUCTS\r\n    // ##################################################################\r\n\r\n    // Represents a pixel\r\n    struct Pixel {\r\n        uint256 coords;\r\n        string color;\r\n        address payable author;\r\n        bool exists;\r\n    }\r\n\r\n    // ##################################################################\r\n    //    MAIN FUNCTIONS\r\n    // ##################################################################\r\n\r\n    // Constructor fuunction\r\n    constructor() ERC721(\"Pixel\", \"PXL\") {\r\n        numRows = 5;\r\n        pixelLimit = 25;\r\n    }\r\n\r\n    // Create a new pixel\r\n    function mint(uint256 _coord, string memory _color) public onlyBy(owner) {\r\n        // Do not create if coordinate already exists\r\n        require(!pixels[_coord].exists);\r\n\r\n        // Do not create more pixels than the max limit\r\n        require(pixelCount < pixelLimit);\r\n\r\n        // Only accept valid colors\r\n        require(isColor(_color));\r\n\r\n        // Increment the pixel count\r\n        pixelCount++;\r\n\r\n        // Mint pixel\r\n        _mint(msg.sender, _coord);\r\n\r\n        // Save the pixel\r\n        pixels[_coord] = Pixel(_coord, _color, payable(msg.sender), true);\r\n    }\r\n\r\n    // Mint a batch number of coordinates\r\n    function mintBatch(uint256 amount) public onlyBy(owner) {\r\n        uint256 currPixelCount = pixelCount;\r\n\r\n        // Mint the coordinates\r\n        for (uint256 i = currPixelCount; i < currPixelCount + amount; i++)\r\n            mint(i, \"#FFFFFF\");\r\n    }\r\n\r\n    // Change the color of a pixel\r\n    function changeColor(uint256 _coord, string memory _color) public {\r\n        // Do not change color if it does not exists\r\n        require(pixels[_coord].exists);\r\n\r\n        // Fetch the pixel\r\n        Pixel memory _pixel = pixels[_coord];\r\n\r\n        // Check that the owner is correct\r\n        require(_pixel.author == msg.sender);\r\n\r\n        // Only accept valid colors\r\n        require(isColor(_color));\r\n\r\n        // Check that the color is different than the old one\r\n        require(!stringsAreEqual(_color, _pixel.color));\r\n\r\n        // Change color\r\n        _pixel.color = _color;\r\n\r\n        // Save pixel\r\n        pixels[_coord] = _pixel;\r\n\r\n        // Emit event\r\n        emit PixelColorChanged(\r\n            _pixel.coords,\r\n            _pixel.color,\r\n            _pixel.author,\r\n            _pixel.exists\r\n        );\r\n    }\r\n\r\n    // ##################################################################\r\n    //    MODIFIERS\r\n    // ##################################################################\r\n\r\n    // Only the owner of the contract can call functions with this modifier\r\n    modifier onlyBy(address _account) {\r\n        require(msg.sender == _account);\r\n        _;\r\n    }\r\n\r\n    // ##################################################################\r\n    //    AUX FUNCTIONS\r\n    // ##################################################################\r\n\r\n    // Returns true if the strings are equal\r\n    function stringsAreEqual(string memory s1, string memory s2)\r\n        public\r\n        pure\r\n        returns (bool)\r\n    {\r\n        return\r\n            keccak256(abi.encodePacked(s1)) == keccak256(abi.encodePacked(s2));\r\n    }\r\n\r\n    // Returns true if the string is a valid HEX color code\r\n    function isColor(string memory _color) public pure returns (bool) {\r\n        // String to bytes\r\n        bytes memory b = bytes(_color);\r\n\r\n        // Not correct length\r\n        if (b.length != 7) return false;\r\n\r\n        // First charater must be '#'\r\n        if (b[0] != 0x23) return false;\r\n\r\n        // Other characters have to be 1-9 or A-F or a-f\r\n        for (uint256 i = 1; i < b.length; i++) {\r\n            bytes1 char = b[i];\r\n\r\n            if (\r\n                !(char >= 0x30 && char <= 0x39) && // 0-9\r\n                !(char >= 0x41 && char <= 0x46) && // A-F\r\n                !(char >= 0x61 && char <= 0x66) // a-f\r\n            ) return false;\r\n        }\r\n\r\n        // String is a color hex value\r\n        return true;\r\n    }\r\n\r\n    // ##################################################################\r\n    //    ADD TOKEN URI\r\n    // ##################################################################\r\n\r\n    // Base URI\r\n    string private baseURI;\r\n\r\n    // Set a new base uri\r\n    function setBaseURI(string memory baseURI_) public onlyBy(owner) {\r\n        // Check that the color is different than the old one\r\n        require(!stringsAreEqual(baseURI, baseURI_));\r\n\r\n        baseURI = baseURI_;\r\n    }\r\n\r\n    // Returns the correct base uri\r\n    function _baseURI() internal view virtual override returns (string memory) {\r\n        return baseURI;\r\n    }\r\n\r\n    // ##################################################################\r\n    //    EVENTS\r\n    // ##################################################################\r\n\r\n    // Emited when the color of a pixel changes\r\n    event PixelColorChanged(\r\n        uint256 coords,\r\n        string color,\r\n        address payable author,\r\n        bool exists\r\n    );\r\n}\r\n",
  "sourcePath": "/mnt/c/Users/Carles' PC/Documents/Repos/CryptoBoard/src/contracts/CryptoBoard.sol",
  "compiler": {
    "name": "solc",
    "version": "0.8.4+commit.c7e474f2.Emscripten.clang"
  },
  "schemaVersion": "3.4.1",
  "updatedAt": "2021-05-30T18:56:46.965Z",
  "networkType": "ethereum",
  "devdoc": {
    "kind": "dev",
    "methods": {
      "approve(address,uint256)": {
        "details": "See {IERC721-approve}."
      },
      "balanceOf(address)": {
        "details": "See {IERC721-balanceOf}."
      },
      "getApproved(uint256)": {
        "details": "See {IERC721-getApproved}."
      },
      "isApprovedForAll(address,address)": {
        "details": "See {IERC721-isApprovedForAll}."
      },
      "name()": {
        "details": "See {IERC721Metadata-name}."
      },
      "ownerOf(uint256)": {
        "details": "See {IERC721-ownerOf}."
      },
      "safeTransferFrom(address,address,uint256)": {
        "details": "See {IERC721-safeTransferFrom}."
      },
      "safeTransferFrom(address,address,uint256,bytes)": {
        "details": "See {IERC721-safeTransferFrom}."
      },
      "setApprovalForAll(address,bool)": {
        "details": "See {IERC721-setApprovalForAll}."
      },
      "supportsInterface(bytes4)": {
        "details": "See {IERC165-supportsInterface}."
      },
      "symbol()": {
        "details": "See {IERC721Metadata-symbol}."
      },
      "tokenURI(uint256)": {
        "details": "See {IERC721Metadata-tokenURI}."
      },
      "transferFrom(address,address,uint256)": {
        "details": "See {IERC721-transferFrom}."
      }
    },
    "version": 1
  },
  "userdoc": {
    "kind": "user",
    "methods": {},
    "version": 1
  }
}