{
  "contractName": "CryptoBoard",
  "abi": [
    {
      "inputs": [],
      "stateMutability": "nonpayable",
      "type": "constructor"
    },
    {
      "anonymous": false,
      "inputs": [
        {
          "indexed": true,
          "internalType": "address",
          "name": "owner",
          "type": "address"
        },
        {
          "indexed": true,
          "internalType": "address",
          "name": "approved",
          "type": "address"
        },
        {
          "indexed": true,
          "internalType": "uint256",
          "name": "tokenId",
          "type": "uint256"
        }
      ],
      "name": "Approval",
      "type": "event"
    },
    {
      "anonymous": false,
      "inputs": [
        {
          "indexed": true,
          "internalType": "address",
          "name": "owner",
          "type": "address"
        },
        {
          "indexed": true,
          "internalType": "address",
          "name": "operator",
          "type": "address"
        },
        {
          "indexed": false,
          "internalType": "bool",
          "name": "approved",
          "type": "bool"
        }
      ],
      "name": "ApprovalForAll",
      "type": "event"
    },
    {
      "anonymous": false,
      "inputs": [
        {
          "indexed": true,
          "internalType": "address",
          "name": "from",
          "type": "address"
        },
        {
          "indexed": true,
          "internalType": "address",
          "name": "to",
          "type": "address"
        },
        {
          "indexed": true,
          "internalType": "uint256",
          "name": "tokenId",
          "type": "uint256"
        }
      ],
      "name": "Transfer",
      "type": "event"
    },
    {
      "inputs": [
        {
          "internalType": "uint256",
          "name": "",
          "type": "uint256"
        }
      ],
      "name": "_colors",
      "outputs": [
        {
          "internalType": "string",
          "name": "",
          "type": "string"
        }
      ],
      "stateMutability": "view",
      "type": "function"
    },
    {
      "inputs": [
        {
          "internalType": "uint256",
          "name": "",
          "type": "uint256"
        }
      ],
      "name": "_coordsExist",
      "outputs": [
        {
          "internalType": "bool",
          "name": "",
          "type": "bool"
        }
      ],
      "stateMutability": "view",
      "type": "function"
    },
    {
      "inputs": [
        {
          "internalType": "address",
          "name": "to",
          "type": "address"
        },
        {
          "internalType": "uint256",
          "name": "tokenId",
          "type": "uint256"
        }
      ],
      "name": "approve",
      "outputs": [],
      "stateMutability": "nonpayable",
      "type": "function"
    },
    {
      "inputs": [
        {
          "internalType": "address",
          "name": "owner",
          "type": "address"
        }
      ],
      "name": "balanceOf",
      "outputs": [
        {
          "internalType": "uint256",
          "name": "",
          "type": "uint256"
        }
      ],
      "stateMutability": "view",
      "type": "function"
    },
    {
      "inputs": [
        {
          "internalType": "uint256",
          "name": "tokenId",
          "type": "uint256"
        }
      ],
      "name": "getApproved",
      "outputs": [
        {
          "internalType": "address",
          "name": "",
          "type": "address"
        }
      ],
      "stateMutability": "view",
      "type": "function"
    },
    {
      "inputs": [
        {
          "internalType": "address",
          "name": "owner",
          "type": "address"
        },
        {
          "internalType": "address",
          "name": "operator",
          "type": "address"
        }
      ],
      "name": "isApprovedForAll",
      "outputs": [
        {
          "internalType": "bool",
          "name": "",
          "type": "bool"
        }
      ],
      "stateMutability": "view",
      "type": "function"
    },
    {
      "inputs": [],
      "name": "name",
      "outputs": [
        {
          "internalType": "string",
          "name": "",
          "type": "string"
        }
      ],
      "stateMutability": "view",
      "type": "function"
    },
    {
      "inputs": [],
      "name": "owner",
      "outputs": [
        {
          "internalType": "address",
          "name": "",
          "type": "address"
        }
      ],
      "stateMutability": "view",
      "type": "function"
    },
    {
      "inputs": [
        {
          "internalType": "uint256",
          "name": "tokenId",
          "type": "uint256"
        }
      ],
      "name": "ownerOf",
      "outputs": [
        {
          "internalType": "address",
          "name": "",
          "type": "address"
        }
      ],
      "stateMutability": "view",
      "type": "function"
    },
    {
      "inputs": [
        {
          "internalType": "address",
          "name": "from",
          "type": "address"
        },
        {
          "internalType": "address",
          "name": "to",
          "type": "address"
        },
        {
          "internalType": "uint256",
          "name": "tokenId",
          "type": "uint256"
        }
      ],
      "name": "safeTransferFrom",
      "outputs": [],
      "stateMutability": "nonpayable",
      "type": "function"
    },
    {
      "inputs": [
        {
          "internalType": "address",
          "name": "from",
          "type": "address"
        },
        {
          "internalType": "address",
          "name": "to",
          "type": "address"
        },
        {
          "internalType": "uint256",
          "name": "tokenId",
          "type": "uint256"
        },
        {
          "internalType": "bytes",
          "name": "_data",
          "type": "bytes"
        }
      ],
      "name": "safeTransferFrom",
      "outputs": [],
      "stateMutability": "nonpayable",
      "type": "function"
    },
    {
      "inputs": [
        {
          "internalType": "address",
          "name": "operator",
          "type": "address"
        },
        {
          "internalType": "bool",
          "name": "approved",
          "type": "bool"
        }
      ],
      "name": "setApprovalForAll",
      "outputs": [],
      "stateMutability": "nonpayable",
      "type": "function"
    },
    {
      "inputs": [
        {
          "internalType": "bytes4",
          "name": "interfaceId",
          "type": "bytes4"
        }
      ],
      "name": "supportsInterface",
      "outputs": [
        {
          "internalType": "bool",
          "name": "",
          "type": "bool"
        }
      ],
      "stateMutability": "view",
      "type": "function"
    },
    {
      "inputs": [],
      "name": "symbol",
      "outputs": [
        {
          "internalType": "string",
          "name": "",
          "type": "string"
        }
      ],
      "stateMutability": "view",
      "type": "function"
    },
    {
      "inputs": [
        {
          "internalType": "uint256",
          "name": "tokenId",
          "type": "uint256"
        }
      ],
      "name": "tokenURI",
      "outputs": [
        {
          "internalType": "string",
          "name": "",
          "type": "string"
        }
      ],
      "stateMutability": "view",
      "type": "function"
    },
    {
      "inputs": [
        {
          "internalType": "address",
          "name": "from",
          "type": "address"
        },
        {
          "internalType": "address",
          "name": "to",
          "type": "address"
        },
        {
          "internalType": "uint256",
          "name": "tokenId",
          "type": "uint256"
        }
      ],
      "name": "transferFrom",
      "outputs": [],
      "stateMutability": "nonpayable",
      "type": "function"
    },
    {
      "inputs": [
        {
          "internalType": "string",
          "name": "_color",
          "type": "string"
        },
        {
          "internalType": "uint256",
          "name": "_coord",
          "type": "uint256"
        }
      ],
      "name": "mint",
      "outputs": [],
      "stateMutability": "nonpayable",
      "type": "function"
    },
    {
      "inputs": [
        {
          "internalType": "string",
          "name": "_color",
          "type": "string"
        },
        {
          "internalType": "uint256",
          "name": "_coord",
          "type": "uint256"
        }
      ],
      "name": "changeColor",
      "outputs": [],
      "stateMutability": "nonpayable",
      "type": "function"
    }
  ],
  "bytecode": "0x608060405233600860006101000a81548173ffffffffffffffffffffffffffffffffffffffff021916908373ffffffffffffffffffffffffffffffffffffffff1602179055503480156200005257600080fd5b506040518060400160405280600b81526020017f43727970746f426f6172640000000000000000000000000000000000000000008152506040518060400160405280600b81526020017f43525950544f424f4152440000000000000000000000000000000000000000008152508160009080519060200190620000d7929190620000f9565b508060019080519060200190620000f0929190620000f9565b5050506200020e565b8280546200010790620001a9565b90600052602060002090601f0160209004810192826200012b576000855562000177565b82601f106200014657805160ff191683800117855562000177565b8280016001018555821562000177579182015b828111156200017657825182559160200191906001019062000159565b5b5090506200018691906200018a565b5090565b5b80821115620001a55760008160009055506001016200018b565b5090565b60006002820490506001821680620001c257607f821691505b60208210811415620001d957620001d8620001df565b5b50919050565b7f4e487b7100000000000000000000000000000000000000000000000000000000600052602260045260246000fd5b612aab806200021e6000396000f3fe608060405234801561001057600080fd5b50600436106101165760003560e01c806370a08231116100a2578063a22cb46511610071578063a22cb46514610305578063b88d4fde14610321578063c87b56dd1461033d578063e7caa26f1461036d578063e985e9c51461038957610116565b806370a082311461026957806378a7ee6b146102995780638da5cb5b146102c957806395d89b41146102e757610116565b8063095ea7b3116100e9578063095ea7b3146101b557806323b872dd146101d157806342842e0e146101ed5780635598805f146102095780636352211e1461023957610116565b806301ffc9a71461011b578063056b01ce1461014b57806306fdde0314610167578063081812fc14610185575b600080fd5b61013560048036038101906101309190611c28565b6103b9565b604051610142919061203c565b60405180910390f35b61016560048036038101906101609190611c7a565b61049b565b005b61016f610584565b60405161017c9190612057565b60405180910390f35b61019f600480360381019061019a9190611cce565b610616565b6040516101ac9190611fd5565b60405180910390f35b6101cf60048036038101906101ca9190611bec565b61069b565b005b6101eb60048036038101906101e69190611ae6565b6107b3565b005b61020760048036038101906102029190611ae6565b610813565b005b610223600480360381019061021e9190611cce565b610833565b604051610230919061203c565b60405180910390f35b610253600480360381019061024e9190611cce565b610853565b6040516102609190611fd5565b60405180910390f35b610283600480360381019061027e9190611a81565b610905565b6040516102909190612239565b60405180910390f35b6102b360048036038101906102ae9190611cce565b6109bd565b6040516102c09190612057565b60405180910390f35b6102d1610a5d565b6040516102de9190611fd5565b60405180910390f35b6102ef610a83565b6040516102fc9190612057565b60405180910390f35b61031f600480360381019061031a9190611bb0565b610b15565b005b61033b60048036038101906103369190611b35565b610c96565b005b61035760048036038101906103529190611cce565b610cf8565b6040516103649190612057565b60405180910390f35b61038760048036038101906103829190611c7a565b610d9f565b005b6103a3600480360381019061039e9190611aaa565b610da3565b6040516103b0919061203c565b60405180910390f35b60007f80ac58cd000000000000000000000000000000000000000000000000000000007bffffffffffffffffffffffffffffffffffffffffffffffffffffffff1916827bffffffffffffffffffffffffffffffffffffffffffffffffffffffff1916148061048457507f5b5e139f000000000000000000000000000000000000000000000000000000007bffffffffffffffffffffffffffffffffffffffffffffffffffffffff1916827bffffffffffffffffffffffffffffffffffffffffffffffffffffffff1916145b80610494575061049382610e37565b5b9050919050565b600860009054906101000a900473ffffffffffffffffffffffffffffffffffffffff168073ffffffffffffffffffffffffffffffffffffffff163373ffffffffffffffffffffffffffffffffffffffff16146104f657600080fd5b6007600083815260200190815260200160002060009054906101000a900460ff161561052157600080fd5b61052b3383610ea1565b826006600084815260200190815260200160002090805190602001906105529291906118a5565b5060016007600084815260200190815260200160002060006101000a81548160ff021916908315150217905550505050565b6060600080546105939061248f565b80601f01602080910402602001604051908101604052809291908181526020018280546105bf9061248f565b801561060c5780601f106105e15761010080835404028352916020019161060c565b820191906000526020600020905b8154815290600101906020018083116105ef57829003601f168201915b5050505050905090565b60006106218261106f565b610660576040517f08c379a000000000000000000000000000000000000000000000000000000000815260040161065790612199565b60405180910390fd5b6004600083815260200190815260200160002060009054906101000a900473ffffffffffffffffffffffffffffffffffffffff169050919050565b60006106a682610853565b90508073ffffffffffffffffffffffffffffffffffffffff168373ffffffffffffffffffffffffffffffffffffffff161415610717576040517f08c379a000000000000000000000000000000000000000000000000000000000815260040161070e906121f9565b60405180910390fd5b8073ffffffffffffffffffffffffffffffffffffffff166107366110db565b73ffffffffffffffffffffffffffffffffffffffff16148061076557506107648161075f6110db565b610da3565b5b6107a4576040517f08c379a000000000000000000000000000000000000000000000000000000000815260040161079b90612119565b60405180910390fd5b6107ae83836110e3565b505050565b6107c46107be6110db565b8261119c565b610803576040517f08c379a00000000000000000000000000000000000000000000000000000000081526004016107fa90612219565b60405180910390fd5b61080e83838361127a565b505050565b61082e83838360405180602001604052806000815250610c96565b505050565b60076020528060005260406000206000915054906101000a900460ff1681565b6000806002600084815260200190815260200160002060009054906101000a900473ffffffffffffffffffffffffffffffffffffffff169050600073ffffffffffffffffffffffffffffffffffffffff168173ffffffffffffffffffffffffffffffffffffffff1614156108fc576040517f08c379a00000000000000000000000000000000000000000000000000000000081526004016108f390612159565b60405180910390fd5b80915050919050565b60008073ffffffffffffffffffffffffffffffffffffffff168273ffffffffffffffffffffffffffffffffffffffff161415610976576040517f08c379a000000000000000000000000000000000000000000000000000000000815260040161096d90612139565b60405180910390fd5b600360008373ffffffffffffffffffffffffffffffffffffffff1673ffffffffffffffffffffffffffffffffffffffff168152602001908152602001600020549050919050565b600660205280600052604060002060009150905080546109dc9061248f565b80601f0160208091040260200160405190810160405280929190818152602001828054610a089061248f565b8015610a555780601f10610a2a57610100808354040283529160200191610a55565b820191906000526020600020905b815481529060010190602001808311610a3857829003601f168201915b505050505081565b600860009054906101000a900473ffffffffffffffffffffffffffffffffffffffff1681565b606060018054610a929061248f565b80601f0160208091040260200160405190810160405280929190818152602001828054610abe9061248f565b8015610b0b5780601f10610ae057610100808354040283529160200191610b0b565b820191906000526020600020905b815481529060010190602001808311610aee57829003601f168201915b5050505050905090565b610b1d6110db565b73ffffffffffffffffffffffffffffffffffffffff168273ffffffffffffffffffffffffffffffffffffffff161415610b8b576040517f08c379a0000000000000000000000000000000000000000000000000000000008152600401610b82906120d9565b60405180910390fd5b8060056000610b986110db565b73ffffffffffffffffffffffffffffffffffffffff1673ffffffffffffffffffffffffffffffffffffffff16815260200190815260200160002060008473ffffffffffffffffffffffffffffffffffffffff1673ffffffffffffffffffffffffffffffffffffffff16815260200190815260200160002060006101000a81548160ff0219169083151502179055508173ffffffffffffffffffffffffffffffffffffffff16610c456110db565b73ffffffffffffffffffffffffffffffffffffffff167f17307eab39ab6107e8899845ad3d59bd9653f200f220920489ca2b5937696c3183604051610c8a919061203c565b60405180910390a35050565b610ca7610ca16110db565b8361119c565b610ce6576040517f08c379a0000000000000000000000000000000000000000000000000000000008152600401610cdd90612219565b60405180910390fd5b610cf2848484846114d6565b50505050565b6060610d038261106f565b610d42576040517f08c379a0000000000000000000000000000000000000000000000000000000008152600401610d39906121d9565b60405180910390fd5b6000610d4c611532565b90506000815111610d6c5760405180602001604052806000815250610d97565b80610d7684611549565b604051602001610d87929190611fb1565b6040516020818303038152906040525b915050919050565b5050565b6000600560008473ffffffffffffffffffffffffffffffffffffffff1673ffffffffffffffffffffffffffffffffffffffff16815260200190815260200160002060008373ffffffffffffffffffffffffffffffffffffffff1673ffffffffffffffffffffffffffffffffffffffff16815260200190815260200160002060009054906101000a900460ff16905092915050565b60007f01ffc9a7000000000000000000000000000000000000000000000000000000007bffffffffffffffffffffffffffffffffffffffffffffffffffffffff1916827bffffffffffffffffffffffffffffffffffffffffffffffffffffffff1916149050919050565b600073ffffffffffffffffffffffffffffffffffffffff168273ffffffffffffffffffffffffffffffffffffffff161415610f11576040517f08c379a0000000000000000000000000000000000000000000000000000000008152600401610f0890612179565b60405180910390fd5b610f1a8161106f565b15610f5a576040517f08c379a0000000000000000000000000000000000000000000000000000000008152600401610f5190612099565b60405180910390fd5b610f66600083836116f6565b6001600360008473ffffffffffffffffffffffffffffffffffffffff1673ffffffffffffffffffffffffffffffffffffffff1681526020019081526020016000206000828254610fb6919061231e565b92505081905550816002600083815260200190815260200160002060006101000a81548173ffffffffffffffffffffffffffffffffffffffff021916908373ffffffffffffffffffffffffffffffffffffffff160217905550808273ffffffffffffffffffffffffffffffffffffffff16600073ffffffffffffffffffffffffffffffffffffffff167fddf252ad1be2c89b69c2b068fc378daa952ba7f163c4a11628f55a4df523b3ef60405160405180910390a45050565b60008073ffffffffffffffffffffffffffffffffffffffff166002600084815260200190815260200160002060009054906101000a900473ffffffffffffffffffffffffffffffffffffffff1673ffffffffffffffffffffffffffffffffffffffff1614159050919050565b600033905090565b816004600083815260200190815260200160002060006101000a81548173ffffffffffffffffffffffffffffffffffffffff021916908373ffffffffffffffffffffffffffffffffffffffff160217905550808273ffffffffffffffffffffffffffffffffffffffff1661115683610853565b73ffffffffffffffffffffffffffffffffffffffff167f8c5be1e5ebec7d5bd14f71427d1e84f3dd0314c0f7b2291e5b200ac8c7c3b92560405160405180910390a45050565b60006111a78261106f565b6111e6576040517f08c379a00000000000000000000000000000000000000000000000000000000081526004016111dd906120f9565b60405180910390fd5b60006111f183610853565b90508073ffffffffffffffffffffffffffffffffffffffff168473ffffffffffffffffffffffffffffffffffffffff16148061126057508373ffffffffffffffffffffffffffffffffffffffff1661124884610616565b73ffffffffffffffffffffffffffffffffffffffff16145b8061127157506112708185610da3565b5b91505092915050565b8273ffffffffffffffffffffffffffffffffffffffff1661129a82610853565b73ffffffffffffffffffffffffffffffffffffffff16146112f0576040517f08c379a00000000000000000000000000000000000000000000000000000000081526004016112e7906121b9565b60405180910390fd5b600073ffffffffffffffffffffffffffffffffffffffff168273ffffffffffffffffffffffffffffffffffffffff161415611360576040517f08c379a0000000000000000000000000000000000000000000000000000000008152600401611357906120b9565b60405180910390fd5b61136b8383836116f6565b6113766000826110e3565b6001600360008573ffffffffffffffffffffffffffffffffffffffff1673ffffffffffffffffffffffffffffffffffffffff16815260200190815260200160002060008282546113c691906123a5565b925050819055506001600360008473ffffffffffffffffffffffffffffffffffffffff1673ffffffffffffffffffffffffffffffffffffffff168152602001908152602001600020600082825461141d919061231e565b92505081905550816002600083815260200190815260200160002060006101000a81548173ffffffffffffffffffffffffffffffffffffffff021916908373ffffffffffffffffffffffffffffffffffffffff160217905550808273ffffffffffffffffffffffffffffffffffffffff168473ffffffffffffffffffffffffffffffffffffffff167fddf252ad1be2c89b69c2b068fc378daa952ba7f163c4a11628f55a4df523b3ef60405160405180910390a4505050565b6114e184848461127a565b6114ed848484846116fb565b61152c576040517f08c379a000000000000000000000000000000000000000000000000000000000815260040161152390612079565b60405180910390fd5b50505050565b606060405180602001604052806000815250905090565b60606000821415611591576040518060400160405280600181526020017f300000000000000000000000000000000000000000000000000000000000000081525090506116f1565b600082905060005b600082146115c35780806115ac906124f2565b915050600a826115bc9190612374565b9150611599565b60008167ffffffffffffffff811115611605577f4e487b7100000000000000000000000000000000000000000000000000000000600052604160045260246000fd5b6040519080825280601f01601f1916602001820160405280156116375781602001600182028036833780820191505090505b5090505b600085146116ea5760018261165091906123a5565b9150600a8561165f919061253b565b603061166b919061231e565b60f81b8183815181106116a7577f4e487b7100000000000000000000000000000000000000000000000000000000600052603260045260246000fd5b60200101907effffffffffffffffffffffffffffffffffffffffffffffffffffffffffffff1916908160001a905350600a856116e39190612374565b945061163b565b8093505050505b919050565b505050565b600061171c8473ffffffffffffffffffffffffffffffffffffffff16611892565b15611885578373ffffffffffffffffffffffffffffffffffffffff1663150b7a026117456110db565b8786866040518563ffffffff1660e01b81526004016117679493929190611ff0565b602060405180830381600087803b15801561178157600080fd5b505af19250505080156117b257506040513d601f19601f820116820180604052508101906117af9190611c51565b60015b611835573d80600081146117e2576040519150601f19603f3d011682016040523d82523d6000602084013e6117e7565b606091505b5060008151141561182d576040517f08c379a000000000000000000000000000000000000000000000000000000000815260040161182490612079565b60405180910390fd5b805181602001fd5b63150b7a0260e01b7bffffffffffffffffffffffffffffffffffffffffffffffffffffffff1916817bffffffffffffffffffffffffffffffffffffffffffffffffffffffff19161491505061188a565b600190505b949350505050565b600080823b905060008111915050919050565b8280546118b19061248f565b90600052602060002090601f0160209004810192826118d3576000855561191a565b82601f106118ec57805160ff191683800117855561191a565b8280016001018555821561191a579182015b828111156119195782518255916020019190600101906118fe565b5b509050611927919061192b565b5090565b5b8082111561194457600081600090555060010161192c565b5090565b600061195b61195684612279565b612254565b90508281526020810184848401111561197357600080fd5b61197e84828561244d565b509392505050565b6000611999611994846122aa565b612254565b9050828152602081018484840111156119b157600080fd5b6119bc84828561244d565b509392505050565b6000813590506119d381612a19565b92915050565b6000813590506119e881612a30565b92915050565b6000813590506119fd81612a47565b92915050565b600081519050611a1281612a47565b92915050565b600082601f830112611a2957600080fd5b8135611a39848260208601611948565b91505092915050565b600082601f830112611a5357600080fd5b8135611a63848260208601611986565b91505092915050565b600081359050611a7b81612a5e565b92915050565b600060208284031215611a9357600080fd5b6000611aa1848285016119c4565b91505092915050565b60008060408385031215611abd57600080fd5b6000611acb858286016119c4565b9250506020611adc858286016119c4565b9150509250929050565b600080600060608486031215611afb57600080fd5b6000611b09868287016119c4565b9350506020611b1a868287016119c4565b9250506040611b2b86828701611a6c565b9150509250925092565b60008060008060808587031215611b4b57600080fd5b6000611b59878288016119c4565b9450506020611b6a878288016119c4565b9350506040611b7b87828801611a6c565b925050606085013567ffffffffffffffff811115611b9857600080fd5b611ba487828801611a18565b91505092959194509250565b60008060408385031215611bc357600080fd5b6000611bd1858286016119c4565b9250506020611be2858286016119d9565b9150509250929050565b60008060408385031215611bff57600080fd5b6000611c0d858286016119c4565b9250506020611c1e85828601611a6c565b9150509250929050565b600060208284031215611c3a57600080fd5b6000611c48848285016119ee565b91505092915050565b600060208284031215611c6357600080fd5b6000611c7184828501611a03565b91505092915050565b60008060408385031215611c8d57600080fd5b600083013567ffffffffffffffff811115611ca757600080fd5b611cb385828601611a42565b9250506020611cc485828601611a6c565b9150509250929050565b600060208284031215611ce057600080fd5b6000611cee84828501611a6c565b91505092915050565b611d00816123d9565b82525050565b611d0f816123eb565b82525050565b6000611d20826122db565b611d2a81856122f1565b9350611d3a81856020860161245c565b611d4381612628565b840191505092915050565b6000611d59826122e6565b611d638185612302565b9350611d7381856020860161245c565b611d7c81612628565b840191505092915050565b6000611d92826122e6565b611d9c8185612313565b9350611dac81856020860161245c565b80840191505092915050565b6000611dc5603283612302565b9150611dd082612639565b604082019050919050565b6000611de8601c83612302565b9150611df382612688565b602082019050919050565b6000611e0b602483612302565b9150611e16826126b1565b604082019050919050565b6000611e2e601983612302565b9150611e3982612700565b602082019050919050565b6000611e51602c83612302565b9150611e5c82612729565b604082019050919050565b6000611e74603883612302565b9150611e7f82612778565b604082019050919050565b6000611e97602a83612302565b9150611ea2826127c7565b604082019050919050565b6000611eba602983612302565b9150611ec582612816565b604082019050919050565b6000611edd602083612302565b9150611ee882612865565b602082019050919050565b6000611f00602c83612302565b9150611f0b8261288e565b604082019050919050565b6000611f23602983612302565b9150611f2e826128dd565b604082019050919050565b6000611f46602f83612302565b9150611f518261292c565b604082019050919050565b6000611f69602183612302565b9150611f748261297b565b604082019050919050565b6000611f8c603183612302565b9150611f97826129ca565b604082019050919050565b611fab81612443565b82525050565b6000611fbd8285611d87565b9150611fc98284611d87565b91508190509392505050565b6000602082019050611fea6000830184611cf7565b92915050565b60006080820190506120056000830187611cf7565b6120126020830186611cf7565b61201f6040830185611fa2565b81810360608301526120318184611d15565b905095945050505050565b60006020820190506120516000830184611d06565b92915050565b600060208201905081810360008301526120718184611d4e565b905092915050565b6000602082019050818103600083015261209281611db8565b9050919050565b600060208201905081810360008301526120b281611ddb565b9050919050565b600060208201905081810360008301526120d281611dfe565b9050919050565b600060208201905081810360008301526120f281611e21565b9050919050565b6000602082019050818103600083015261211281611e44565b9050919050565b6000602082019050818103600083015261213281611e67565b9050919050565b6000602082019050818103600083015261215281611e8a565b9050919050565b6000602082019050818103600083015261217281611ead565b9050919050565b6000602082019050818103600083015261219281611ed0565b9050919050565b600060208201905081810360008301526121b281611ef3565b9050919050565b600060208201905081810360008301526121d281611f16565b9050919050565b600060208201905081810360008301526121f281611f39565b9050919050565b6000602082019050818103600083015261221281611f5c565b9050919050565b6000602082019050818103600083015261223281611f7f565b9050919050565b600060208201905061224e6000830184611fa2565b92915050565b600061225e61226f565b905061226a82826124c1565b919050565b6000604051905090565b600067ffffffffffffffff821115612294576122936125f9565b5b61229d82612628565b9050602081019050919050565b600067ffffffffffffffff8211156122c5576122c46125f9565b5b6122ce82612628565b9050602081019050919050565b600081519050919050565b600081519050919050565b600082825260208201905092915050565b600082825260208201905092915050565b600081905092915050565b600061232982612443565b915061233483612443565b9250827fffffffffffffffffffffffffffffffffffffffffffffffffffffffffffffffff038211156123695761236861256c565b5b828201905092915050565b600061237f82612443565b915061238a83612443565b92508261239a5761239961259b565b5b828204905092915050565b60006123b082612443565b91506123bb83612443565b9250828210156123ce576123cd61256c565b5b828203905092915050565b60006123e482612423565b9050919050565b60008115159050919050565b60007fffffffff0000000000000000000000000000000000000000000000000000000082169050919050565b600073ffffffffffffffffffffffffffffffffffffffff82169050919050565b6000819050919050565b82818337600083830152505050565b60005b8381101561247a57808201518184015260208101905061245f565b83811115612489576000848401525b50505050565b600060028204905060018216806124a757607f821691505b602082108114156124bb576124ba6125ca565b5b50919050565b6124ca82612628565b810181811067ffffffffffffffff821117156124e9576124e86125f9565b5b80604052505050565b60006124fd82612443565b91507fffffffffffffffffffffffffffffffffffffffffffffffffffffffffffffffff8214156125305761252f61256c565b5b600182019050919050565b600061254682612443565b915061255183612443565b9250826125615761256061259b565b5b828206905092915050565b7f4e487b7100000000000000000000000000000000000000000000000000000000600052601160045260246000fd5b7f4e487b7100000000000000000000000000000000000000000000000000000000600052601260045260246000fd5b7f4e487b7100000000000000000000000000000000000000000000000000000000600052602260045260246000fd5b7f4e487b7100000000000000000000000000000000000000000000000000000000600052604160045260246000fd5b6000601f19601f8301169050919050565b7f4552433732313a207472616e7366657220746f206e6f6e20455243373231526560008201527f63656976657220696d706c656d656e7465720000000000000000000000000000602082015250565b7f4552433732313a20746f6b656e20616c7265616479206d696e74656400000000600082015250565b7f4552433732313a207472616e7366657220746f20746865207a65726f2061646460008201527f7265737300000000000000000000000000000000000000000000000000000000602082015250565b7f4552433732313a20617070726f766520746f2063616c6c657200000000000000600082015250565b7f4552433732313a206f70657261746f7220717565727920666f72206e6f6e657860008201527f697374656e7420746f6b656e0000000000000000000000000000000000000000602082015250565b7f4552433732313a20617070726f76652063616c6c6572206973206e6f74206f7760008201527f6e6572206e6f7220617070726f76656420666f7220616c6c0000000000000000602082015250565b7f4552433732313a2062616c616e636520717565727920666f7220746865207a6560008201527f726f206164647265737300000000000000000000000000000000000000000000602082015250565b7f4552433732313a206f776e657220717565727920666f72206e6f6e657869737460008201527f656e7420746f6b656e0000000000000000000000000000000000000000000000602082015250565b7f4552433732313a206d696e7420746f20746865207a65726f2061646472657373600082015250565b7f4552433732313a20617070726f76656420717565727920666f72206e6f6e657860008201527f697374656e7420746f6b656e0000000000000000000000000000000000000000602082015250565b7f4552433732313a207472616e73666572206f6620746f6b656e2074686174206960008201527f73206e6f74206f776e0000000000000000000000000000000000000000000000602082015250565b7f4552433732314d657461646174613a2055524920717565727920666f72206e6f60008201527f6e6578697374656e7420746f6b656e0000000000000000000000000000000000602082015250565b7f4552433732313a20617070726f76616c20746f2063757272656e74206f776e6560008201527f7200000000000000000000000000000000000000000000000000000000000000602082015250565b7f4552433732313a207472616e736665722063616c6c6572206973206e6f74206f60008201527f776e6572206e6f7220617070726f766564000000000000000000000000000000602082015250565b612a22816123d9565b8114612a2d57600080fd5b50565b612a39816123eb565b8114612a4457600080fd5b50565b612a50816123f7565b8114612a5b57600080fd5b50565b612a6781612443565b8114612a7257600080fd5b5056fea264697066735822122022b01819ebcc7be7f12d0764d61c69e14a72c18dc023bcfa065c5de494b6507d64736f6c63430008040033",
  "immutableReferences": {},
  "source": "// SPDX-License-Identifier: MIT\r\npragma solidity ^0.8.0;\r\n\r\nimport \"@openzeppelin/contracts/token/ERC721/ERC721.sol\";\r\n\r\ncontract CryptoBoard is ERC721 {\r\n    struct Pixel {\r\n        uint256 id;\r\n        string content;\r\n        uint256 tipAmount;\r\n        address payable author;\r\n    }\r\n\r\n    mapping(uint256 => string) public _colors;\r\n    mapping(uint256 => bool) public _coordsExist;\r\n\r\n    address public owner = msg.sender;\r\n\r\n    constructor() ERC721(\"CryptoBoard\", \"CRYPTOBOARD\") {}\r\n\r\n    modifier onlyBy(address _account) {\r\n        require(msg.sender == _account);\r\n        _;\r\n    }\r\n\r\n    function mint(string memory _color, uint256 _coord) public onlyBy(owner) {\r\n        require(!_coordsExist[_coord]);\r\n        _mint(msg.sender, _coord);\r\n        _colors[_coord] = _color;\r\n        _coordsExist[_coord] = true;\r\n    }\r\n\r\n    function changeColor(string memory _color, uint256 _coord) public {}\r\n}\r\n",
  "sourcePath": "/mnt/c/Users/Carles' PC/Documents/Repos/CryptoBoard/src/contracts/CryptoBoard.sol",
  "compiler": {
    "name": "solc",
    "version": "0.8.4+commit.c7e474f2.Emscripten.clang"
  },
  "schemaVersion": "3.4.1",
  "updatedAt": "2021-05-29T20:16:46.356Z",
  "devdoc": {
    "kind": "dev",
    "methods": {
      "approve(address,uint256)": {
        "details": "See {IERC721-approve}."
      },
      "balanceOf(address)": {
        "details": "See {IERC721-balanceOf}."
      },
      "getApproved(uint256)": {
        "details": "See {IERC721-getApproved}."
      },
      "isApprovedForAll(address,address)": {
        "details": "See {IERC721-isApprovedForAll}."
      },
      "name()": {
        "details": "See {IERC721Metadata-name}."
      },
      "ownerOf(uint256)": {
        "details": "See {IERC721-ownerOf}."
      },
      "safeTransferFrom(address,address,uint256)": {
        "details": "See {IERC721-safeTransferFrom}."
      },
      "safeTransferFrom(address,address,uint256,bytes)": {
        "details": "See {IERC721-safeTransferFrom}."
      },
      "setApprovalForAll(address,bool)": {
        "details": "See {IERC721-setApprovalForAll}."
      },
      "supportsInterface(bytes4)": {
        "details": "See {IERC165-supportsInterface}."
      },
      "symbol()": {
        "details": "See {IERC721Metadata-symbol}."
      },
      "tokenURI(uint256)": {
        "details": "See {IERC721Metadata-tokenURI}."
      },
      "transferFrom(address,address,uint256)": {
        "details": "See {IERC721-transferFrom}."
      }
    },
    "version": 1
  },
  "userdoc": {
    "kind": "user",
    "methods": {},
    "version": 1
  }
}