{
  "contractName": "ERC721",
  "abi": [
    {
      "inputs": [
        {
          "internalType": "string",
          "name": "name_",
          "type": "string"
        },
        {
          "internalType": "string",
          "name": "symbol_",
          "type": "string"
        }
      ],
      "stateMutability": "nonpayable",
      "type": "constructor"
    },
    {
      "anonymous": false,
      "inputs": [
        {
          "indexed": true,
          "internalType": "address",
          "name": "owner",
          "type": "address"
        },
        {
          "indexed": true,
          "internalType": "address",
          "name": "approved",
          "type": "address"
        },
        {
          "indexed": true,
          "internalType": "uint256",
          "name": "tokenId",
          "type": "uint256"
        }
      ],
      "name": "Approval",
      "type": "event"
    },
    {
      "anonymous": false,
      "inputs": [
        {
          "indexed": true,
          "internalType": "address",
          "name": "owner",
          "type": "address"
        },
        {
          "indexed": true,
          "internalType": "address",
          "name": "operator",
          "type": "address"
        },
        {
          "indexed": false,
          "internalType": "bool",
          "name": "approved",
          "type": "bool"
        }
      ],
      "name": "ApprovalForAll",
      "type": "event"
    },
    {
      "anonymous": false,
      "inputs": [
        {
          "indexed": true,
          "internalType": "address",
          "name": "previousOwner",
          "type": "address"
        },
        {
          "indexed": true,
          "internalType": "address",
          "name": "newOwner",
          "type": "address"
        }
      ],
      "name": "OwnershipTransferred",
      "type": "event"
    },
    {
      "anonymous": false,
      "inputs": [
        {
          "indexed": false,
          "internalType": "address",
          "name": "account",
          "type": "address"
        }
      ],
      "name": "Paused",
      "type": "event"
    },
    {
      "anonymous": false,
      "inputs": [
        {
          "indexed": true,
          "internalType": "address",
          "name": "from",
          "type": "address"
        },
        {
          "indexed": true,
          "internalType": "address",
          "name": "to",
          "type": "address"
        },
        {
          "indexed": true,
          "internalType": "uint256",
          "name": "tokenId",
          "type": "uint256"
        }
      ],
      "name": "Transfer",
      "type": "event"
    },
    {
      "anonymous": false,
      "inputs": [
        {
          "indexed": false,
          "internalType": "address",
          "name": "account",
          "type": "address"
        }
      ],
      "name": "Unpaused",
      "type": "event"
    },
    {
      "inputs": [],
      "name": "NUM_ROWS",
      "outputs": [
        {
          "internalType": "uint256",
          "name": "",
          "type": "uint256"
        }
      ],
      "stateMutability": "view",
      "type": "function"
    },
    {
      "inputs": [],
      "name": "PIXEL_LIMIT",
      "outputs": [
        {
          "internalType": "uint256",
          "name": "",
          "type": "uint256"
        }
      ],
      "stateMutability": "view",
      "type": "function"
    },
    {
      "inputs": [
        {
          "internalType": "uint256",
          "name": "",
          "type": "uint256"
        }
      ],
      "name": "mintedPixels",
      "outputs": [
        {
          "internalType": "uint256",
          "name": "",
          "type": "uint256"
        }
      ],
      "stateMutability": "view",
      "type": "function"
    },
    {
      "inputs": [],
      "name": "owner",
      "outputs": [
        {
          "internalType": "address",
          "name": "",
          "type": "address"
        }
      ],
      "stateMutability": "view",
      "type": "function"
    },
    {
      "inputs": [],
      "name": "paused",
      "outputs": [
        {
          "internalType": "bool",
          "name": "",
          "type": "bool"
        }
      ],
      "stateMutability": "view",
      "type": "function"
    },
    {
      "inputs": [],
      "name": "pixelCount",
      "outputs": [
        {
          "internalType": "uint256",
          "name": "",
          "type": "uint256"
        }
      ],
      "stateMutability": "view",
      "type": "function"
    },
    {
      "inputs": [
        {
          "internalType": "uint256",
          "name": "",
          "type": "uint256"
        }
      ],
      "name": "pixels",
      "outputs": [
        {
          "internalType": "uint256",
          "name": "coords",
          "type": "uint256"
        },
        {
          "internalType": "string",
          "name": "color",
          "type": "string"
        },
        {
          "internalType": "address payable",
          "name": "owner",
          "type": "address"
        },
        {
          "internalType": "uint256",
          "name": "weiPrice",
          "type": "uint256"
        }
      ],
      "stateMutability": "view",
      "type": "function"
    },
    {
      "inputs": [],
      "name": "renounceOwnership",
      "outputs": [],
      "stateMutability": "nonpayable",
      "type": "function"
    },
    {
      "inputs": [],
      "name": "transctionFee",
      "outputs": [
        {
          "internalType": "uint256",
          "name": "",
          "type": "uint256"
        }
      ],
      "stateMutability": "view",
      "type": "function"
    },
    {
      "inputs": [
        {
          "internalType": "address",
          "name": "newOwner",
          "type": "address"
        }
      ],
      "name": "transferOwnership",
      "outputs": [],
      "stateMutability": "nonpayable",
      "type": "function"
    },
    {
      "inputs": [
        {
          "internalType": "bytes4",
          "name": "interfaceId",
          "type": "bytes4"
        }
      ],
      "name": "supportsInterface",
      "outputs": [
        {
          "internalType": "bool",
          "name": "",
          "type": "bool"
        }
      ],
      "stateMutability": "view",
      "type": "function"
    },
    {
      "inputs": [
        {
          "internalType": "address",
          "name": "owner",
          "type": "address"
        }
      ],
      "name": "balanceOf",
      "outputs": [
        {
          "internalType": "uint256",
          "name": "",
          "type": "uint256"
        }
      ],
      "stateMutability": "view",
      "type": "function"
    },
    {
      "inputs": [
        {
          "internalType": "uint256",
          "name": "tokenId",
          "type": "uint256"
        }
      ],
      "name": "ownerOf",
      "outputs": [
        {
          "internalType": "address",
          "name": "",
          "type": "address"
        }
      ],
      "stateMutability": "view",
      "type": "function"
    },
    {
      "inputs": [],
      "name": "name",
      "outputs": [
        {
          "internalType": "string",
          "name": "",
          "type": "string"
        }
      ],
      "stateMutability": "view",
      "type": "function"
    },
    {
      "inputs": [],
      "name": "symbol",
      "outputs": [
        {
          "internalType": "string",
          "name": "",
          "type": "string"
        }
      ],
      "stateMutability": "view",
      "type": "function"
    },
    {
      "inputs": [
        {
          "internalType": "uint256",
          "name": "tokenId",
          "type": "uint256"
        }
      ],
      "name": "tokenURI",
      "outputs": [
        {
          "internalType": "string",
          "name": "",
          "type": "string"
        }
      ],
      "stateMutability": "view",
      "type": "function"
    },
    {
      "inputs": [
        {
          "internalType": "string",
          "name": "baseURI_",
          "type": "string"
        }
      ],
      "name": "setBaseURI",
      "outputs": [],
      "stateMutability": "nonpayable",
      "type": "function"
    },
    {
      "inputs": [
        {
          "internalType": "address",
          "name": "to",
          "type": "address"
        },
        {
          "internalType": "uint256",
          "name": "tokenId",
          "type": "uint256"
        }
      ],
      "name": "approve",
      "outputs": [],
      "stateMutability": "nonpayable",
      "type": "function"
    },
    {
      "inputs": [
        {
          "internalType": "uint256",
          "name": "tokenId",
          "type": "uint256"
        }
      ],
      "name": "getApproved",
      "outputs": [
        {
          "internalType": "address",
          "name": "",
          "type": "address"
        }
      ],
      "stateMutability": "view",
      "type": "function"
    },
    {
      "inputs": [
        {
          "internalType": "address",
          "name": "operator",
          "type": "address"
        },
        {
          "internalType": "bool",
          "name": "approved",
          "type": "bool"
        }
      ],
      "name": "setApprovalForAll",
      "outputs": [],
      "stateMutability": "nonpayable",
      "type": "function"
    },
    {
      "inputs": [
        {
          "internalType": "address",
          "name": "owner",
          "type": "address"
        },
        {
          "internalType": "address",
          "name": "operator",
          "type": "address"
        }
      ],
      "name": "isApprovedForAll",
      "outputs": [
        {
          "internalType": "bool",
          "name": "",
          "type": "bool"
        }
      ],
      "stateMutability": "view",
      "type": "function"
    },
    {
      "inputs": [
        {
          "internalType": "address",
          "name": "from",
          "type": "address"
        },
        {
          "internalType": "address",
          "name": "to",
          "type": "address"
        },
        {
          "internalType": "uint256",
          "name": "tokenId",
          "type": "uint256"
        }
      ],
      "name": "transferFrom",
      "outputs": [],
      "stateMutability": "nonpayable",
      "type": "function"
    },
    {
      "inputs": [
        {
          "internalType": "address",
          "name": "from",
          "type": "address"
        },
        {
          "internalType": "address",
          "name": "to",
          "type": "address"
        },
        {
          "internalType": "uint256",
          "name": "tokenId",
          "type": "uint256"
        }
      ],
      "name": "safeTransferFrom",
      "outputs": [],
      "stateMutability": "nonpayable",
      "type": "function"
    },
    {
      "inputs": [
        {
          "internalType": "address",
          "name": "from",
          "type": "address"
        },
        {
          "internalType": "address",
          "name": "to",
          "type": "address"
        },
        {
          "internalType": "uint256",
          "name": "tokenId",
          "type": "uint256"
        },
        {
          "internalType": "bytes",
          "name": "_data",
          "type": "bytes"
        }
      ],
      "name": "safeTransferFrom",
      "outputs": [],
      "stateMutability": "nonpayable",
      "type": "function"
    },
    {
      "inputs": [
        {
          "internalType": "string",
          "name": "_s1",
          "type": "string"
        },
        {
          "internalType": "string",
          "name": "_s2",
          "type": "string"
        }
      ],
      "name": "stringsAreEqual",
      "outputs": [
        {
          "internalType": "bool",
          "name": "",
          "type": "bool"
        }
      ],
      "stateMutability": "pure",
      "type": "function"
    },
    {
      "inputs": [
        {
          "internalType": "string",
          "name": "_color",
          "type": "string"
        }
      ],
      "name": "isColor",
      "outputs": [
        {
          "internalType": "bool",
          "name": "",
          "type": "bool"
        }
      ],
      "stateMutability": "pure",
      "type": "function"
    }
  ],
  "bytecode": "0x60806040526001805560405180602001604052806000815250600590805190602001906200002f9291906200016f565b503480156200003d57600080fd5b50604051620039a1380380620039a1833981810160405281019062000063919062000291565b6000620000756200016760201b60201c565b9050806000806101000a81548173ffffffffffffffffffffffffffffffffffffffff021916908373ffffffffffffffffffffffffffffffffffffffff1602179055508073ffffffffffffffffffffffffffffffffffffffff16600073ffffffffffffffffffffffffffffffffffffffff167f8be0079c531659141344cd1fd0a4f28419497f9722a3daafe3b4186f6b6457e060405160405180910390a35060008060146101000a81548160ff0219169083151502179055508160069080519060200190620001459291906200016f565b5080600790805190602001906200015e9291906200016f565b50505062000474565b600033905090565b8280546200017d9062000399565b90600052602060002090601f016020900481019282620001a15760008555620001ed565b82601f10620001bc57805160ff1916838001178555620001ed565b82800160010185558215620001ed579182015b82811115620001ec578251825591602001919060010190620001cf565b5b509050620001fc919062000200565b5090565b5b808211156200021b57600081600090555060010162000201565b5090565b60006200023662000230846200032d565b62000304565b9050828152602081018484840111156200024f57600080fd5b6200025c84828562000363565b509392505050565b600082601f8301126200027657600080fd5b8151620002888482602086016200021f565b91505092915050565b60008060408385031215620002a557600080fd5b600083015167ffffffffffffffff811115620002c057600080fd5b620002ce8582860162000264565b925050602083015167ffffffffffffffff811115620002ec57600080fd5b620002fa8582860162000264565b9150509250929050565b60006200031062000323565b90506200031e8282620003cf565b919050565b6000604051905090565b600067ffffffffffffffff8211156200034b576200034a62000434565b5b620003568262000463565b9050602081019050919050565b60005b838110156200038357808201518184015260208101905062000366565b8381111562000393576000848401525b50505050565b60006002820490506001821680620003b257607f821691505b60208210811415620003c957620003c862000405565b5b50919050565b620003da8262000463565b810181811067ffffffffffffffff82111715620003fc57620003fb62000434565b5b80604052505050565b7f4e487b7100000000000000000000000000000000000000000000000000000000600052602260045260246000fd5b7f4e487b7100000000000000000000000000000000000000000000000000000000600052604160045260246000fd5b6000601f19601f8301169050919050565b61351d80620004846000396000f3fe608060405234801561001057600080fd5b506004361061018e5760003560e01c8063715018a6116100de578063a22cb46511610097578063e985e9c511610071578063e985e9c51461049a578063f2fde38b146104ca578063fa7a3bb5146104e6578063fe7fdced146105045761018e565b8063a22cb46514610432578063b88d4fde1461044e578063c87b56dd1461046a5761018e565b8063715018a61461037d57806373d3e6d71461038757806389ae5f47146103a55780638da5cb5b146103c35780638da7f232146103e157806395d89b41146104145761018e565b806335280abb1161014b5780635c975abb116101255780635c975abb146102cf5780636352211e146102ed5780636f6333401461031d57806370a082311461034d5761018e565b806335280abb1461026757806342842e0e1461029757806355f804b3146102b35761018e565b806301ffc9a71461019357806306fdde03146101c3578063081812fc146101e1578063095ea7b31461021157806310a759381461022d57806323b872dd1461024b575b600080fd5b6101ad60048036038101906101a891906124ab565b610534565b6040516101ba9190612961565b60405180910390f35b6101cb610616565b6040516101d8919061297c565b60405180910390f35b6101fb60048036038101906101f691906125aa565b6106a8565b60405161020891906128fa565b60405180910390f35b61022b6004803603810190610226919061246f565b61072d565b005b610235610845565b6040516102429190612b7e565b60405180910390f35b61026560048036038101906102609190612369565b610856565b005b610281600480360381019061027c91906125aa565b6108b6565b60405161028e9190612b7e565b60405180910390f35b6102b160048036038101906102ac9190612369565b6108da565b005b6102cd60048036038101906102c891906124fd565b6108fa565b005b6102d7610a64565b6040516102e49190612961565b60405180910390f35b610307600480360381019061030291906125aa565b610a7a565b60405161031491906128fa565b60405180910390f35b6103376004803603810190610332919061253e565b610b2c565b6040516103449190612961565b60405180910390f35b61036760048036038101906103629190612304565b610b85565b6040516103749190612b7e565b60405180910390f35b610385610c3d565b005b61038f610d77565b60405161039c9190612b7e565b60405180910390f35b6103ad610d7d565b6040516103ba9190612b7e565b60405180910390f35b6103cb610d83565b6040516103d891906128fa565b60405180910390f35b6103fb60048036038101906103f691906125aa565b610dac565b60405161040b9493929190612b99565b60405180910390f35b61041c610e84565b604051610429919061297c565b60405180910390f35b61044c60048036038101906104479190612433565b610f16565b005b610468600480360381019061046391906123b8565b611097565b005b610484600480360381019061047f91906125aa565b6110f9565b604051610491919061297c565b60405180910390f35b6104b460048036038101906104af919061232d565b6111a0565b6040516104c19190612961565b60405180910390f35b6104e460048036038101906104df9190612304565b611234565b005b6104ee6113dd565b6040516104fb9190612b7e565b60405180910390f35b61051e600480360381019061051991906124fd565b6113e3565b60405161052b9190612961565b60405180910390f35b60007f80ac58cd000000000000000000000000000000000000000000000000000000007bffffffffffffffffffffffffffffffffffffffffffffffffffffffff1916827bffffffffffffffffffffffffffffffffffffffffffffffffffffffff191614806105ff57507f5b5e139f000000000000000000000000000000000000000000000000000000007bffffffffffffffffffffffffffffffffffffffffffffffffffffffff1916827bffffffffffffffffffffffffffffffffffffffffffffffffffffffff1916145b8061060f575061060e82611627565b5b9050919050565b60606006805461062590612e8c565b80601f016020809104026020016040519081016040528092919081815260200182805461065190612e8c565b801561069e5780601f106106735761010080835404028352916020019161069e565b820191906000526020600020905b81548152906001019060200180831161068157829003601f168201915b5050505050905090565b60006106b382611691565b6106f2576040517f08c379a00000000000000000000000000000000000000000000000000000000081526004016106e990612a9e565b60405180910390fd5b600a600083815260200190815260200160002060009054906101000a900473ffffffffffffffffffffffffffffffffffffffff169050919050565b600061073882610a7a565b90508073ffffffffffffffffffffffffffffffffffffffff168373ffffffffffffffffffffffffffffffffffffffff1614156107a9576040517f08c379a00000000000000000000000000000000000000000000000000000000081526004016107a090612b1e565b60405180910390fd5b8073ffffffffffffffffffffffffffffffffffffffff166107c86116fd565b73ffffffffffffffffffffffffffffffffffffffff1614806107f757506107f6816107f16116fd565b6111a0565b5b610836576040517f08c379a000000000000000000000000000000000000000000000000000000000815260040161082d90612a3e565b60405180910390fd5b6108408383611705565b505050565b610100806108539190612d36565b81565b6108676108616116fd565b826117be565b6108a6576040517f08c379a000000000000000000000000000000000000000000000000000000000815260040161089d90612b3e565b60405180910390fd5b6108b183838361189c565b505050565b600381815481106108c657600080fd5b906000526020600020016000915090505481565b6108f583838360405180602001604052806000815250611097565b505050565b6109026116fd565b73ffffffffffffffffffffffffffffffffffffffff16610920610d83565b73ffffffffffffffffffffffffffffffffffffffff1614610976576040517f08c379a000000000000000000000000000000000000000000000000000000000815260040161096d90612abe565b60405180910390fd5b610a0a6005805461098690612e8c565b80601f01602080910402602001604051908101604052809291908181526020018280546109b290612e8c565b80156109ff5780601f106109d4576101008083540402835291602001916109ff565b820191906000526020600020905b8154815290600101906020018083116109e257829003601f168201915b505050505082610b2c565b15610a4a576040517f08c379a0000000000000000000000000000000000000000000000000000000008152600401610a4190612b5e565b60405180910390fd5b8060059080519060200190610a60929190612128565b5050565b60008060149054906101000a900460ff16905090565b6000806008600084815260200190815260200160002060009054906101000a900473ffffffffffffffffffffffffffffffffffffffff169050600073ffffffffffffffffffffffffffffffffffffffff168173ffffffffffffffffffffffffffffffffffffffff161415610b23576040517f08c379a0000000000000000000000000000000000000000000000000000000008152600401610b1a90612a7e565b60405180910390fd5b80915050919050565b600081604051602001610b3f91906128bf565b6040516020818303038152906040528051906020012083604051602001610b6691906128bf565b6040516020818303038152906040528051906020012014905092915050565b60008073ffffffffffffffffffffffffffffffffffffffff168273ffffffffffffffffffffffffffffffffffffffff161415610bf6576040517f08c379a0000000000000000000000000000000000000000000000000000000008152600401610bed90612a5e565b60405180910390fd5b600960008373ffffffffffffffffffffffffffffffffffffffff1673ffffffffffffffffffffffffffffffffffffffff168152602001908152602001600020549050919050565b610c456116fd565b73ffffffffffffffffffffffffffffffffffffffff16610c63610d83565b73ffffffffffffffffffffffffffffffffffffffff1614610cb9576040517f08c379a0000000000000000000000000000000000000000000000000000000008152600401610cb090612abe565b60405180910390fd5b600073ffffffffffffffffffffffffffffffffffffffff1660008054906101000a900473ffffffffffffffffffffffffffffffffffffffff1673ffffffffffffffffffffffffffffffffffffffff167f8be0079c531659141344cd1fd0a4f28419497f9722a3daafe3b4186f6b6457e060405160405180910390a360008060006101000a81548173ffffffffffffffffffffffffffffffffffffffff021916908373ffffffffffffffffffffffffffffffffffffffff160217905550565b60025481565b61010081565b60008060009054906101000a900473ffffffffffffffffffffffffffffffffffffffff16905090565b6004602052806000526040600020600091509050806000015490806001018054610dd590612e8c565b80601f0160208091040260200160405190810160405280929190818152602001828054610e0190612e8c565b8015610e4e5780601f10610e2357610100808354040283529160200191610e4e565b820191906000526020600020905b815481529060010190602001808311610e3157829003601f168201915b5050505050908060020160009054906101000a900473ffffffffffffffffffffffffffffffffffffffff16908060030154905084565b606060078054610e9390612e8c565b80601f0160208091040260200160405190810160405280929190818152602001828054610ebf90612e8c565b8015610f0c5780601f10610ee157610100808354040283529160200191610f0c565b820191906000526020600020905b815481529060010190602001808311610eef57829003601f168201915b5050505050905090565b610f1e6116fd565b73ffffffffffffffffffffffffffffffffffffffff168273ffffffffffffffffffffffffffffffffffffffff161415610f8c576040517f08c379a0000000000000000000000000000000000000000000000000000000008152600401610f83906129fe565b60405180910390fd5b80600b6000610f996116fd565b73ffffffffffffffffffffffffffffffffffffffff1673ffffffffffffffffffffffffffffffffffffffff16815260200190815260200160002060008473ffffffffffffffffffffffffffffffffffffffff1673ffffffffffffffffffffffffffffffffffffffff16815260200190815260200160002060006101000a81548160ff0219169083151502179055508173ffffffffffffffffffffffffffffffffffffffff166110466116fd565b73ffffffffffffffffffffffffffffffffffffffff167f17307eab39ab6107e8899845ad3d59bd9653f200f220920489ca2b5937696c318360405161108b9190612961565b60405180910390a35050565b6110a86110a26116fd565b836117be565b6110e7576040517f08c379a00000000000000000000000000000000000000000000000000000000081526004016110de90612b3e565b60405180910390fd5b6110f384848484611cde565b50505050565b606061110482611691565b611143576040517f08c379a000000000000000000000000000000000000000000000000000000000815260040161113a90612afe565b60405180910390fd5b600061114d611d3a565b9050600081511161116d5760405180602001604052806000815250611198565b8061117784611dcc565b6040516020016111889291906128d6565b6040516020818303038152906040525b915050919050565b6000600b60008473ffffffffffffffffffffffffffffffffffffffff1673ffffffffffffffffffffffffffffffffffffffff16815260200190815260200160002060008373ffffffffffffffffffffffffffffffffffffffff1673ffffffffffffffffffffffffffffffffffffffff16815260200190815260200160002060009054906101000a900460ff16905092915050565b61123c6116fd565b73ffffffffffffffffffffffffffffffffffffffff1661125a610d83565b73ffffffffffffffffffffffffffffffffffffffff16146112b0576040517f08c379a00000000000000000000000000000000000000000000000000000000081526004016112a790612abe565b60405180910390fd5b600073ffffffffffffffffffffffffffffffffffffffff168173ffffffffffffffffffffffffffffffffffffffff161415611320576040517f08c379a0000000000000000000000000000000000000000000000000000000008152600401611317906129be565b60405180910390fd5b8073ffffffffffffffffffffffffffffffffffffffff1660008054906101000a900473ffffffffffffffffffffffffffffffffffffffff1673ffffffffffffffffffffffffffffffffffffffff167f8be0079c531659141344cd1fd0a4f28419497f9722a3daafe3b4186f6b6457e060405160405180910390a3806000806101000a81548173ffffffffffffffffffffffffffffffffffffffff021916908373ffffffffffffffffffffffffffffffffffffffff16021790555050565b60015481565b60008082905060078151146113fc576000915050611622565b602360f81b8160008151811061143b577f4e487b7100000000000000000000000000000000000000000000000000000000600052603260045260246000fd5b602001015160f81c60f81b7effffffffffffffffffffffffffffffffffffffffffffffffffffffffffffff191614611477576000915050611622565b6000600190505b815181101561161b5760008282815181106114c2577f4e487b7100000000000000000000000000000000000000000000000000000000600052603260045260246000fd5b602001015160f81c60f81b9050603060f81b817effffffffffffffffffffffffffffffffffffffffffffffffffffffffffffff19161015801561152b5750603960f81b817effffffffffffffffffffffffffffffffffffffffffffffffffffffffffffff191611155b1580156115915750604160f81b817effffffffffffffffffffffffffffffffffffffffffffffffffffffffffffff19161015801561158f5750604660f81b817effffffffffffffffffffffffffffffffffffffffffffffffffffffffffffff191611155b155b80156115f65750606160f81b817effffffffffffffffffffffffffffffffffffffffffffffffffffffffffffff1916101580156115f45750606660f81b817effffffffffffffffffffffffffffffffffffffffffffffffffffffffffffff191611155b155b156116075760009350505050611622565b50808061161390612eef565b91505061147e565b5060019150505b919050565b60007f01ffc9a7000000000000000000000000000000000000000000000000000000007bffffffffffffffffffffffffffffffffffffffffffffffffffffffff1916827bffffffffffffffffffffffffffffffffffffffffffffffffffffffff1916149050919050565b60008073ffffffffffffffffffffffffffffffffffffffff166008600084815260200190815260200160002060009054906101000a900473ffffffffffffffffffffffffffffffffffffffff1673ffffffffffffffffffffffffffffffffffffffff1614159050919050565b600033905090565b81600a600083815260200190815260200160002060006101000a81548173ffffffffffffffffffffffffffffffffffffffff021916908373ffffffffffffffffffffffffffffffffffffffff160217905550808273ffffffffffffffffffffffffffffffffffffffff1661177883610a7a565b73ffffffffffffffffffffffffffffffffffffffff167f8c5be1e5ebec7d5bd14f71427d1e84f3dd0314c0f7b2291e5b200ac8c7c3b92560405160405180910390a45050565b60006117c982611691565b611808576040517f08c379a00000000000000000000000000000000000000000000000000000000081526004016117ff90612a1e565b60405180910390fd5b600061181383610a7a565b90508073ffffffffffffffffffffffffffffffffffffffff168473ffffffffffffffffffffffffffffffffffffffff16148061188257508373ffffffffffffffffffffffffffffffffffffffff1661186a846106a8565b73ffffffffffffffffffffffffffffffffffffffff16145b80611893575061189281856111a0565b5b91505092915050565b8273ffffffffffffffffffffffffffffffffffffffff166118bc82610a7a565b73ffffffffffffffffffffffffffffffffffffffff1614611912576040517f08c379a000000000000000000000000000000000000000000000000000000000815260040161190990612ade565b60405180910390fd5b600073ffffffffffffffffffffffffffffffffffffffff168273ffffffffffffffffffffffffffffffffffffffff161415611982576040517f08c379a0000000000000000000000000000000000000000000000000000000008152600401611979906129de565b60405180910390fd5b61198d838383611f79565b611998600082611705565b600060046000838152602001908152602001600020604051806080016040529081600082015481526020016001820180546119d290612e8c565b80601f01602080910402602001604051908101604052809291908181526020018280546119fe90612e8c565b8015611a4b5780601f10611a2057610100808354040283529160200191611a4b565b820191906000526020600020905b815481529060010190602001808311611a2e57829003601f168201915b505050505081526020016002820160009054906101000a900473ffffffffffffffffffffffffffffffffffffffff1673ffffffffffffffffffffffffffffffffffffffff1673ffffffffffffffffffffffffffffffffffffffff168152602001600382015481525050905082816040019073ffffffffffffffffffffffffffffffffffffffff16908173ffffffffffffffffffffffffffffffffffffffff16815250508060046000848152602001908152602001600020600082015181600001556020820151816001019080519060200190611b28929190612128565b5060408201518160020160006101000a81548173ffffffffffffffffffffffffffffffffffffffff021916908373ffffffffffffffffffffffffffffffffffffffff160217905550606082015181600301559050506001600960008673ffffffffffffffffffffffffffffffffffffffff1673ffffffffffffffffffffffffffffffffffffffff1681526020019081526020016000206000828254611bcd9190612d90565b925050819055506001600960008573ffffffffffffffffffffffffffffffffffffffff1673ffffffffffffffffffffffffffffffffffffffff1681526020019081526020016000206000828254611c249190612caf565b92505081905550826008600084815260200190815260200160002060006101000a81548173ffffffffffffffffffffffffffffffffffffffff021916908373ffffffffffffffffffffffffffffffffffffffff160217905550818373ffffffffffffffffffffffffffffffffffffffff168573ffffffffffffffffffffffffffffffffffffffff167fddf252ad1be2c89b69c2b068fc378daa952ba7f163c4a11628f55a4df523b3ef60405160405180910390a450505050565b611ce984848461189c565b611cf584848484611f7e565b611d34576040517f08c379a0000000000000000000000000000000000000000000000000000000008152600401611d2b9061299e565b60405180910390fd5b50505050565b606060058054611d4990612e8c565b80601f0160208091040260200160405190810160405280929190818152602001828054611d7590612e8c565b8015611dc25780601f10611d9757610100808354040283529160200191611dc2565b820191906000526020600020905b815481529060010190602001808311611da557829003601f168201915b5050505050905090565b60606000821415611e14576040518060400160405280600181526020017f30000000000000000000000000000000000000000000000000000000000000008152509050611f74565b600082905060005b60008214611e46578080611e2f90612eef565b915050600a82611e3f9190612d05565b9150611e1c565b60008167ffffffffffffffff811115611e88577f4e487b7100000000000000000000000000000000000000000000000000000000600052604160045260246000fd5b6040519080825280601f01601f191660200182016040528015611eba5781602001600182028036833780820191505090505b5090505b60008514611f6d57600182611ed39190612d90565b9150600a85611ee29190612f38565b6030611eee9190612caf565b60f81b818381518110611f2a577f4e487b7100000000000000000000000000000000000000000000000000000000600052603260045260246000fd5b60200101907effffffffffffffffffffffffffffffffffffffffffffffffffffffffffffff1916908160001a905350600a85611f669190612d05565b9450611ebe565b8093505050505b919050565b505050565b6000611f9f8473ffffffffffffffffffffffffffffffffffffffff16612115565b15612108578373ffffffffffffffffffffffffffffffffffffffff1663150b7a02611fc86116fd565b8786866040518563ffffffff1660e01b8152600401611fea9493929190612915565b602060405180830381600087803b15801561200457600080fd5b505af192505050801561203557506040513d601f19601f8201168201806040525081019061203291906124d4565b60015b6120b8573d8060008114612065576040519150601f19603f3d011682016040523d82523d6000602084013e61206a565b606091505b506000815114156120b0576040517f08c379a00000000000000000000000000000000000000000000000000000000081526004016120a79061299e565b60405180910390fd5b805181602001fd5b63150b7a0260e01b7bffffffffffffffffffffffffffffffffffffffffffffffffffffffff1916817bffffffffffffffffffffffffffffffffffffffffffffffffffffffff19161491505061210d565b600190505b949350505050565b600080823b905060008111915050919050565b82805461213490612e8c565b90600052602060002090601f016020900481019282612156576000855561219d565b82601f1061216f57805160ff191683800117855561219d565b8280016001018555821561219d579182015b8281111561219c578251825591602001919060010190612181565b5b5090506121aa91906121ae565b5090565b5b808211156121c75760008160009055506001016121af565b5090565b60006121de6121d984612c0a565b612be5565b9050828152602081018484840111156121f657600080fd5b612201848285612e4a565b509392505050565b600061221c61221784612c3b565b612be5565b90508281526020810184848401111561223457600080fd5b61223f848285612e4a565b509392505050565b6000813590506122568161348b565b92915050565b60008135905061226b816134a2565b92915050565b600081359050612280816134b9565b92915050565b600081519050612295816134b9565b92915050565b600082601f8301126122ac57600080fd5b81356122bc8482602086016121cb565b91505092915050565b600082601f8301126122d657600080fd5b81356122e6848260208601612209565b91505092915050565b6000813590506122fe816134d0565b92915050565b60006020828403121561231657600080fd5b600061232484828501612247565b91505092915050565b6000806040838503121561234057600080fd5b600061234e85828601612247565b925050602061235f85828601612247565b9150509250929050565b60008060006060848603121561237e57600080fd5b600061238c86828701612247565b935050602061239d86828701612247565b92505060406123ae868287016122ef565b9150509250925092565b600080600080608085870312156123ce57600080fd5b60006123dc87828801612247565b94505060206123ed87828801612247565b93505060406123fe878288016122ef565b925050606085013567ffffffffffffffff81111561241b57600080fd5b6124278782880161229b565b91505092959194509250565b6000806040838503121561244657600080fd5b600061245485828601612247565b92505060206124658582860161225c565b9150509250929050565b6000806040838503121561248257600080fd5b600061249085828601612247565b92505060206124a1858286016122ef565b9150509250929050565b6000602082840312156124bd57600080fd5b60006124cb84828501612271565b91505092915050565b6000602082840312156124e657600080fd5b60006124f484828501612286565b91505092915050565b60006020828403121561250f57600080fd5b600082013567ffffffffffffffff81111561252957600080fd5b612535848285016122c5565b91505092915050565b6000806040838503121561255157600080fd5b600083013567ffffffffffffffff81111561256b57600080fd5b612577858286016122c5565b925050602083013567ffffffffffffffff81111561259457600080fd5b6125a0858286016122c5565b9150509250929050565b6000602082840312156125bc57600080fd5b60006125ca848285016122ef565b91505092915050565b6125dc81612dd6565b82525050565b6125eb81612dc4565b82525050565b6125fa81612de8565b82525050565b600061260b82612c6c565b6126158185612c82565b9350612625818560208601612e59565b61262e81613025565b840191505092915050565b600061264482612c77565b61264e8185612c93565b935061265e818560208601612e59565b61266781613025565b840191505092915050565b600061267d82612c77565b6126878185612ca4565b9350612697818560208601612e59565b80840191505092915050565b60006126b0603283612c93565b91506126bb82613036565b604082019050919050565b60006126d3602683612c93565b91506126de82613085565b604082019050919050565b60006126f6602483612c93565b9150612701826130d4565b604082019050919050565b6000612719601983612c93565b915061272482613123565b602082019050919050565b600061273c602c83612c93565b91506127478261314c565b604082019050919050565b600061275f603883612c93565b915061276a8261319b565b604082019050919050565b6000612782602a83612c93565b915061278d826131ea565b604082019050919050565b60006127a5602983612c93565b91506127b082613239565b604082019050919050565b60006127c8602c83612c93565b91506127d382613288565b604082019050919050565b60006127eb602083612c93565b91506127f6826132d7565b602082019050919050565b600061280e602983612c93565b915061281982613300565b604082019050919050565b6000612831602f83612c93565b915061283c8261334f565b604082019050919050565b6000612854602183612c93565b915061285f8261339e565b604082019050919050565b6000612877603183612c93565b9150612882826133ed565b604082019050919050565b600061289a603083612c93565b91506128a58261343c565b604082019050919050565b6128b981612e40565b82525050565b60006128cb8284612672565b915081905092915050565b60006128e28285612672565b91506128ee8284612672565b91508190509392505050565b600060208201905061290f60008301846125e2565b92915050565b600060808201905061292a60008301876125e2565b61293760208301866125e2565b61294460408301856128b0565b81810360608301526129568184612600565b905095945050505050565b600060208201905061297660008301846125f1565b92915050565b600060208201905081810360008301526129968184612639565b905092915050565b600060208201905081810360008301526129b7816126a3565b9050919050565b600060208201905081810360008301526129d7816126c6565b9050919050565b600060208201905081810360008301526129f7816126e9565b9050919050565b60006020820190508181036000830152612a178161270c565b9050919050565b60006020820190508181036000830152612a378161272f565b9050919050565b60006020820190508181036000830152612a5781612752565b9050919050565b60006020820190508181036000830152612a7781612775565b9050919050565b60006020820190508181036000830152612a9781612798565b9050919050565b60006020820190508181036000830152612ab7816127bb565b9050919050565b60006020820190508181036000830152612ad7816127de565b9050919050565b60006020820190508181036000830152612af781612801565b9050919050565b60006020820190508181036000830152612b1781612824565b9050919050565b60006020820190508181036000830152612b3781612847565b9050919050565b60006020820190508181036000830152612b578161286a565b9050919050565b60006020820190508181036000830152612b778161288d565b9050919050565b6000602082019050612b9360008301846128b0565b92915050565b6000608082019050612bae60008301876128b0565b8181036020830152612bc08186612639565b9050612bcf60408301856125d3565b612bdc60608301846128b0565b95945050505050565b6000612bef612c00565b9050612bfb8282612ebe565b919050565b6000604051905090565b600067ffffffffffffffff821115612c2557612c24612ff6565b5b612c2e82613025565b9050602081019050919050565b600067ffffffffffffffff821115612c5657612c55612ff6565b5b612c5f82613025565b9050602081019050919050565b600081519050919050565b600081519050919050565b600082825260208201905092915050565b600082825260208201905092915050565b600081905092915050565b6000612cba82612e40565b9150612cc583612e40565b9250827fffffffffffffffffffffffffffffffffffffffffffffffffffffffffffffffff03821115612cfa57612cf9612f69565b5b828201905092915050565b6000612d1082612e40565b9150612d1b83612e40565b925082612d2b57612d2a612f98565b5b828204905092915050565b6000612d4182612e40565b9150612d4c83612e40565b9250817fffffffffffffffffffffffffffffffffffffffffffffffffffffffffffffffff0483118215151615612d8557612d84612f69565b5b828202905092915050565b6000612d9b82612e40565b9150612da683612e40565b925082821015612db957612db8612f69565b5b828203905092915050565b6000612dcf82612e20565b9050919050565b6000612de182612e20565b9050919050565b60008115159050919050565b60007fffffffff0000000000000000000000000000000000000000000000000000000082169050919050565b600073ffffffffffffffffffffffffffffffffffffffff82169050919050565b6000819050919050565b82818337600083830152505050565b60005b83811015612e77578082015181840152602081019050612e5c565b83811115612e86576000848401525b50505050565b60006002820490506001821680612ea457607f821691505b60208210811415612eb857612eb7612fc7565b5b50919050565b612ec782613025565b810181811067ffffffffffffffff82111715612ee657612ee5612ff6565b5b80604052505050565b6000612efa82612e40565b91507fffffffffffffffffffffffffffffffffffffffffffffffffffffffffffffffff821415612f2d57612f2c612f69565b5b600182019050919050565b6000612f4382612e40565b9150612f4e83612e40565b925082612f5e57612f5d612f98565b5b828206905092915050565b7f4e487b7100000000000000000000000000000000000000000000000000000000600052601160045260246000fd5b7f4e487b7100000000000000000000000000000000000000000000000000000000600052601260045260246000fd5b7f4e487b7100000000000000000000000000000000000000000000000000000000600052602260045260246000fd5b7f4e487b7100000000000000000000000000000000000000000000000000000000600052604160045260246000fd5b6000601f19601f8301169050919050565b7f4552433732313a207472616e7366657220746f206e6f6e20455243373231526560008201527f63656976657220696d706c656d656e7465720000000000000000000000000000602082015250565b7f4f776e61626c653a206e6577206f776e657220697320746865207a65726f206160008201527f6464726573730000000000000000000000000000000000000000000000000000602082015250565b7f4552433732313a207472616e7366657220746f20746865207a65726f2061646460008201527f7265737300000000000000000000000000000000000000000000000000000000602082015250565b7f4552433732313a20617070726f766520746f2063616c6c657200000000000000600082015250565b7f4552433732313a206f70657261746f7220717565727920666f72206e6f6e657860008201527f697374656e7420746f6b656e0000000000000000000000000000000000000000602082015250565b7f4552433732313a20617070726f76652063616c6c6572206973206e6f74206f7760008201527f6e6572206e6f7220617070726f76656420666f7220616c6c0000000000000000602082015250565b7f4552433732313a2062616c616e636520717565727920666f7220746865207a6560008201527f726f206164647265737300000000000000000000000000000000000000000000602082015250565b7f4552433732313a206f776e657220717565727920666f72206e6f6e657869737460008201527f656e7420746f6b656e0000000000000000000000000000000000000000000000602082015250565b7f4552433732313a20617070726f76656420717565727920666f72206e6f6e657860008201527f697374656e7420746f6b656e0000000000000000000000000000000000000000602082015250565b7f4f776e61626c653a2063616c6c6572206973206e6f7420746865206f776e6572600082015250565b7f4552433732313a207472616e73666572206f6620746f6b656e2074686174206960008201527f73206e6f74206f776e0000000000000000000000000000000000000000000000602082015250565b7f4552433732314d657461646174613a2055524920717565727920666f72206e6f60008201527f6e6578697374656e7420746f6b656e0000000000000000000000000000000000602082015250565b7f4552433732313a20617070726f76616c20746f2063757272656e74206f776e6560008201527f7200000000000000000000000000000000000000000000000000000000000000602082015250565b7f4552433732313a207472616e736665722063616c6c6572206973206e6f74206f60008201527f776e6572206e6f7220617070726f766564000000000000000000000000000000602082015250565b7f546865206e6577206261736520555249206973207468652073616d652061732060008201527f7468652063757272656e74206f6e652e00000000000000000000000000000000602082015250565b61349481612dc4565b811461349f57600080fd5b50565b6134ab81612de8565b81146134b657600080fd5b50565b6134c281612df4565b81146134cd57600080fd5b50565b6134d981612e40565b81146134e457600080fd5b5056fea2646970667358221220728f6e82e7b79ba15acfb89b1a8bcd88c77cb74b9c1366f2bbf7ec72a256930264736f6c63430008040033",
  "immutableReferences": {},
  "source": "// SPDX-License-Identifier: MIT\n\npragma solidity ^0.8.0;\n\nimport \"@openzeppelin/contracts/token/ERC721/IERC721.sol\";\nimport \"@openzeppelin/contracts/token/ERC721/IERC721Receiver.sol\";\nimport \"@openzeppelin/contracts/token/ERC721/extensions/IERC721Metadata.sol\";\nimport \"@openzeppelin/contracts/utils/Address.sol\";\nimport \"@openzeppelin/contracts/utils/Context.sol\";\nimport \"@openzeppelin/contracts/utils/Strings.sol\";\nimport \"@openzeppelin/contracts/utils/introspection/ERC165.sol\";\nimport \"@openzeppelin/contracts/access/Ownable.sol\";\nimport \"@openzeppelin/contracts/security/Pausable.sol\";\n\n/**\n * @dev Implementation of https://eips.ethereum.org/EIPS/eip-721[ERC721] Non-Fungible Token Standard, including\n * the Metadata extension, but not including the Enumerable extension, which is available separately as\n * {ERC721Enumerable}.\n * @author Carles Rojas\n */\ncontract ERC721 is\n    Context,\n    ERC165,\n    IERC721,\n    IERC721Metadata,\n    Ownable,\n    Pausable\n{\n    using Address for address;\n    using Strings for uint256;\n\n    // ##################################################################\n    //    GLOBAR VARS\n    // ##################################################################\n\n    uint256 public constant NUM_ROWS = 256;\n    uint256 public constant PIXEL_LIMIT = NUM_ROWS * NUM_ROWS;\n    uint256 public transctionFee = 1;\n    uint256 public pixelCount;\n    uint256[] public mintedPixels;\n    mapping(uint256 => Pixel) public pixels;\n    string private currentBaseURI = \"\";\n\n    // ##################################################################\n    //    STRUCTS\n    // ##################################################################\n\n    /**\n        @notice Represents a pixel. With coordinates, color, owner, wei price and whether it has been minted\n    */\n    struct Pixel {\n        uint256 coords;\n        string color;\n        address payable owner;\n        uint256 weiPrice;\n    }\n\n    // Token name\n    string private _name;\n\n    // Token symbol\n    string private _symbol;\n\n    // Mapping from token ID to owner address\n    mapping(uint256 => address) private _owners;\n\n    // Mapping owner address to token count\n    mapping(address => uint256) private _balances;\n\n    // Mapping from token ID to approved address\n    mapping(uint256 => address) private _tokenApprovals;\n\n    // Mapping from owner to operator approvals\n    mapping(address => mapping(address => bool)) private _operatorApprovals;\n\n    /**\n     * @dev Initializes the contract by setting a `name` and a `symbol` to the token collection.\n     */\n    constructor(string memory name_, string memory symbol_) {\n        _name = name_;\n        _symbol = symbol_;\n    }\n\n    /**\n     * @dev See {IERC165-supportsInterface}.\n     */\n    function supportsInterface(bytes4 interfaceId)\n        public\n        view\n        virtual\n        override(ERC165, IERC165)\n        returns (bool)\n    {\n        return\n            interfaceId == type(IERC721).interfaceId ||\n            interfaceId == type(IERC721Metadata).interfaceId ||\n            super.supportsInterface(interfaceId);\n    }\n\n    /**\n     * @dev See {IERC721-balanceOf}.\n     */\n    function balanceOf(address owner)\n        public\n        view\n        virtual\n        override\n        returns (uint256)\n    {\n        require(\n            owner != address(0),\n            \"ERC721: balance query for the zero address\"\n        );\n        return _balances[owner];\n    }\n\n    /**\n     * @dev See {IERC721-ownerOf}.\n     */\n    function ownerOf(uint256 tokenId)\n        public\n        view\n        virtual\n        override\n        returns (address)\n    {\n        address owner = _owners[tokenId];\n        require(\n            owner != address(0),\n            \"ERC721: owner query for nonexistent token\"\n        );\n        return owner;\n    }\n\n    /**\n     * @dev See {IERC721Metadata-name}.\n     */\n    function name() public view virtual override returns (string memory) {\n        return _name;\n    }\n\n    /**\n     * @dev See {IERC721Metadata-symbol}.\n     */\n    function symbol() public view virtual override returns (string memory) {\n        return _symbol;\n    }\n\n    /**\n     * @dev See {IERC721Metadata-tokenURI}.\n     */\n    function tokenURI(uint256 tokenId)\n        public\n        view\n        virtual\n        override\n        returns (string memory)\n    {\n        require(\n            _exists(tokenId),\n            \"ERC721Metadata: URI query for nonexistent token\"\n        );\n\n        string memory baseURI = _baseURI();\n        return\n            bytes(baseURI).length > 0\n                ? string(abi.encodePacked(baseURI, tokenId.toString()))\n                : \"\";\n    }\n\n    /**\n        @notice Set the new base URI for all the pixels\n        @param baseURI_ The new base URI\n    */\n    function setBaseURI(string memory baseURI_) public onlyOwner {\n        // Check that the BaseURI is different than the old one\n        require(\n            !stringsAreEqual(currentBaseURI, baseURI_),\n            \"The new base URI is the same as the current one.\"\n        );\n\n        currentBaseURI = baseURI_;\n    }\n\n    /**\n     * @dev Base URI for computing {tokenURI}. Empty by default, can be overriden\n     * in child contracts.\n     */\n    function _baseURI() internal view virtual returns (string memory) {\n        return currentBaseURI;\n    }\n\n    /**\n     * @dev See {IERC721-approve}.\n     */\n    function approve(address to, uint256 tokenId) public virtual override {\n        address owner = ERC721.ownerOf(tokenId);\n        require(to != owner, \"ERC721: approval to current owner\");\n\n        require(\n            _msgSender() == owner || isApprovedForAll(owner, _msgSender()),\n            \"ERC721: approve caller is not owner nor approved for all\"\n        );\n\n        _approve(to, tokenId);\n    }\n\n    /**\n     * @dev See {IERC721-getApproved}.\n     */\n    function getApproved(uint256 tokenId)\n        public\n        view\n        virtual\n        override\n        returns (address)\n    {\n        require(\n            _exists(tokenId),\n            \"ERC721: approved query for nonexistent token\"\n        );\n\n        return _tokenApprovals[tokenId];\n    }\n\n    /**\n     * @dev See {IERC721-setApprovalForAll}.\n     */\n    function setApprovalForAll(address operator, bool approved)\n        public\n        virtual\n        override\n    {\n        require(operator != _msgSender(), \"ERC721: approve to caller\");\n\n        _operatorApprovals[_msgSender()][operator] = approved;\n        emit ApprovalForAll(_msgSender(), operator, approved);\n    }\n\n    /**\n     * @dev See {IERC721-isApprovedForAll}.\n     */\n    function isApprovedForAll(address owner, address operator)\n        public\n        view\n        virtual\n        override\n        returns (bool)\n    {\n        return _operatorApprovals[owner][operator];\n    }\n\n    /**\n     * @dev See {IERC721-transferFrom}.\n     */\n    function transferFrom(\n        address from,\n        address to,\n        uint256 tokenId\n    ) public virtual override {\n        //solhint-disable-next-line max-line-length\n        require(\n            _isApprovedOrOwner(_msgSender(), tokenId),\n            \"ERC721: transfer caller is not owner nor approved\"\n        );\n\n        _transfer(from, to, tokenId);\n    }\n\n    /**\n     * @dev See {IERC721-safeTransferFrom}.\n     */\n    function safeTransferFrom(\n        address from,\n        address to,\n        uint256 tokenId\n    ) public virtual override {\n        safeTransferFrom(from, to, tokenId, \"\");\n    }\n\n    /**\n     * @dev See {IERC721-safeTransferFrom}.\n     */\n    function safeTransferFrom(\n        address from,\n        address to,\n        uint256 tokenId,\n        bytes memory _data\n    ) public virtual override {\n        require(\n            _isApprovedOrOwner(_msgSender(), tokenId),\n            \"ERC721: transfer caller is not owner nor approved\"\n        );\n        _safeTransfer(from, to, tokenId, _data);\n    }\n\n    /**\n     * @dev Safely transfers `tokenId` token from `from` to `to`, checking first that contract recipients\n     * are aware of the ERC721 protocol to prevent tokens from being forever locked.\n     *\n     * `_data` is additional data, it has no specified format and it is sent in call to `to`.\n     *\n     * This internal function is equivalent to {safeTransferFrom}, and can be used to e.g.\n     * implement alternative mechanisms to perform token transfer, such as signature-based.\n     *\n     * Requirements:\n     *\n     * - `from` cannot be the zero address.\n     * - `to` cannot be the zero address.\n     * - `tokenId` token must exist and be owned by `from`.\n     * - If `to` refers to a smart contract, it must implement {IERC721Receiver-onERC721Received}, which is called upon a safe transfer.\n     *\n     * Emits a {Transfer} event.\n     */\n    function _safeTransfer(\n        address from,\n        address to,\n        uint256 tokenId,\n        bytes memory _data\n    ) internal virtual {\n        _transfer(from, to, tokenId);\n        require(\n            _checkOnERC721Received(from, to, tokenId, _data),\n            \"ERC721: transfer to non ERC721Receiver implementer\"\n        );\n    }\n\n    /**\n     * @dev Returns whether `tokenId` exists.\n     *\n     * Tokens can be managed by their owner or approved accounts via {approve} or {setApprovalForAll}.\n     *\n     * Tokens start existing when they are minted (`_mint`),\n     * and stop existing when they are burned (`_burn`).\n     */\n    function _exists(uint256 tokenId) internal view virtual returns (bool) {\n        return _owners[tokenId] != address(0);\n    }\n\n    /**\n     * @dev Returns whether `spender` is allowed to manage `tokenId`.\n     *\n     * Requirements:\n     *\n     * - `tokenId` must exist.\n     */\n    function _isApprovedOrOwner(address spender, uint256 tokenId)\n        internal\n        view\n        virtual\n        returns (bool)\n    {\n        require(\n            _exists(tokenId),\n            \"ERC721: operator query for nonexistent token\"\n        );\n        address owner = ERC721.ownerOf(tokenId);\n        return (spender == owner ||\n            getApproved(tokenId) == spender ||\n            isApprovedForAll(owner, spender));\n    }\n\n    /**\n     * @dev Safely mints `tokenId` and transfers it to `to`.\n     *\n     * Requirements:\n     *\n     * - `tokenId` must not exist.\n     * - If `to` refers to a smart contract, it must implement {IERC721Receiver-onERC721Received}, which is called upon a safe transfer.\n     *\n     * Emits a {Transfer} event.\n     */\n    function _safeMint(address to, uint256 tokenId) internal virtual {\n        _safeMint(to, tokenId, \"\");\n    }\n\n    /**\n     * @dev Same as {xref-ERC721-_safeMint-address-uint256-}[`_safeMint`], with an additional `data` parameter which is\n     * forwarded in {IERC721Receiver-onERC721Received} to contract recipients.\n     */\n    function _safeMint(\n        address to,\n        uint256 tokenId,\n        bytes memory _data\n    ) internal virtual {\n        _mint(to, tokenId);\n        require(\n            _checkOnERC721Received(address(0), to, tokenId, _data),\n            \"ERC721: transfer to non ERC721Receiver implementer\"\n        );\n    }\n\n    /**\n     * @dev Mints `tokenId` and transfers it to `to`.\n     *\n     * WARNING: Usage of this method is discouraged, use {_safeMint} whenever possible\n     *\n     * Requirements:\n     *\n     * - `tokenId` must not exist.\n     * - `to` cannot be the zero address.\n     *\n     * Emits a {Transfer} event.\n     */\n    function _mint(address to, uint256 tokenId) internal virtual {\n        require(to != address(0), \"ERC721: mint to the zero address\");\n        require(!_exists(tokenId), \"ERC721: token already minted\");\n\n        _beforeTokenTransfer(address(0), to, tokenId);\n\n        // Increment the pixel count\n        pixelCount++;\n\n        // Add to minted pixels array\n        mintedPixels.push(tokenId);\n\n        // Save the pixel\n        pixels[tokenId] = Pixel(\n            tokenId,\n            \"#ffffff\",\n            payable(to),\n            5000000000000000\n        );\n\n        _balances[to] += 1;\n        _owners[tokenId] = to;\n\n        emit Transfer(address(0), to, tokenId);\n    }\n\n    /**\n     * @dev Destroys `tokenId`.\n     * The approval is cleared when the token is burned.\n     *\n     * Requirements:\n     *\n     * - `tokenId` must exist.\n     *\n     * Emits a {Transfer} event.\n     */\n    function _burn(uint256 tokenId) internal virtual {\n        address owner = ERC721.ownerOf(tokenId);\n\n        _beforeTokenTransfer(owner, address(0), tokenId);\n\n        // Clear approvals\n        _approve(address(0), tokenId);\n\n        // Decrement the pixel count\n        pixelCount -= 1;\n\n        // Get index inthe mintedPixels array\n        uint256 index;\n        bool found = false;\n        for (uint256 i = 0; i < mintedPixels.length; i++) {\n            if (tokenId == mintedPixels[i]) {\n                index = i;\n                found = true;\n                break;\n            }\n        }\n\n        // Require thtat the token is in the mintedPixels array\n        require(\n            found,\n            \"ERC721: token does not exist in the mintedPixels array\"\n        );\n\n        // Remove from minted pixels array\n        mintedPixels[index] = mintedPixels[mintedPixels.length - 1];\n        mintedPixels.pop();\n\n        // Delete the pixel\n        delete pixels[tokenId];\n\n        _balances[owner] -= 1;\n        delete _owners[tokenId];\n\n        emit Transfer(owner, address(0), tokenId);\n    }\n\n    /**\n     * @dev Transfers `tokenId` from `from` to `to`.\n     *  As opposed to {transferFrom}, this imposes no restrictions on msg.sender.\n     *\n     * Requirements:\n     *\n     * - `to` cannot be the zero address.\n     * - `tokenId` token must be owned by `from`.\n     *\n     * Emits a {Transfer} event.\n     */\n    function _transfer(\n        address from,\n        address to,\n        uint256 tokenId\n    ) internal virtual {\n        require(\n            ERC721.ownerOf(tokenId) == from,\n            \"ERC721: transfer of token that is not own\"\n        );\n        require(to != address(0), \"ERC721: transfer to the zero address\");\n\n        _beforeTokenTransfer(from, to, tokenId);\n\n        // Clear approvals from the previous owner\n        _approve(address(0), tokenId);\n\n        // Fetch the pixel and change its owner\n        Pixel memory _pixel = pixels[tokenId];\n        _pixel.owner = payable(to);\n        pixels[tokenId] = _pixel;\n\n        // Update balances & Owner\n        _balances[from] -= 1;\n        _balances[to] += 1;\n        _owners[tokenId] = to;\n\n        emit Transfer(from, to, tokenId);\n    }\n\n    /**\n     * @dev Approve `to` to operate on `tokenId`\n     *\n     * Emits a {Approval} event.\n     */\n    function _approve(address to, uint256 tokenId) internal virtual {\n        _tokenApprovals[tokenId] = to;\n        emit Approval(ERC721.ownerOf(tokenId), to, tokenId);\n    }\n\n    /**\n     * @dev Internal function to invoke {IERC721Receiver-onERC721Received} on a target address.\n     * The call is not executed if the target address is not a contract.\n     *\n     * @param from address representing the previous owner of the given token ID\n     * @param to target address that will receive the tokens\n     * @param tokenId uint256 ID of the token to be transferred\n     * @param _data bytes optional data to send along with the call\n     * @return bool whether the call correctly returned the expected magic value\n     */\n    function _checkOnERC721Received(\n        address from,\n        address to,\n        uint256 tokenId,\n        bytes memory _data\n    ) private returns (bool) {\n        if (to.isContract()) {\n            try\n                IERC721Receiver(to).onERC721Received(\n                    _msgSender(),\n                    from,\n                    tokenId,\n                    _data\n                )\n            returns (bytes4 retval) {\n                return retval == IERC721Receiver(to).onERC721Received.selector;\n            } catch (bytes memory reason) {\n                if (reason.length == 0) {\n                    revert(\n                        \"ERC721: transfer to non ERC721Receiver implementer\"\n                    );\n                } else {\n                    // solhint-disable-next-line no-inline-assembly\n                    assembly {\n                        revert(add(32, reason), mload(reason))\n                    }\n                }\n            }\n        } else {\n            return true;\n        }\n    }\n\n    /**\n     * @dev Hook that is called before any token transfer. This includes minting\n     * and burning.\n     *\n     * Calling conditions:\n     *\n     * - When `from` and `to` are both non-zero, ``from``'s `tokenId` will be\n     * transferred to `to`.\n     * - When `from` is zero, `tokenId` will be minted for `to`.\n     * - When `to` is zero, ``from``'s `tokenId` will be burned.\n     * - `from` cannot be the zero address.\n     * - `to` cannot be the zero address.\n     *\n     * To learn more about hooks, head to xref:ROOT:extending-contracts.adoc#using-hooks[Using Hooks].\n     */\n    function _beforeTokenTransfer(\n        address from,\n        address to,\n        uint256 tokenId\n    ) internal virtual {}\n\n    // ##################################################################\n    //    AUX FUNCTIONS\n    // ##################################################################\n\n    /**\n        @notice Checks if two strings are equal\n        @param _s1 The first string to compare\n        @param _s2 The second string to compare\n        @return True if the strings are equal\n    */\n    function stringsAreEqual(string memory _s1, string memory _s2)\n        public\n        pure\n        returns (bool)\n    {\n        return\n            keccak256(abi.encodePacked(_s1)) ==\n            keccak256(abi.encodePacked(_s2));\n    }\n\n    /**\n        @notice Checks if a color is a valid HEX color code\n        @param _color The HEX color code to check\n        @return True if the string is a valid HEX color code\n    */\n    function isColor(string memory _color) public pure returns (bool) {\n        // String to bytes\n        bytes memory b = bytes(_color);\n\n        // Not correct length\n        if (b.length != 7) return false;\n\n        // First charater must be '#'\n        if (b[0] != 0x23) return false;\n\n        // Other characters have to be 1-9 or A-F or a-f\n        for (uint256 i = 1; i < b.length; i++) {\n            bytes1 char = b[i];\n\n            if (\n                !(char >= 0x30 && char <= 0x39) && // 0-9\n                !(char >= 0x41 && char <= 0x46) && // A-F\n                !(char >= 0x61 && char <= 0x66) // a-f\n            ) return false;\n        }\n\n        // String is a color hex value\n        return true;\n    }\n}\n",
  "sourcePath": "/mnt/c/Users/Carles' PC/Documents/Repos/CryptoPlace/src/contracts/ERC721.sol",
  "compiler": {
    "name": "solc",
    "version": "0.8.4+commit.c7e474f2.Emscripten.clang"
  },
  "schemaVersion": "3.4.1",
  "updatedAt": "2021-06-09T07:38:21.526Z",
  "devdoc": {
    "author": "Carles Rojas",
    "details": "Implementation of https://eips.ethereum.org/EIPS/eip-721[ERC721] Non-Fungible Token Standard, including the Metadata extension, but not including the Enumerable extension, which is available separately as {ERC721Enumerable}.",
    "kind": "dev",
    "methods": {
      "approve(address,uint256)": {
        "details": "See {IERC721-approve}."
      },
      "balanceOf(address)": {
        "details": "See {IERC721-balanceOf}."
      },
      "constructor": {
        "details": "Initializes the contract by setting a `name` and a `symbol` to the token collection."
      },
      "getApproved(uint256)": {
        "details": "See {IERC721-getApproved}."
      },
      "isApprovedForAll(address,address)": {
        "details": "See {IERC721-isApprovedForAll}."
      },
      "isColor(string)": {
        "params": {
          "_color": "The HEX color code to check"
        },
        "returns": {
          "_0": "True if the string is a valid HEX color code"
        }
      },
      "name()": {
        "details": "See {IERC721Metadata-name}."
      },
      "owner()": {
        "details": "Returns the address of the current owner."
      },
      "ownerOf(uint256)": {
        "details": "See {IERC721-ownerOf}."
      },
      "paused()": {
        "details": "Returns true if the contract is paused, and false otherwise."
      },
      "renounceOwnership()": {
        "details": "Leaves the contract without owner. It will not be possible to call `onlyOwner` functions anymore. Can only be called by the current owner. NOTE: Renouncing ownership will leave the contract without an owner, thereby removing any functionality that is only available to the owner."
      },
      "safeTransferFrom(address,address,uint256)": {
        "details": "See {IERC721-safeTransferFrom}."
      },
      "safeTransferFrom(address,address,uint256,bytes)": {
        "details": "See {IERC721-safeTransferFrom}."
      },
      "setApprovalForAll(address,bool)": {
        "details": "See {IERC721-setApprovalForAll}."
      },
      "setBaseURI(string)": {
        "params": {
          "baseURI_": "The new base URI"
        }
      },
      "stringsAreEqual(string,string)": {
        "params": {
          "_s1": "The first string to compare",
          "_s2": "The second string to compare"
        },
        "returns": {
          "_0": "True if the strings are equal"
        }
      },
      "supportsInterface(bytes4)": {
        "details": "See {IERC165-supportsInterface}."
      },
      "symbol()": {
        "details": "See {IERC721Metadata-symbol}."
      },
      "tokenURI(uint256)": {
        "details": "See {IERC721Metadata-tokenURI}."
      },
      "transferFrom(address,address,uint256)": {
        "details": "See {IERC721-transferFrom}."
      },
      "transferOwnership(address)": {
        "details": "Transfers ownership of the contract to a new account (`newOwner`). Can only be called by the current owner."
      }
    },
    "version": 1
  },
  "userdoc": {
    "kind": "user",
    "methods": {
      "isColor(string)": {
        "notice": "Checks if a color is a valid HEX color code"
      },
      "setBaseURI(string)": {
        "notice": "Set the new base URI for all the pixels"
      },
      "stringsAreEqual(string,string)": {
        "notice": "Checks if two strings are equal"
      }
    },
    "version": 1
  }
}